:100000000C94F2000C941A010C941A010C941A012D
:100010000C941A010C941A010C941A010C944C06BD
:100020000C941A010C941A010C941A010C941A01E4
:100030000C941A010C941A010C941A010C941A01D4
:100040000C946D0D0C941A010C941A060C94F40582
:100050000C941A010C941A010C941A010C941A01B4
:100060000C941A010C941A015313B3137C136413E8
:10007000AE10AE104D13AE104D13AE104D134D1308
:100080004D13AE104D134D1300000100020003008C
:100090000400050006000700080009000A000B0024
:1000A0000C000D000E000F001000110012001300D4
:1000B00014001500170018001A001B001D001F0077
:1000C00021002300260028002B002D0030003300E3
:1000D00037003A003E00420046004B004F005500FA
:1000E0005A00600066006C0073007F0080008B0087
:1000F00094009D00A800B200BE00CA00E100FE000E
:10010000FF001301250138014B01610177018F01C7
:10011000A901C401E101FF010002280268028F0267
:10012000B902E602150347037D03B603FF032F045C
:100130007F04BF040F055F05BF050F067F06DF06BE
:100140004F07FF074F08CF085F09FF099F0A4F0BB2
:100150000F0CCF0C9F0D7F0E6F0FFF0F6F118F12C3
:10016000BF13FF145F16BF174F19DF1A9F1C6F1EB6
:10017000FF1F6F22AF2401277F291F2CEF2EEF31A5
:100180001F358F381F3CFF3F0000000800020100B0
:100190000003040700000000000000000000000051
:1001A000240027002A000000000023002600290068
:1001B00000000000250028002B00040404040404AF
:1001C0000404020202020202030303030303010206
:1001D00004081020408001020408102001020408D5
:1001E0001020CA1511241FBECFEFD8E0DEBFCDBF4F
:1001F00011E0A0E0B1E0EEE4FFE202C005900D9254
:10020000A635B107D9F726E0A6E5B1E001C01D92F9
:10021000AB3FB207E1F710E0C2EFD0E004C0219796
:10022000FE010E949A17C13FD107C9F70E94B70D7E
:100230000C94A5170C940000CF92DF92EF92FF92DE
:100240000F931F93CF93DF936C017A018B01C0E072
:10025000D0E0CE15DF0581F0D8016D918D01D6017A
:10026000ED91FC910190F081E02DC6010995892B5B
:1002700011F02196EECF7E01C701DF91CF911F9142
:100280000F91FF90EF90DF90CF900895089580E058
:1002900090E00895FC01538D448D252F30E0842F8C
:1002A00090E0821B930B541710F0CF96089501979E
:1002B0000895FC01918D828D981761F0828DDF0188
:1002C000A80FB11D5D968C91928D9F5F9F73928F49
:1002D00090E008958FEF9FEF0895FC01918D828D3E
:1002E000981731F0828DE80FF11D858D90E008950B
:1002F0008FEF9FEF0895FC01918D228D892F90E063
:10030000805C9F4F821B91098F739927089588ED18
:1003100095E00E947B0121E0892B09F420E0822FE7
:100320000895FC01848DDF01A80FB11DA35ABF4FB2
:100330002C91848D90E001968F739927848FA689E4
:10034000B7892C93A089B1898C91837080648C9338
:10035000938D848D981306C00288F389E02D8081E7
:100360008F7D80830895EF92FF920F931F93CF9319
:10037000DF93EC0181E0888F9B8D8C8D981305C0F5
:10038000E889F989808185FD26C0F62E0B8D10E065
:100390000F5F1F4F0F731127E02E8C8DE8120CC0DA
:1003A0000FB607FCFACFE889F989808185FFF5CF80
:1003B000CE010E949101F1CF8B8DFE01E80FF11D5E
:1003C000E35AFF4FF0829FB7F8940B8FEA89FB89BD
:1003D000808180620AC09FB7F894EE89FF896083AC
:1003E000E889F98980818370806480839FBF81E080
:1003F00090E0DF91CF911F910F91FF90EF900895C2
:10040000CF93DF93EC01888D8823C9F0EA89FB89BB
:10041000808185FD05C0A889B9898C9186FD0FC0B2
:100420000FB607FCF5CF808185FFF2CFA889B98987
:100430008C9185FFEDCFCE010E949101E7CFDF9136
:10044000CF91089580E090E0892B29F00E948701E8
:1004500081110C94000008950F93FA01E654FB4FAC
:100460003081311105C0DA01A656BB4F3C9101C065
:10047000302F332379F068177907D8F0621B7109A0
:1004800086179707C8F4011103C0FA01E656FB4F1F
:1004900010820FC08617970760F0620F711D6817F2
:1004A000790750F4011103C0FA01E656FB4F81E0D1
:1004B000808380E090E002C081E090E00F91089599
:1004C0000E94A0172F923F924F925F926F927F925D
:1004D0008F929F92AF92BF92CF92DF92EF92FF9254
:1004E0000F931F93CF93DF9300D000D01F92CDB70F
:1004F000DEB75C016B015D834C83FB01F081FB8304
:100500001F2F1770FB01858181708A83F281F98327
:10051000809168028111B3C0FB0143803480FA816D
:10052000FF2309F4A4C04230510548F07A014E3F40
:10053000534040F0ADEFEA2EA3E0FA2E03C0F2E004
:10054000EF2EF12C4501880C991CC401865A9B4F53
:100550003C01FC016081718101E027E0A501C70138
:100560000E942C02892B09F096C1F301F182E082EE
:10057000970140E050E0133009F04AC0E42DF0E06C
:10058000EE0FFF1FE857FF4F85919491E32DF0E0A8
:10059000EE0FFF1FE857FF4F659174913B01681AFA
:1005A000790A1C01412C512C225031094109510971
:1005B000CB01A0E0B0E0BC01CD0162197309840950
:1005C00095090E9462172BEF33E040E050E00E9453
:1005D0000717DA01C901820D931DA41DB51D7C0109
:1005E000FFEF6F16F3E07F06E4F5A30177FE03C08B
:1005F000519541955109F401E65EFB4F608171818F
:1006000000E0252FA5010E942C02892B51F143C146
:10061000512C612C712C2250310941095109832D33
:1006200090E0A0E0B0E0BC01CD0164197509860935
:1006300097090E9462172BEF33E040E050E00E94E0
:100640000717DA01C901840D951DA61DB71D7C0190
:10065000F401E65EFB4F80819181E816F90609F40A
:100660001AC1F401E65EFB4FF182E08208C02C81E2
:100670003D81232B11F0E42C01C0E32CF12C80915F
:100680006802882309F466C03A81332309F457C00D
:100690008C819D818230910540F08E3F934048F0DF
:1006A0008DEF93E09D838C8304C0E2E0F0E0FD8356
:1006B000EC837501EE0CFF1C9701265A3B4F690134
:1006C000F9016081718101E022E0A5018C819D81A9
:1006D0000E942C02892B09F0DEC02C813D81F6019D
:1006E00031832083C901A0E0B0E09C01AD0122501C
:1006F000310941095109AFE7B0E00E9426172BEFFD
:1007000033E040E050E00E940717D22EC32E122F94
:10071000C701865E9B4F9D838C83FC016081718144
:1007200000E020E0A5018D2D932F0E942C02892B43
:1007300009F0B1C0EC81FD81D082C18207C02C815B
:100740003D81232B11F41FE701C010E041E0612F30
:100750008A2D3CC08B818877B82EB694B694B69417
:10076000B3941330C1F048F4113079F0123009F02D
:1007700092C04B2D6E2D898129C0153009F44FC0D0
:10078000F0F1163009F45AC086C02B2D4E2D698128
:1007900080E990E067C04B2DF601618183E60E94FD
:1007A000AE0B4B2DF601628182E60E94AE0BB701C3
:1007B000660F672F661F770B71956F774B2D86E05D
:1007C0000E94AE0B6E2D6F774B2D86E20F900F902F
:1007D0000F900F900F90DF91CF911F910F91FF908D
:1007E000EF90DF90CF90BF90AF909F908F907F90D1
:1007F0006F905F904F903F902F900C94AE0B809134
:100800006702EB2DF0E020E1829FE00DF11D112445
:10081000E756FC4F60816623F1F161501EC03A81BA
:10082000311108C08C819D81892BA9F12B2D40E0CD
:10083000698116C02B2D40E06E2D12C08091670299
:10084000EB2DF0E090E1899FE00DF11D1124E756BA
:10085000FC4F60816F37F8F46F5F60832B2D40E0B1
:1008600080EC90E00F900F900F900F900F90DF9121
:10087000CF911F910F91FF90EF90DF90CF90BF909D
:10088000AF909F908F907F906F905F904F903F9030
:100890002F900C94580B0F900F900F900F900F907B
:1008A000DF91CF911F910F91FF90EF90DF90CF904C
:1008B000BF90AF909F908F907F906F905F904F9080
:1008C0003F902F9008954F925F926F927F928F92F8
:1008D0009F92AF92BF92CF92DF92EF92FF920F93CF
:1008E0001F93CF93DF930E943C0DC090EB04D090F8
:1008F000EC04E090ED04F090EE04C616D706E8068E
:10090000F90630F4809170008D7F809370005BC198
:10091000E091E504F091E60490818091E20489235E
:1009200009F051C1809170008D7F809370000E940A
:100930003C0DC090E904D090EA04E12CF12C8090A9
:10094000EB049090EC04A090ED04B090EE04C81875
:10095000D908EA08FB082DE0C21AD108E108F1081D
:10096000DC01CB018C0D9D1DAE1DBF1D8093DD04F0
:100970009093DE04A093DF04B093E004AA27BB2782
:100980004090900250909102609092027090930279
:10099000C0908C02D0908D02E0908E02F0908F0279
:1009A00084159505A605B70560F05C2D4D2D8C15B9
:1009B0009D05AE05BF0510F4582F492F252F342F64
:1009C00001C0920146018FEF881A980A8418950891
:1009D000A12CB12CC901A0E0B0E09C01AD0124190B
:1009E000350946095709C501B4010E9462179701EC
:1009F00086010F5F1F4F2F4F3F4FA9019801241908
:100A00003509460957090E9407171091BD05C12FE6
:100A1000C770D091BF05C090C0058091C105A82FB7
:100A2000B0E0CA01B90188279927C330B1F4EC2D91
:100A3000F0E0EE0FFF1FE857FF4FC590D490FD0187
:100A4000EE0FFF1FE857FF4FA591B491E12CF12C59
:100A500011962D01612C712C0AC0D12CE12CF12CA6
:100A60009D012F5F3F4F2901330F66087708A301CF
:100A700092012C193D094E095F090E946217A501D8
:100A800094010E940717C20ED31EE41EF51E20918A
:100A90008702E22FF0E0EE0FFF1FEF57FD4F80912E
:100AA00088029091890240815181841B950BD182EB
:100AB000C082C80ED91ED0928902C092880281E0FD
:100AC000820F833019F08093870202C01092870250
:100AD00080918002833018F48F5F80938002609150
:100AE0008002662331F070E0C6010E9472177B011C
:100AF00002C0E12CF12C80918A0290918B028E151C
:100B00009F0509F460C0F0928B02E0928A02809106
:100B10006802882321F04FE06E2D80E042C01877F4
:100B20001695169516951F5FC230E1F0C330F1F0AF
:100B3000C13009F048C0212F4E2D6D2F80E990E083
:100B4000DF91CF911F910F91FF90EF90DF90CF90A9
:100B5000BF90AF909F908F907F906F905F904F90DD
:100B60000C94580B412F6E2D8D2F1BC0412F60917F
:100B7000BE0583E60E94AE0B412F6091BF0582E661
:100B80000E94AE0BB701660F672F661F770B71953A
:100B90006F77412F86E00E94AE0B6E2D6F77412F4D
:100BA00086E2DF91CF911F910F91FF90EF90DF9040
:100BB000CF90BF90AF909F908F907F906F905F90FD
:100BC0004F900C94AE0BDF91CF911F910F91FF903E
:100BD000EF90DF90CF90BF90AF909F908F907F90DD
:100BE0006F905F904F9008951F920F920FB60F92E3
:100BF00011242F933F934F935F936F937F938F9322
:100C00009F93AF93BF93EF93FF9388ED95E00E947E
:100C10009101FF91EF91BF91AF919F918F917F9142
:100C20006F915F914F913F912F910F900FBE0F9059
:100C30001F9018951F920F920FB60F9211242F93A9
:100C40008F939F93EF93FF93E091E805F091E9056F
:100C50008081E091EE05F091EF0582FD12C0908158
:100C60008091F1058F5F8F732091F205821751F00B
:100C7000E091F105F0E0E852FA4F958F8093F1058D
:100C800001C08081FF91EF919F918F912F910F90E3
:100C90000FBE0F901F9018951F920F920FB60F92D4
:100CA00011242F933F934F935F936F937F938F9371
:100CB0009F93AF93BF93EF93FF93E0916001F09107
:100CC00061010995FF91EF91BF91AF919F918F9134
:100CD0007F916F915F914F913F912F910F900FBE38
:100CE0000F901F90189590915701891710F08FEF72
:100CF000890F4091580150915901849F9001859F1F
:100D0000300D1124205F3F4F3093C7052093C60557
:100D10008093560108956D3F710538F46A3F71055F
:100D200050F4683F710589F406C09B012E5F3109BC
:100D30002230310550F4DC018D919C91DC01ED9164
:100D4000FC910190F081E02D09940895BF92CF921B
:100D5000DF92EF92FF920F931F93CF93DF937C016B
:100D60006B01B42E052F81E0122F182739F060EFA8
:100D700070E0D7018D919C910E94B50BCB2DD02FA7
:100D8000CC0EDD1ECC15DD0561F0F701808191816F
:100D90006991DC01ED91FC910190F081E02D0995C4
:100DA000F1CF112381F067EF70E0F701808191812D
:100DB000DF91CF911F910F91FF90EF90DF90CF9037
:100DC000BF900C94B50BDF91CF911F910F91FF90C5
:100DD000EF90DF90CF90BF90089587FF0DC09CE00B
:100DE000980F923048F0982F9B7F993F29F0803FD1
:100DF00008F4807F90E0089580E090E008959C01E1
:100E00008F7C8038910561F0203D310549F081E00B
:100E1000203E310539F0203C310521F080E0089575
:100E200081E0089508959F92AF92BF92CF92DF9292
:100E3000EF92FF920F931F93CF93DF93CDB7DEB75F
:100E400029970FB6F894DEBF0FBECDBFA12CB12CF1
:100E5000C12CD12C992493948091990390E0C816C9
:100E6000D9060CF061C00091C6051091C7058091AC
:100E70005C0190915D01080F191F0A0D1B1D45E0D3
:100E800050E0BE016F5F7F4FC8010E94BC0B41E084
:100E900050E0BE016A5F7F4FC80105960E94BC0BFF
:100EA00001E030E1C316D1040CF400E00093980394
:100EB00076018FE0E822FF24E09297038981877012
:100EC00061F110E0873009F043C080916802811120
:100ED0003FC0B701C8010E94EA0C24E0000F111FB7
:100EE0002A95E1F7E00EF11EF701EE0FFF1FE15129
:100EF000FB4F918380839701220F331FF901E15D3E
:100F0000FA4F208131818217930739F091838083D2
:100F100020910001222309F4B3C08FEFC81AD80A28
:100F200096E0A90EB11C98CF1092000129960FB639
:100F3000F894DEBF0FBECDBFDF91CF911F910F910F
:100F4000FF90EF90DF90CF90BF90AF909F9008956B
:100F50008E8180FF46C0B701C8010E94A30CA4E0A7
:100F6000000F111FAA95E1F70E0D1F1DF801EE0FDE
:100F7000FF1FE151FB4F9183808320910001005EB0
:100F80001F4F000F111FF801E151FB4F211126C027
:100F9000208131818217930709F4BFCFAC01BE01D4
:100FA0006F5F7F4FC6010E9462028091980320917B
:100FB000970330E1839FC0011124820F911DDC0152
:100FC000AA0FBB1FA15DBA4F880F991FFC01E15109
:100FD000FB4F808191818D939C939FCF91838083E0
:100FE0009CCFB701C8010E94EA0C54E0000F111F0A
:100FF0005A95E1F798012E0D3F1DF901EE0FFF1FE5
:10100000E151FB4F91838083F901EE0FFF1FE15DFA
:10101000FA4F408151818417950709F47ECF4E81A4
:101020009183808350910001511177CF892B81F4F6
:101030008091670290E2899F200D311D1124F901F2
:10104000EC56FD4F4081842F8925808350E011C0EC
:1010500041FD63CF8091670230E2839F000D111D37
:1010600011240C561D4FF801EE0DFF1D108241E0BA
:1010700050E0BE016F5F7F4FC6010E9462024DCFFC
:101080001B810091560100936702892BD9F4011747
:1010900009F443CF80915701811708F43ECF809126
:1010A000960381113ACF8E81869581708093950346
:1010B00000939403812F0E9473061093670290920D
:1010C000960322C080919503811114C0011325CF8E
:1010D00080919603882309F420CF809194030E9485
:1010E00073060093940380915601809367021092D7
:1010F00096030AC0011311CF80919603882309F447
:101100000CCF1092960309CF90926C0206CF0F93EA
:101110001F93CF9380910301882361F01092030104
:101120000E94610D60937C0270937D0280937E0229
:1011300090937F020E94610D00917C0210917D02CC
:1011400020917E0230917F02DC01CB01801B910B4C
:10115000A20BB30B85369105A105B10520F10E94C4
:10116000610D60937C0270937D0280937E02909368
:101170007F02C0917B0281E0C8276C2F8DE00E9426
:10118000150CC0937B02C11105C080916E02815085
:1011900080936E0280916E02811105C010926F02E1
:1011A00081E080930301CF911F910F910895CF9318
:1011B000DF9300D000D0CDB7DEB74091C605509187
:1011C000C70520915A0130915B01240F351F880F0C
:1011D000991F880F991F44E050E0BE016F5F7F4F59
:1011E000820F931F0E94BC0B69817A818B819C8145
:1011F0000F900F900F900F90DF91CF910895EF9285
:10120000FF920F931F93CF93DF931091AD06009140
:10121000AE0680916802811118C0E090AA06F12CF8
:1012200080916902F81608F07FC0CF2DD0E0CE0182
:101230000E94D708171356C0262F28772695269583
:1012400026952F5F2E114EC024C0002371F010315F
:1012500008F06AC0E12FF0E0E355FA4FE081F0E0DA
:10126000E358FA4F81E080830CC0103108F05CC075
:10127000E12FF0E0E355FA4FE081F0E0E358FA4F58
:101280001082DF91CF911F910F91FF90EF900C94FE
:10129000440C2091AB063091AC062039310589F41D
:1012A0002091670260FF20C0081780F1901770F14D
:1012B00080E2289FC00DD11D1124C959DE4F81E065
:1012C0001DC02038310551F48091670290E2899F5A
:1012D000C00DD11D1124C959DE4F188281E08093C1
:1012E0006B0222C0F3949CCF002351F080E2289F30
:1012F000C00DD11D1124C959DE4F82E08883EECF85
:1013000090E2299FC00DD11D1124E5CF002331F0BB
:1013100090E2299FC00DD11D1124EDCF80E2289FBE
:10132000C00DD11D1124D7CFDF91CF911F910F9107
:10133000FF90EF9008950F931F93CF93DF93EC01ED
:101340008B0145E050E0BC01C8010E94BC0BBE010E
:101350006B5F7F4F44E050E0C8010596DF91CF916D
:101360001F910F910C94BC0B40E150E0BC0180E058
:1013700090E00C94BC0BAF92BF92CF92DF92EF92B1
:10138000FF920F931F93CF93DF93CDB7DEB769978B
:101390000FB6F894DEBF0FBECDBF182F61E08DE011
:1013A0000E94670CCE0101960E94B40980E1FE0103
:1013B0003196A8ECB5E001900D928A95E1F7109274
:1013C000670280E00E9473061093680281E08093B8
:1013D00000018091C805893509F021C18091C905B6
:1013E000843509F01CC18091CA05883509F017C100
:1013F00089E390E090935F0180935E018091D40532
:10140000817080936A028091D605809399038091C0
:10141000D705809369026091C6057091C705CE011A
:1014200041960E949B0989E0FE017196ADEBB5E003
:1014300001900D928A95E1F78091BD05877091E04A
:1014400009F490E090936D029091D40591FF04C04F
:1014500093E09093A90602C01092A906882309F48C
:101460006EC0109280021092870210928902109230
:1014700088021092820210928102109284021092CD
:10148000830210928602109285028091C20520E8A4
:10149000829FC00111242091C305822B49E3489FFC
:1014A0009001499F300D1124C901330FAA0BBB0BCA
:1014B0008093900290939102A0939202B093930232
:1014C0008091C40520E8829FC00111242091C505A8
:1014D000822B489F9001499F300D1124C901330F81
:1014E000AA0BBB0B80938C0290938D02A0938E026B
:1014F000B0938F02109266010E94610DDC01CB0156
:101500004996A11DB11D8093620190936301A09340
:101510006401B093650162E08CE00E94670C61E0B9
:101520008DE00E94670C62E08AE00E94670C61E037
:101530008BE00E94670C60E08BE00E94150C10921B
:101540009803B090980381E08B1568F1109297038F
:10155000EB2CF12C670144E0CC0CDD1C4A95E1F743
:10156000A09097032FE02A15D0F00A2D10E0B801C3
:10157000C7010E94A30C0C0D1D1DF801EE0FFF1FEB
:10158000E151FB4F91838083000F111FF801E15D52
:10159000FA4F91838083A394A0929703E1CFB394F1
:1015A000B0929803CECF6AE973E024E932E047E6CF
:1015B00051E080E090E0F901E80FF91F1082FA0194
:1015C000E80FF91F1082019680329105A1F780E0A3
:1015D00090E0FB01E80FF91F108201968031910520
:1015E000C1F7605F7F4F205E3F4F405E5F4F83E0FB
:1015F00024393807F1F681E080936B0269960FB6C3
:10160000F894DEBF0FBECDBFDF91CF911F910F9138
:10161000FF90EF90DF90CF90BF90AF900895109221
:10162000020189E390E090935F0180935E0187CF90
:10163000833081F028F4813099F08230A1F0089550
:101640008730A9F08830B9F08430D1F480918000DF
:101650008F7D03C0809180008F77809380000895F4
:1016600084B58F7702C084B58F7D84BD0895809145
:10167000B0008F7703C08091B0008F7D8093B00061
:1016800008958E3008F08E508770806480937C00BF
:1016900080917A00806480937A0080917A0086FD40
:1016A000FCCF809178002091790090E0922B0895F2
:1016B0000F931F93CF93DF932150203108F049C03F
:1016C000803891050CF445C0813E91059CF5142F9E
:1016D000062FEC018091990690919A066C2F622B4F
:1016E000DC01ED91FC910190F081E02D0995809154
:1016F000990690919A06602F6F77DC01ED91FC912D
:101700000190F081E02D0995CE018F7E803C9105FE
:1017100001F18091990690919A06612F6F77DC0113
:10172000ED91FC910190F081E02DDF91CF911F911F
:101730000F9109949C01285F31092830310548F444
:10174000BC0189E996E0DF91CF911F910F910C9434
:101750008B06DF91CF911F910F910895242F462F73
:10176000682F80EB90E00C94580BDC01ED91FC911C
:101770000190F081E02D0994EF92FF920F931F9357
:10178000CF93DF938B01040F151FEB017C01E61A49
:10179000F70AC017D10739F0C7018C0F9D1F0E94AF
:1017A000F1168993F6CFDF91CF911F910F91FF90A2
:1017B000EF900895009769F0FC0101900020E9F78F
:1017C0003197AF01481B590BBC0188ED95E00C9493
:1017D0001C0180E090E00895CF93DF93282F30E044
:1017E000F901E857FE4F8491F901E253FE4FD4917D
:1017F000F901E654FE4FC491CC2391F081110E946F
:10180000180BEC2FF0E0EE0FFF1FEA55FE4FA591ED
:10181000B491EC91ED2381E090E021F480E002C0EE
:1018200080E090E0DF91CF9108951F93CF93DF93F5
:10183000282F30E0F901E857FE4F8491F901E25377
:10184000FE4FD491F901E654FE4FC491CC23C1F070
:10185000162F81110E94180BEC2FF0E0EE0FFF1FE6
:10186000E055FE4FA591B4919FB7F894111104C0B3
:101870008C91D095D82302C0EC91DE2BDC939FBFD6
:10188000DF91CF911F910895CF93DF9360E0809116
:1018900079050E94150CCDE8D5E060E080917B05CC
:1018A0000E94150C6A91809177050E94150C61E0E9
:1018B00080917B050E94150C85E0CD37D80769F72C
:1018C00061E080917905DF91CF910C94150CCF9355
:1018D000DF9390E0FC01E253FE4F2491FC01E654BB
:1018E000FE4F8491882361F190E0880F991FFC01DD
:1018F000E456FE4FC591D491FC01E055FE4FA591F1
:10190000B491611109C09FB7F89488812095822312
:101910008883EC912E230BC0623061F49FB7F8945A
:101920008881322F309583238883EC912E2B2C9342
:101930009FBF06C08FB7F894E8812E2B28838FBFF6
:10194000DF91CF9108950F931F93CF93DF93603171
:101950007105C8F58B01EC01009741F460E08EE061
:101960000E94670CF801E357FA4F09C0019759F537
:1019700060E08FE00E94670CF801E356FA4F208187
:1019800030E08BB1837C8BB98BB1220F331F220FD8
:10199000331F282B2BB9209739F0219779F48FE04A
:1019A0000E94410B8FE004C08EE00E94410B8EE04C
:1019B0000E94410B9093FA068093F9068091F906F4
:1019C0009091FA0602C08FEF9FEFDF91CF911F91A8
:1019D0000F910895FF920F931F93CF93DF93603180
:1019E000710508F041C08C01009761F4FB01E357D9
:1019F000FA4FC081D0E060E08EE00E94670C61E0A9
:101A00008EE00DC0019781F5FB01E356FA4FC081CE
:101A1000D0E060E08FE00E94670C61E08FE00E9400
:101A2000150C8BB1837C8BB98BB1CC0FDD1FCC0F28
:101A3000DD1FC82BCBB90115110541F0013011058F
:101A400081F48FE00E94EC0B8FE004C08EE00E94D6
:101A5000EC0B8EE00E94EC0BFF24F394892B09F42D
:101A6000F12C8F2D90E002C08FEF9FEFDF91CF918F
:101A70001F910F91FF9008953FB7F8948091F5065C
:101A80009091F606A091F706B091F80626B5A89BAE
:101A900005C02F3F19F00196A11DB11D3FBFBA2F00
:101AA000A92F982F8827820F911DA11DB11DBC0160
:101AB000CD0142E0660F771F881F991F4A95D1F725
:101AC00008952FB7F8946091F1067091F206809115
:101AD000F3069091F4062FBF08951F920F920FB650
:101AE0000F9211242F933F938F939F93AF93BF93A4
:101AF0008091F1069091F206A091F306B091F40660
:101B00003091F00623E0230F2D3720F40196A11D1C
:101B1000B11D05C026E8230F0296A11DB11D20931B
:101B2000F0068093F1069093F206A093F306B0932B
:101B3000F4068091F5069091F606A091F706B09113
:101B4000F8060196A11DB11D8093F5069093F60647
:101B5000A093F706B093F806BF91AF919F918F9134
:101B60003F912F910F900FBE0F901F901895CF931C
:101B7000DF93CDB7DEB7E1970FB6F894DEBF0FBEA7
:101B8000CDBF789484B5826084BD84B5816084BD06
:101B900085B5826085BD85B5816085BD80916E000B
:101BA000816080936E00109281008091810082603C
:101BB0008093810080918100816080938100809179
:101BC00080008160809380008091B1008460809368
:101BD000B1008091B00081608093B00080917A0064
:101BE000846080937A0080917A00826080937A008A
:101BF00080917A00816080937A0080917A00806879
:101C000080937A001092C100E0919906F0919A06B3
:101C1000A089B18982E08C93A485B5851C92A685A4
:101C2000B7858FE38C93108EA489B58986E08C9359
:101C3000A289B3898C9180618C93A289B3898C919C
:101C400088608C93A289B3898C9180688C93028878
:101C5000F389E02D80818F7D808310929B06109206
:101C60009D0610929C061092A4061092A306109254
:101C7000A2061092A1068FEF9FEF9093A606809385
:101C8000A5069093A8068093A7061092EF061092DF
:101C9000AC061092AB061092AA061092AD061092F6
:101CA000AE061092A90661E0809179050E94670C4A
:101CB00061E0809177050E94670C61E080917B056F
:101CC0000E94670C61E080916F050E94670C61E0E3
:101CD000809171050E94670C61E0809173050E94FC
:101CE000670C61E0809175050E94670CAFEEB4E06F
:101CF000EFE0F5E01D921D92DF961C921E92DE979A
:101D000025E0AF30B207B1F78FE295E01192119262
:101D100017AE16AE8E179F07C9F72DE735E0EDE831
:101D2000F5E0D9011D92EA17FB07E1F780917A00EF
:101D3000887F80937A0080917A00846080937A0013
:101D400012922E173F07E1F70E94440C80917A000F
:101D5000887F80937A0080917A00846080937A00F3
:101D6000CE0182960E94B4098AA1893551F48BA1D3
:101D7000843539F48CA1883521F48DA1813009F4A2
:101D8000C8C31092C7051092C6051092590110924F
:101D9000580110925B0110925A0110925D0110924D
:101DA0005C0110925601109257010E94610D6093E0
:101DB000720270937302809374029093750280E0B4
:101DC0000E94BB097724739454EF252E3324339457
:101DD000412C512CD0909B06B0E1BD1508F4C0C138
:101DE0008091990690919A06DC01ED91FC91008416
:101DF000F185E02D0995892B09F4B2C180919906EE
:101E000090919A06DC01ED91FC910284F385E02D1E
:101E100009958C018B7F893F09F4A2C18091A306AB
:101E20009091A406009709F0B8C000939E06F09028
:101E30009C068F2D0E94ED060E94FF06882361F00C
:101E400007FD0AC0F0929E0600939F06E1E0F0E0D5
:101E5000F093A406E093A30610919E06812F0E94A2
:101E6000ED06813F910509F460C080F5803B910546
:101E700009F462C068F48039910509F45DC0803AC4
:101E8000910509F459C08038910509F0E5C054C0A6
:101E9000803D910509F449C028F4803C910509F47E
:101EA00044C0DAC0803E910509F446C0803F9105E8
:101EB00009F0D2C020E430E03093A2062093A106BE
:101EC00010929C0620EF2093AF063CC0883F9105FE
:101ED000B9F040F4833F910541F170F1863F9105DF
:101EE00079F0BAC08A3F910508F4B6C08D3F9105DC
:101EF00038F09C012E5F31092230310508F0ACC06A
:101F00009093AC068093AB061092AA061092AD0691
:101F10001092AE067092EF061092A4061092A306DD
:101F20001092A2061092A106F3C022E030E0309396
:101F3000A2062093A10606C0A3E0B0E0B093A206DB
:101F4000A093A1062091A3063091A4064091A1067A
:101F50005091A2064150510924173507B8F09093CB
:101F6000AC068093AB061F701F5F1093AA0680918A
:101F70009F068093AD061092AE061092A4061092B2
:101F8000A3061092A2061092A10628C02F5F3F4F11
:101F90003093A4062093A306E3C007FF45C0980131
:101FA00033272D3F310554F42A3F31056CF4273F88
:101FB0003105B9F0283F3105B9F506C0A9014E5FDA
:101FC00051094230510580F53093AC062093AB06A1
:101FD0001092AD061092AE061092AA067092EF060D
:101FE00097C02091AF06203FB9F59C012F5F3F4F6E
:101FF000FC01EB58F94F47EF42AFE0EFF0E0F09310
:10200000AC06E093AB062093AD063093AE0610927B
:10201000AA067092EF061092A4061092A3061092E0
:10202000A2061092A1066BC020919E06FC01EB58FF
:10203000F94F203FE1F402AFE090A106F090A20634
:102040009701215031098217930708F45BC0C090B3
:102050009E06F0EFCF120DC01092A4061092A306B8
:102060001092A2061092A10610929C0679C001A7B8
:10207000E3CF8C2D0E94ED068C019093AC068093EB
:10208000AB060E94FF06882331F08C2D8F708F5F86
:102090008093AA0602C01092AA0680919F068093A0
:1020A000AD0623E0E216F10419F48091A00601C008
:1020B00080E08093AE061092A4061092A3061092C0
:1020C000A2061092A1067092EF06003B1105A1F046
:1020D00050F40039110581F0003A110569F000381B
:1020E000110569F409C0003D110531F0003E1105EC
:1020F00019F0003C110519F4C0929C0609C0109219
:102100009C0606C001969093A4068093A30628C05F
:102110008091AB069091AC068039910529F48091AD
:10212000AE06882309F415C48091AB069091AC06E5
:102130009C01205831092136310508F011C4209145
:10214000AA06D21609F40CC4DD2009F409C400E083
:102150009091A906892F817090FD68C2011127C353
:1021600080910201882309F4B8C180916F0288230D
:1021700029F080916E0281110E9487088091760279
:102180008111C4C180916C02811104C080916B02E5
:10219000882301F110926C0210926B0280916A0206
:1021A000811118C09DEAE92E95E0F92E00E010E0BB
:1021B0008091690290E00817190760F4C8010E9435
:1021C000D7088091670261FFC7C49091680291119E
:1021D000C3C4B6C40E94610D0091720210917302D3
:1021E0002091740230917502DC01CB01801B910BB0
:1021F000A20BB30B8D329140A105B10508F447C085
:102200008DEAE82E85E0F82E00E010E0809169026A
:1022100090E00817190760F580916702F80120E245
:10222000829FE00DF11D1124E959FE4F808181301C
:10223000C9F490917102992351F00031110590F485
:10224000D701EC91F0E0E358FA4F808309C00031E8
:10225000110540F4D701EC91F0E0E358FA4F1082F9
:102260000E94440C0F5F1F4FBFEFEB1AFB0ACECF4B
:102270000E94610D609372027093730280937402E6
:1022800090937502809171028725809371028091ED
:102290006D02882309F41EC18AE00E94EC0B209194
:1022A0000101892B91F42223A1F010920101809168
:1022B00066018725809366016091700267256093AF
:1022C00070028BE00E94150C04C0211102C07092B4
:1022D000010180910001882329F010927002709210
:1022E0000101F8C080916601882309F4E4C00E94CE
:1022F000610D0091620110916301209164013091A0
:102300006501601771078207930708F4E3C0D901DC
:10231000C8014996A11DB11D80936201909363018C
:10232000A0936401B09365018091C405E0E88E9F9D
:10233000C00111242091C505822B009789F00196D8
:1023400049E3489F9001499F300D11242E38FFE644
:102350003F0710F02DE83FE63093EA042093E904AC
:10236000E091E704F091E80490818091E104892BE9
:102370008083E091E304F091E40490818091E10492
:102380008095892380838BE090E00197F1F7E091BD
:10239000E304F091E40490818091E104892B80832F
:1023A00083E290E00197F1F7E091E304F091E40417
:1023B00090818091E104809589238083E091E704F6
:1023C000F091E80490818091E104809589238083D5
:1023D000E091E504F091E60490818091E204892384
:1023E00009F078C00E943C0D2091E9043091EA0484
:1023F000890120E030E00855194E2F4F3F4FDC0196
:10240000CB01800F911FA21FB31F8093EB04909309
:10241000EC04A093ED04B093EE04E091E504F09198
:10242000E60490818091E204892381F40E943C0DAE
:102430000091EB041091EC042091ED043091EE0436
:10244000061717072807390740F744C00E943C0DBC
:102450002091E9043091EA04DC01CB01820F931F43
:10246000A11DB11D8093EB049093EC04A093ED04A7
:10247000B093EE0423E634E03093610120936001D1
:10248000809170008D7F809370008091B6008F7D69
:102490008093B60082E08093B00084E08093B10026
:1024A0001092B20085E08093B3008091700082604A
:1024B000809370000FC00E94610DDC01CB01499632
:1024C000A11DB11D8093620190936301A0936401EB
:1024D000B09365010E94130719C00E94610DA2010B
:1024E00091010E943117672B682B692B21F47092A0
:1024F0006F0270926E0280916F02882359F380916F
:102500006E02882339F30E948708E4CF0E942202DA
:1025100061CC89E090E090935D0180935C0188A993
:1025200036E0839FC0011124099690935B0180934C
:102530005A0129A9A4E02A9F800D911D112490938E
:1025400059018093580186E491E00E94DA0B8FE4F0
:1025500091E00E94DA0BC0905801D09059010D2CE7
:10256000000CEE08FF08F7FE25C06DE288ED95E04F
:102570000E94B30122273327A9012C193D094E09D6
:102580005F0919A28E010F5D1F4F7AE0C72ED12C73
:10259000E12CF12CCA01B901A70196010E94311763
:1025A000605DF80162938F012115310541055105E8
:1025B00089F71AC0A701960119A28E010F5D1F4F5E
:1025C0006AE0C62ED12CE12CF12CCA01B901A70179
:1025D00096010E943117605DD8016E938D0121151F
:1025E00031054105510589F7C8010E94DA0B82E5E2
:1025F00091E00E94DA0B609158017091590180EFCF
:1026000093E00E9486172FA530E0CB0126173707ED
:102610000CF4C9018F3F910519F014F08FEF90E091
:102620008093570180E00E947306BFCB292F2E7F35
:1026300009F494CDA091AB06B091AC069D01205851
:10264000310921363105F0F42091AA06D21619F08D
:1026500081E0D11080E09695923031F0933041F0D6
:10266000913009F07BCD06C0882309F477CD02C0F4
:10267000811174CD4091AE066091AD06CD010E94EE
:10268000580B6CCDFD01E05FF109E031F10508F078
:1026900065CDEC5CFF4F0C949A17BD0189E996E07B
:1026A0000E948B065BCD6091AD067091AE066134E1
:1026B000710510F060E470E021E04FEA56E089E92E
:1026C00096E00E94A6064ACD1091AD06809199062B
:1026D00090919A06DC01ED91FC910190F081E02D42
:1026E00063EF09951F77612F70E0809199069091B3
:1026F0009A060E94B50B32CD8091AE06B0E88B9F52
:10270000900111248091AD067901E82A8091990603
:1027100090919A06DC01ED91FC910190F081E02D01
:1027200062EF09958091990690919A06B7016F77AB
:102730007727DC01ED91FC910190F081E02D099566
:102740008091990690919A06B701660F672F661FD0
:10275000770B71956F777727DC01ED91FC910190F4
:10276000F081E02D22C01091AD061770B0E11B9FE3
:10277000C00111241091AE061F70182B809199068C
:1027800090919A06DC01ED91FC910190F081E02D91
:1027900061EF09958091990690919A06DC01ED917F
:1027A000FC910190F081E02D612F0995D7CC8091AB
:1027B000AB069091AC068039910539F0803F9105C8
:1027C00039F08038910509F0CBCC0E94FF08C8CCC5
:1027D0008091B006893509F0C3CC8091B10684356B
:1027E00009F0BECC8091B206883509F0B9CC809151
:1027F000B3068130E9F4909168029111B1CC8093D5
:102800006F0280936E0285E0E4E0F1E0DE01119654
:1028100001900D928A95E1F720E0AE014F5F5F4F86
:1028200065E070E089E996E00E94A60681E08EC02E
:10283000853051F480916802882309F491CC70921C
:102840006F0270926E026EC0833009F089CC909155
:10285000AD068091AE0620917602211104C07092DF
:1028600076021092A906092F182F0134110510F0D5
:1028700000E410E02091B40680915E0190915F0128
:1028800035EBC32E36E0D32E5801289F7001299FC7
:10289000F00C1124B7E0AB16B10431F570926F0261
:1028A00070926E0280915E0190915F010796081709
:1028B000190708F055CC10927602B3E0B0936E027F
:1028C00085E0E9E0F1E0DE01929601900D928A95B3
:1028D000E1F720E0AE014E5D5F4F65E070E089E911
:1028E00096E00E94A6061EC04601F6016080C70160
:1028F0000E94F116681621F0662DC7010E94F91694
:10290000C7010E94F116FFEFCF1ADF0A2FEFE21A7C
:10291000F20A31E0A31AB108D4019C91981709F486
:10292000B9CFBCCF85E0EEE0F1E0DE011196019079
:102930000D928A95E1F720E0AE014F5F5F4F65E0B1
:1029400070E089E996E00E94A60680E00E94BB093B
:1029500007CC80E890E09093AC068093AB06E4CB84
:10296000813F9105B1F5E0918506F09186060CC096
:102970008B3F910508F0C3C0833F910509F0A0C0CB
:10298000E0918906F0918A06309709F18091AD06B1
:1029900009951DC0813D910508F454C0803E910504
:1029A00009F060C0E0918106F0918206309779F0DD
:1029B0006091AE066F7730E8639FB001112480917B
:1029C000AD068F77682B70528091AA06099501E0B9
:1029D000BFCB823F910508F05DC0803B9105B1F40B
:1029E000E0917B06F0917C0607C08038910579F76D
:1029F000E0917506F0917606309749F34091AE0666
:102A00006091AD068091AA060995E1CF813B9105C1
:102A100080F48039910529F4E0917706F0917806E9
:102A2000EBCF803A910509F7E0917906F0917A06AB
:102A3000E3CF803D910509F0ADCFE0917F06F091A5
:102A4000800607C0803C910511F6E0917D06F0916B
:102A50007E06309709F4BBCF6091AD068091AA063F
:102A60000995B5CF803F910509F0B1CFE09183067C
:102A7000F0918406309709F4AACF6091AD06709169
:102A8000AE066134710510F060E470E08FEA96E004
:102A900009959DCF8A3F910509F06ACFE0918F0695
:102AA000F091900608C0883F910509F090CFE09121
:102AB0008D06F0918E06309709F489CF099587CF5E
:102AC000833F9105A0F4E0918706F0918806309746
:102AD00009F47DCF8091AE068F77A0E88A9FC00170
:102AE00011242091AD062F77822B099570CF863F58
:102AF0009105C9F6E0918B06F0918C06DCCF8C3FF6
:102B0000910529F4E0919306F0919406D4CF8C3F7F
:102B1000910528F4E0919106F0919206CCCF8E3F7A
:102B2000910529F4E0919506F0919606C4CF8F3F68
:102B3000910509F04CCFE0919706F0919806BBCF34
:102B4000871317C000311105F8F4D701EC91F0E0BC
:102B5000E358FA4F708216C0F80190E2899FE00DA9
:102B6000F11D1124E959FE4F8081823059F3811102
:102B70000BC00031110540F4D701EC91F0E0E358AF
:102B8000FA4F10820E94440C0F5F1F4FBFEFEB1AE9
:102B9000FB0A0ECBCF93DF93A8EDB5E013961C9202
:102BA0001E92129748EE53E060E070E014964D9349
:102BB0005D936D937C93179788E391E011969C93B6
:102BC0008E9385EC90E01D969C938E931C9784ECDD
:102BD00090E01F969C938E931E9780EC90E0519608
:102BE0009C938E93509781EC90E053969C938E9398
:102BF000529782EC90E055969C938E93549786EC76
:102C000090E057969C938E93569759961C9259979D
:102C10005A961C925A975B961C925B975C961C92F4
:102C20005C9784E690E09093DC048093DB04E5E716
:102C3000F6E0B5A3A4A316A217A210A615A614A683
:102C400017A616A68FEF9FEF91AB80AB93AB82AB2D
:102C500083E08093A90615AA17AA16AA10AE11AE92
:102C60001092EF0680E4AFEAB6E0ED0119928A9582
:102C7000E9F7118210821382128215821482178260
:102C8000168211861086138612861586148617867C
:102C90001686118A108A138A128A158A148A178A4C
:102CA000168A118E108E138E128E158E148E178E1C
:102CB000168E11A210A213A212A288EC95E00E9417
:102CC000B4096091C6057091C7058DEB95E00E942F
:102CD0009B0982E090E09093700580936F0583E0FC
:102CE00090E0909372058093710584E090E090935A
:102CF00074058093730585E090E09093760580934A
:102D0000750586E090E0909378058093770587E0DD
:102D100090E090937A058093790588E090E0909315
:102D20007C0580937B0580E1E4E1F1E0ADE8B5E06E
:102D300001900D928A95E1F780E1E4E1F1E0ADE9DF
:102D4000B5E001900D928A95E1F780E1E4E2F1E0CF
:102D5000ADEAB5E001900D928A95E1F7EBEDF1E077
:102D6000E491ADEDB4E01496EC931497EAEDF1E044
:102D7000E4911596EC93159787EC91E0FC01249172
:102D8000E22FF0E0EE0FFF1FE055FE4F259134914A
:102D900017963C932E931697E6ECF1E0E491F0E061
:102DA000EE0FFF1FEA55FE4F2591349119963C9383
:102DB0002E931897FC018491E82FF0E0EE0FFF1F8F
:102DC000E456FE4F859194911B969C938E931A978F
:102DD0008DE89FE61D969C938E931C97DF91CF9173
:102DE0000895F999FECF92BD81BDF89A992780B5D3
:102DF0000895262FF999FECF1FBA92BD81BD20BD3F
:102E00000FB6F894FA9AF99A0FBE01960895052E16
:102E100097FB1EF400940E941E1757FD07D00E94D6
:102E2000311707FC03D04EF40C941E1750954095B3
:102E3000309521953F4F4F4F5F4F08959095809566
:102E4000709561957F4F8F4F9F4F08950E94531744
:102E5000A59F900DB49F900DA49F800D911D1124EE
:102E60000895A1E21A2EAA1BBB1BFD010DC0AA1FCB
:102E7000BB1FEE1FFF1FA217B307E407F50720F0E3
:102E8000A21BB30BE40BF50B661F771F881F991F5E
:102E90001A9469F760957095809590959B01AC01A7
:102EA000BD01CF010895A29FB001B39FC001A39FB0
:102EB000700D811D1124911DB29F700D811D112473
:102EC000911D0895DB018F939F930E942617BF9158
:102ED000AF91A29F800D911DA39F900DB29F900D69
:102EE00011240895AA1BBB1B51E107C0AA1FBB1FD9
:102EF000A617B70710F0A61BB70B881F991F5A9586
:102F0000A9F780959095BC01CD01089597FB072EF8
:102F100016F4009407D077FD09D00E94721707FCC1
:102F200005D03EF4909581959F4F089570956195D9
:102F30007F4F0895EE0FFF1F0590F491E02D099447
:0E2F400081E090E0F8940C94A517F894FFCF70
:102F4E0001010101595458020059545804005954B2
:102F5E005806001900070106020503040F0B0E0A9E
:102F6E000D090C0807000603050204010F080E0BDD
:102F7E000D0A0C0900000000B3011C014A010002F9
:102F8E007B0159016D0142616E6B206C656E003ADA
:062F9E0020000D0A0000F6
:107E0000112484B714BE81FFF0D085E080938100F7
:107E100082E08093C00088E18093C10086E0809377
:107E2000C20080E18093C4008EE0C9D0259A86E02C
:107E300020E33CEF91E0309385002093840096BBD3
:107E4000B09BFECF1D9AA8958150A9F7CC24DD24C4
:107E500088248394B5E0AB2EA1E19A2EF3E0BF2EE7
:107E6000A2D0813461F49FD0082FAFD0023811F036
:107E7000013811F484E001C083E08DD089C08234E0
:107E800011F484E103C0853419F485E0A6D080C0E4
:107E9000853579F488D0E82EFF2485D0082F10E0AE
:107EA000102F00270E291F29000F111F8ED06801E7
:107EB0006FC0863521F484E090D080E0DECF843638
:107EC00009F040C070D06FD0082F6DD080E0C81688
:107ED00080E7D80618F4F601B7BEE895C0E0D1E017
:107EE00062D089930C17E1F7F0E0CF16F0E7DF06D8
:107EF00018F0F601B7BEE89568D007B600FCFDCFD4
:107F0000A601A0E0B1E02C9130E011968C91119780
:107F100090E0982F8827822B932B1296FA010C0160
:107F200087BEE89511244E5F5F4FF1E0A038BF0790
:107F300051F7F601A7BEE89507B600FCFDCF97BE46
:107F4000E89526C08437B1F42ED02DD0F82E2BD052
:107F50003CD0F601EF2C8F010F5F1F4F84911BD097
:107F6000EA94F801C1F70894C11CD11CFA94CF0C13
:107F7000D11C0EC0853739F428D08EE10CD085E9AC
:107F80000AD08FE07ACF813511F488E018D01DD067
:107F900080E101D065CF982F8091C00085FFFCCF94
:107FA0009093C60008958091C00087FFFCCF809118
:107FB000C00084FD01C0A8958091C6000895E0E648
:107FC000F0E098E1908380830895EDDF803219F02E
:107FD00088E0F5DFFFCF84E1DECF1F93182FE3DFCA
:107FE0001150E9F7F2DF1F91089580E0E8DFEE27F6
:047FF000FF270994CA
:027FFE00040479
:0400000300007E007B
:00000001FF
