:100000000C94F2000C941A010C941A010C941A012D
:100010000C941A010C941A010C941A010C94E2032A
:100020000C941A010C941A010C941A010C941A01E4
:100030000C941A010C941A010C941A010C941A01D4
:100040000C9498030C941A010C94AE020C94880240
:100050000C941A010C941A010C941A010C941A01B4
:100060000C941A010C941A01EC104F111911011182
:10007000560E560EE610560EE610560EE610E61018
:10008000E610560EE610E610000001000200030024
:100090000400050006000700080009000A000B0024
:1000A0000C000D000E000F001000110012001300D4
:1000B00014001500170018001A001B001D001F0077
:1000C00021002300260028002B002D0030003300E3
:1000D00037003A003E00420046004B004F005500FA
:1000E0005A00600066006C0073007F0080008B0087
:1000F00094009D00A800B200BE00CA00E100FE000E
:10010000FF001301250138014B01610177018F01C7
:10011000A901C401E101FF010002280268028F0267
:10012000B902E602150347037D03B603FF032F045C
:100130007F04BF040F055F05BF050F067F06DF06BE
:100140004F07FF074F08CF085F09FF099F0A4F0BB2
:100150000F0CCF0C9F0D7F0E6F0FFF0F6F118F12C3
:10016000BF13FF145F16BF174F19DF1A9F1C6F1EB6
:10017000FF1F6F22AF2401277F291F2CEF2EEF31A5
:100180001F358F381F3CFF3F000000002400270070
:100190002A0000000000250028002B0000000000BD
:1001A00023002600290004040404040404040202B9
:1001B00002020202030303030303010204081020E6
:1001C00040800102040810200102040810200000F1
:1001D0000008000201000003040700000000000006
:1001E0000000241311241FBECFEFD8E0DEBFCDBF27
:1001F00011E0A0E0B1E0E0EBF9E202C005900D9261
:10020000A435B107D9F725E0A4E5B1E001C01D92FE
:10021000A134B207E1F710E0C2EFD0E004C02197AB
:10022000FE010E94B714C13FD107C9F70E94660BB7
:100230000C94D6140C940000CF92DF92EF92FF92B0
:100240000F931F93CF93DF936C017A018B01C0E072
:10025000D0E0CE15DF0589F0D8016D918D01D60172
:10026000ED91FC910190F081E02DC6010995892B5B
:1002700011F47E0102C02196ECCFC701DF91CF912E
:100280001F910F91FF90EF90DF90CF900895089508
:1002900080E090E00895FC01538D448D252F30E0DF
:1002A000842F90E0821B930B541710F0CF96089583
:1002B00001970895FC01918D828D981761F0828DD0
:1002C000DF01A80FB11D5D968C91928D9F5F9F738A
:1002D000928F90E008958FEF9FEF0895FC01918D2C
:1002E000828D981731F0828DE80FF11D858D90E099
:1002F00008958FEF9FEF0895FC01918D228D892F36
:1003000090E0805C9F4F821B91098F73992708951D
:1003100087E294E00E947C0121E0892B09F420E02F
:10032000822F0895FC01848DDF01A80FB11DA35A0F
:10033000BF4F2C91848D90E001968F739927848F05
:10034000A689B7892C93A089B1898C9180648C93FC
:10035000938D848D981306C00288F389E02D8081E7
:100360008F7D80830895EF92FF920F931F93CF9319
:10037000DF93EC0181E0888F9B8D8C8D981305C0F5
:10038000E889F989808185FD24C0F62E0B8D10E067
:100390000F5F1F4F0F731127E02E8C8DE8120CC0DA
:1003A0000FB607FCFACFE889F989808185FFF5CF80
:1003B000CE010E949201F1CF8B8DFE01E80FF11D5D
:1003C000E35AFF4FF0820B8FEA89FB8980818062BC
:1003D00007C0EE89FF896083E889F989808180649C
:1003E000808381E090E0DF91CF911F910F91FF908A
:1003F000EF900895CF93DF93EC01888D8823C9F0A7
:10040000EA89FB89808185FD05C0A889B9898C911D
:1004100086FD0FC00FB607FCF5CF808185FFF2CFB8
:10042000A889B9898C9185FFEDCFCE010E949201F8
:10043000E7CFDF91CF91089580E090E0892B29F0FC
:100440000E94880181110C9400000895833081F08E
:1004500028F4813099F08230A1F008958730A9F016
:100460008830B9F08430D1F4809180008F7D03C052
:10047000809180008F7780938000089584B58F7776
:1004800002C084B58F7D84BD08958091B0008F77C0
:1004900003C08091B0008F7D8093B00008950F93CA
:1004A000FA01002319F0E45FFC4F02C0E451FD4F54
:1004B0003081332391F06817790708F1621B7109C5
:1004C00086179707F8F4FA01002319F0E45FFC4F50
:1004D00002C0E451FD4F108212C08617970778F0D2
:1004E000620F711D6817790768F4FA01002319F08B
:1004F000E45FFC4F02C0E451FD4F81E0808380E067
:1005000090E002C081E090E00F9108950E94D11424
:100510001F920F920FB60F9211242F933F934F9378
:100520005F936F937F938F939F93AF93BF93EF935B
:10053000FF9387E294E00E949201FF91EF91BF91B7
:10054000AF919F918F917F916F915F914F913F916B
:100550002F910F900FBE0F901F9018951F920F9222
:100560000FB60F9211242F938F939F93EF93FF93C6
:10057000E0913704F09138048081E0913D04F091DE
:100580003E0482FD12C09081809140048F5F8F7382
:1005900020914104821751F0E0914004F0E0E95DC0
:1005A000FB4F958F8093400401C08081FF91EF91B4
:1005B0009F918F912F910F900FBE0F901F901895C4
:1005C000CF93DF93282F30E0F901E253FE4F84915F
:1005D000F901E654FE4FD491F901EA55FE4FC4915A
:1005E000CC2391F081110E942602EC2FF0E0EE0F57
:1005F000FF1FE456FE4FA591B491EC91ED2381E0ED
:1006000090E021F480E002C080E090E0DF91CF91A3
:1006100008951F93CF93DF93282F30E0F901E25321
:10062000FE4F8491F901E654FE4FD491F901EA5549
:10063000FE4FC491CC23C9F0162F81110E942602CF
:10064000EC2FF0E0EE0FFF1FEE56FE4FA591B49198
:100650008FB7F894111105C09C91ED2FE095E92317
:1006600002C0EC91ED2BEC938FBFDF91CF911F91E6
:100670000895CF93DF9390E0FC01E654FE4F249160
:10068000FC01EA55FE4F8491882361F190E0880FC8
:10069000991FFC01E857FE4FC591D491FC01EE561D
:1006A000FE4FA591B491611109C09FB7F89488815C
:1006B000209582238883EC912E230BC0623061F455
:1006C0009FB7F8943881822F809583238883EC919B
:1006D0002E2B2C939FBF06C08FB7F894E8812E2B4A
:1006E00028838FBFDF91CF9108958E3008F08E5010
:1006F0008770806480937C0080917A00806480930E
:100700007A0080917A0086FDFCCF8091780020915C
:10071000790090E0922B08952FB7F89460913303FD
:100720007091340380913503909136032FBF089563
:100730001F920F920FB60F9211242F933F938F9316
:100740009F93AF93BF938091330390913403A09113
:100750003503B09136033091320323E0230F2D3758
:1007600020F40196A11DB11D05C026E8230F0296B5
:10077000A11DB11D20933203809333039093340362
:10078000A0933503B093360380912E0390912F03ED
:10079000A0913003B09131030196A11DB11D80934A
:1007A0002E0390932F03A0933003B0933103BF9196
:1007B000AF919F918F913F912F910F900FBE0F900E
:1007C0001F9018951F920F920FB60F9211242F931E
:1007D0003F934F935F936F937F938F939F93AF93C9
:1007E000BF93EF93FF93E0912C03F0912D0330978B
:1007F00009F00995FF91EF91BF91AF919F918F9172
:100800007F916F915F914F913F912F910F900FBE0C
:100810000F901F90189590916C01891710F08FEF31
:10082000890F4091540150915501849F9001859FFB
:10083000300D1124205F3F4F309316042093150490
:1008400080936D0108956D3F71053CF46A3F710519
:1008500054F4683F710589F406C09B012E5F31098D
:100860002230310550F4DC018D919C91DC01ED9139
:10087000FC910190F081E02D0994089587FF0DC04F
:100880009CE0980F923048F0982F9B7F993F29F079
:10089000803F08F4807F90E0089580E090E0089524
:1008A0009C018F7C8038910561F0203D310549F035
:1008B00081E0203E310539F0203C310521F080E017
:1008C000089581E0089508952F923F924F925F928C
:1008D0006F927F928F929F92AF92BF92CF92DF9250
:1008E000EF92FF920F931F93CF93DF9300D000D02E
:1008F0001F92CDB7DEB75C016B015D834C83FB01BA
:10090000F081FB831F2F1770FB01858181708A8323
:10091000F281F983FB014380348080918101811150
:10092000B2C0FA81FF2309F4A6C04230510548F055
:100930007A014E3F534040F0ADEFEA2EA3E0FA2E8D
:1009400003C0F2E0EF2EF12C4501880C991CC40184
:1009500084559D4F3C01FC016081718101E027E0DD
:10096000A501C7010E944F02892B09F06FC1F30155
:10097000F182E082970140E050E0133009F04CC072
:10098000E42DF0E0EE0FFF1FE857FF4F85919491A3
:10099000E32DF0E0EE0FFF1FE857FF4F65917491D4
:1009A0003B01681A790A1C01990F44085508225026
:1009B000310941095109CB01770FAA0BBB0BBC01CF
:1009C000CD0162197309840995090E9493142BEFD4
:1009D00033E040E050E00E943814DA01C901820D92
:1009E000931DA41DB51D7C01FFEF6F16F3E07F067C
:1009F000E4F5A30177FE03C0519541955109F40137
:100A0000E459FD4F6081718100E0252FA5010E940E
:100A10004F02892B51F11AC1512C612C712C22509B
:100A2000310941095109832D90E0A0E0B0E0BC01FB
:100A3000CD0164197509860997090E9493142BEF5B
:100A400033E040E050E00E943814DA01C901840D1F
:100A5000951DA61DB71D7C01F401E459FD4F808151
:100A60009181E816F90609F4F1C0F401E459FD4F4B
:100A7000F182E08208C08C819D81892B11F0E42CE9
:100A800001C0E32CF12C80918101882309F45AC024
:100A90009A81992309F449C0EC81FD81E230F10586
:100AA00058F04F01FEEF8F16F3E09F0640F03DEF48
:100AB000832E33E0932E03C022E0822E912C750109
:100AC000EE0CFF1CC70184559D4F6C01FC01608139
:100AD000718101E027E0A501C4010E944F02892B2A
:100AE00009F0B4C0F60191828082C401A0E0B0E0B8
:100AF0009C01AD012250310941095109AFE7B0E035
:100B00000E9457142BEF33E040E050E00E9438146D
:100B1000B901F701E459FD4F808191812817390708
:100B200009F494C03183208309C08C819D81892B75
:100B300019F46FE770E002C060E070E021E0462F3A
:100B40006A2D43C08B818877869586958695BB24D0
:100B5000B394B80E1330C1F048F4113079F012306C
:100B600009F069C02B2D4E2D69812FC0153009F475
:100B70003FC070F1163009F448C05DC02B2D4E2DDA
:100B8000698180E990E055C02B2DF601418165E631
:100B900080EB90E00E94030B2B2DF601428164E66E
:100BA00080EB90E00E94030BA701440F452F441FE8
:100BB000550B51954F772B2D66E080EB90E00E940E
:100BC000030B4E2D4F772B2D66E280EB90E031C06A
:100BD00080918001EB2DF0E020E1829FE00DF11D7E
:100BE0001124E55DFD4F6081662329F161501CC031
:100BF0008A81811106C0EF28F1F02B2D40E0698138
:100C000016C02B2D40E06E2D12C080918001EB2D7F
:100C1000F0E090E1899FE00DF11D1124E55DFD4FAD
:100C200060816F3740F46F5F60832B2D40E080EC74
:100C300090E00E94030B80918401811107C081E044
:100C40008093840180932B02809383010F900F90F7
:100C50000F900F900F90DF91CF911F910F91FF9008
:100C6000EF90DF90CF90BF90AF909F908F907F904C
:100C70006F905F904F903F902F9008959F92AF920A
:100C8000BF92CF92DF92EF92FF920F931F93CF9379
:100C9000DF93CDB7DEB729970FB6F894DEBF0FBE4E
:100CA000CDBFA12CB12CC12CD12C9924939480912F
:100CB000A80190E00497C816D9060CF00FC1009166
:100CC00015041091160480915A0190915B01080F50
:100CD000191F0A0D1B1D45E050E0BE016F5F7F4FDD
:100CE000C8010E94210A41E050E0BE016A5F7F4FC7
:100CF000C80105960E94210A21E030E1C316D10403
:100D00000CF420E020932A0276015FE0E522FF2424
:100D1000E09229028981877009F4D9C08E81022F5F
:100D200010E080FF4BC0B701C8010E943F0A54E0A9
:100D3000000F111F5A95E1F798012E0D3F1DF90183
:100D4000EE0FFF1FE65CFC4F91838083409103010F
:100D500041112AC0220F331FF901E658FC4F2081B0
:100D600031818217930701F1AC01BE016F5F7F4FA4
:100D7000C6010E94640480912A022091290230E178
:100D8000839FC0011124820F911DDC01AA0FBB1F9C
:100D9000A658BC4F880F991FFC01E65CFC4F808170
:100DA00091818D939C9393C00E0D1F1DF801EE0F42
:100DB000FF1FE658FC4F9183808389C0C701865C82
:100DC0009C4FFC01211103C0EE55FF4F02C0EE54B1
:100DD000FF4F808190E03BB1337C3BB93BB1880F42
:100DE000991F880F991F832B8BB960E0213051F038
:100DF0008EE00E94390361E08EE00E940903809139
:100E0000C20309C08FE00E94390361E08FE00E94B5
:100E100009038091C4030E94E002F80124E0EE0F70
:100E2000FF1F2A95E1F7EE0DFF1DEE0FFF1FE65C99
:100E3000FC4F918380834E8190912A0280912902F8
:100E400050E1959FF0011124E80FF11DDF01AA0F79
:100E5000BB1FA65CBC4F2D913C91EE0FFF1FE658C7
:100E6000FC4F608171812617370789F13183208318
:100E70005091030151112BC050E1959F800D112419
:100E8000232B81F4E091800190E2E99FF00111248D
:100E9000E80FF11DE755FE4F4081842F892580839F
:100EA00050E00FC041FD13C0E091800120E2E29FBD
:100EB000F0011124E80FF11DE755FE4F108241E0CB
:100EC00050E0BE016F5F7F4FC6010E9464043FEF98
:100ED000C31AD30A56E0A50EB11CE9CE80910301D6
:100EE00081111092030129960FB6F894DEBF0FBE50
:100EF000CDBFDF91CF911F910F91FF90EF90DF90C9
:100F0000CF90BF90AF909F900895382F20916E01A1
:100F1000662379F041E050E060E070E004C0440FE7
:100F2000551F661F771F8A95D2F7422B40936E019B
:100F30000FC081E090E0A0E0B0E004C0880F991FEE
:100F4000AA1FBB1F3A95D2F78095822380936E012A
:100F500060916E018FEF0C94B20ABF92CF92DF9234
:100F6000EF92FF920F931F93CF93DF9300D000D0A7
:100F7000CDB7DEB7E090FC04F090FD04B090F9042A
:100F800080918101811126C0C12CD12C00E010E09C
:100F900020911504309116048091560190915701CB
:100FA000820F931F44E050E0BE016F5F7F4F8C0DB6
:100FB0009D1D0E94210A99818A812B813C81E81222
:100FC00043C0892F88778695869586958F5FB8125E
:100FD0003BC00AC0FF2011F061E001C060E083E087
:100FE0008E190E94850748C04091FA045091FB0475
:100FF00040395105A9F48091800190FF30C0F2166C
:1010000070F13F1560F194E0899F000D111D1124CE
:10101000F801E059FE4F81E0808310926F0110C00B
:101020004038510569F4F1100BC08091800194E0C3
:10103000899F000D111D1124F801E059FE4F108207
:1010400081E08093820118C00F5F1F4F84E0C80EBB
:10105000D11C90E1C916D10409F09ACF0DC0FF2030
:1010600031F394E0899F000D111D1124F801E0591E
:10107000FE4F82E08083E4CF0F900F900F900F908F
:10108000DF91CF911F910F91FF90EF90DF90CF9064
:10109000BF9008950F931F93CF93DF938091020128
:1010A000882361F0109202010E948C036093A401D6
:1010B0007093A5018093A6019093A70180912B02C4
:1010C000811103C0C4E6D0E002C0CFE0D0E00E94AE
:1010D0008C030091A4011091A5012091A6013091EB
:1010E000A701AB01BC01401B510B620B730BCE017E
:1010F000A0E0B0E084179507A607B70730F50E9477
:101100008C036093A4017093A5018093A601909332
:10111000A701C091A30181E0C8276C2F8DE00E9438
:101120000903C093A301C11105C0809183018150BF
:101130008093830180918301811107C01092840103
:1011400010922B0281E080930201DF91CF911F91D9
:101150000F91089540E150E0BC0180E090E00C94D4
:10116000210ADC01ED91FC910190F081E02D0994C0
:10117000AF92BF92CF92DF92EF92FF921F93CF93E5
:10118000DF9300D0CDB7DEB77C016B0191E0122F69
:10119000192759F060EF70E0D7018D919C91498338
:1011A0005A830E94B1085A8149815A01C40ED51E42
:1011B000AC14BD0471F0F70180819181D5016D916E
:1011C0005D01DC01ED91FC910190F081E02D09952C
:1011D000EFCF112391F067EF70E0F70180819181EB
:1011E0000F900F90DF91CF911F91FF90EF90DF90C4
:1011F000CF90BF90AF900C94B1080F900F90DF91FB
:10120000CF911F91FF90EF90DF90CF90BF90AF9064
:1012100008958F929F92AF92BF92CF92DF92EF92FA
:10122000FF920F931F93CF93DF93CDB7DEB76097F5
:101230000FB6F894DEBF0FBECDBF182F61E08DE072
:101240000E94390360E08DE00E940903CE010196FF
:101250000E94AA0890E1FE013196A7E1B4E0019056
:101260000D929A95E1F71092800180E00E940B04A4
:101270001093810181E0809301018093820180932A
:10128000030180911704893509F0D1C080911804B9
:10129000843509F0CCC080911904883509F0C7C0A5
:1012A00089E390E0909359018093580160E08AE0CF
:1012B0000E94390360E08FEF0E94B20A8AE00E9428
:1012C000E0028093A20180912304982F9170909363
:1012D000A101909124049093A001909125049093F2
:1012E000A8019091260490939F0186958170809328
:1012F0009E01882321F083E08093F80402C01092BD
:10130000F8048091810120E0882319F04EE051E03B
:1013100002C049E051E065E070E088EE94E00E9490
:10132000B80810922A02F0902A0281E08F1590F1FD
:1013300010922902AF2CB12C650144E0CC0CDD1CCD
:101340004A95E1F7E09029028FE08E15F8F08E2C97
:10135000912CB401C5010E943F0A8601080D191D98
:10136000F801EE0FFF1FE65CFC4F91838083B40110
:10137000C5010E943F0A000F111FF801E658FC4FFB
:1013800091838083E394E0922902DCCFF394F0927E
:101390002A02C9CF4CE252E069EA71E080E090E0B5
:1013A00020E030E0FB01E20FF31F10822F5F3F4F80
:1013B00020323105B9F7DC01A45ABE4F1C92FC0162
:1013C000E059FE4F108211961C92119711821296CD
:1013D0001C921297128213961C92138220E030E026
:1013E000FA01E20FF31F10822F5F3F4F20313105CA
:1013F000B9F7405F5F4F0496605E7F4F8031910583
:1014000079F681E08093820160960FB6F894DEBF92
:101410000FBECDBFDF91CF911F910F91FF90EF9045
:10142000DF90CF90BF90AF909F908F90089581E014
:101430008093850189E390E090935901809358014E
:1014400070CFEF92FF920F931F93CF93DF938B0197
:10145000040F151FEB017C01E61AF70AC017D1072C
:1014600039F0C7018C0F9D1F0E9422148993F6CF7B
:10147000DF91CF911F910F91FF90EF9008950F93FF
:101480001F93CF93DF936031710508F041C0EB01EA
:101490008C01009751F4C452DC4FC881D0E060E069
:1014A0008091C2030E9439030BC0019789F560E067
:1014B0008091C4030E943903C451DC4FC881D0E03D
:1014C0008BB1837C8BB98BB1CC0FDD1FCC0FDD1FB3
:1014D000C82BCBB90115110551F00130110599F454
:1014E0008091C4030E9475038091C40306C080915B
:1014F000C2030E9475038091C2030E9475039093FA
:10150000400580933F0580913F059091400502C0C2
:101510008FEF9FEFDF91CF911F910F910895CF93A0
:10152000DF9360E08091C8030E940903CCEDD3E013
:1015300060E08091CA030E9409036A918091C6030A
:101540000E94090361E08091CA030E94090383E0BD
:10155000CC3CD80769F761E08091C803DF91CF9157
:101560000C940903CF93DF9320E030E090E0A7E0F4
:10157000B0E0F901E450FC4FE081F0E0E453FC4FAF
:10158000AD01421B530BEC0102C0D595C7954A959E
:10159000E2F7AE01417040832F5F3F4F28303105A5
:1015A00041F788E090E070E04FE050E0FC01E4504B
:1015B000FC4FE081F0E0E453FC4F9A01281B390B0B
:1015C000DB0102C0B595A7952A95E2F79D01217030
:1015D000208301968031910549F7DF91CF910C94DA
:1015E0008F0A009769F0FC0101900020E9F731971C
:1015F000AF01481B590BBC0187E294E00C941C011D
:1016000080E090E00895EF92FF921F93CF93DF93D5
:101610001F92CDB7DEB77C01162F2150203108F084
:101620004EC080E8E816F1040CF449C0A1EEEA16B9
:10163000F104ACF58091E8049091E904DC01ED91AE
:10164000FC916E2D622B0190F081E02D498309956C
:101650008091E8049091E904DC01ED91FC91612F07
:101660006F770190F081E02D0995E894E4F84981C5
:10167000B0ECEB16F10419F18091E8049091E904C3
:10168000DC01ED91FC91642F6F770190F081E02DEA
:101690000F90DF91CF911F91FF90EF900994C701B8
:1016A000885F9109089758F4B70188EE94E00F908D
:1016B000DF91CF911F91FF90EF900C9423040F9036
:1016C000DF91CF911F91FF90EF900895CF93DF931B
:1016D000CDB7DEB7E2970FB6F894DEBF0FBECDBF31
:1016E000789484B5826084BD84B5816084BD85B5FD
:1016F000826085BD85B5816085BD80916E00816009
:1017000080936E00109281008091810082608093AE
:1017100081008091810081608093810080918000B0
:101720008160809380008091B10084608093B100DB
:101730008091B00081608093B00080917A008460D5
:1017400080937A0080917A00826080937A00809101
:101750007A00816080937A0080917A00806880931B
:101760007A001092C100E091E804F091E904A089A8
:10177000B18982E08C93A485B5851C92A685B78536
:101780008FE38C93108EA489B58986E08C93A2890F
:10179000B3898C9180618C93A289B3898C91886084
:1017A0008C93A289B3898C9180688C930288F38989
:1017B000E02D80818F7D80831092EA041092EC04EA
:1017C0001092EB041092F3041092F2041092F104C0
:1017D0001092F0048FEF9FEF9093F5048093F40440
:1017E0009093F7048093F60410923E051092FB0448
:1017F0001092FA041092F9041092FC041092FD0465
:101800008091F8048170826081608093F80461E0C7
:101810008091C8030E94390361E08091C6030E9451
:10182000390361E08091CA030E94390361E080912D
:10183000BA030E94390361E08091BC030E9439031E
:1018400061E08091BE030E94390361E08091C00392
:101850000E943903EAE3F3E01192119217AE16AE3B
:1018600023E0EA35F207C1F7EAE5F3E011921192BD
:1018700017AE16AE33E0EA37F307C1F7ECECF3E04E
:10188000119283E0EC3DF807D9F780917A00887FC8
:1018900080937A0080917A00846080937A00ECEDE6
:1018A000F3E0129293E0EC3CF907D9F70E948F0A1B
:1018B000CE0182960E94AA088AA1893551F48BA193
:1018C000843539F48CA1883521F48DA1813009F457
:1018D000B0C3109216041092150410925501109284
:1018E0005401109257011092560110925B01109210
:1018F0005A0110926D0110926C010E948C0360934A
:10190000950170939601809397019093980180E0E0
:101910000E940909412C512C320143941091EA0490
:10192000113108F0C5C18091E8049091E904DC010F
:10193000ED91FC910084F185E02D0995892B09F446
:10194000B7C18091E8049091E904DC01ED91FC912C
:101950000284F385E02D09957C018B7F893F09F492
:10196000A7C12091F2043091F3042115310509F04B
:10197000B4C0E092ED040091EB04802F0E943E047D
:101980000E945004882361F0E7FC0AC00093ED0434
:10199000E092EE0481E090E09093F3048093F204EF
:1019A0000091ED04802F0E943E04813F910509F4CF
:1019B00061C084F5803B910509F463C06CF4803903
:1019C000910509F45EC0803A910509F45AC0803847
:1019D000910509F0E0C055C0803D910509F44AC069
:1019E0002CF4803C910509F445C0D5C0803E91059A
:1019F00009F447C0803F910509F0CDC020E430E0F4
:101A00003093F1042093F0041092EB0420EF209324
:101A1000FE043DC0883F9105B9F044F4833F910531
:101A200049F17CF1863F910579F0B5C08A3F910577
:101A30000CF4B1C08D3F91053CF09C012E5F310943
:101A40002230310508F0A7C09093FB048093FA047C
:101A50001092F9041092FC041092FD0481E080932E
:101A60003E051092F3041092F2041092F1041092C9
:101A7000F004F6C0E2E0F0E0F093F104E093F0044B
:101A800006C023E030E03093F1042093F00420916D
:101A9000F2043091F3044091F0045091F10441506C
:101AA00051092417350708F4D4C09093FB048093A0
:101AB000FA04802F8F708F5F8093F9048091EE0479
:101AC0008093FC041092FD041092F3041092F2042F
:101AD0001092F1041092F00421C0E7FE46C0C70145
:101AE00099278D3F910554F48A3F91056CF4873F07
:101AF0009105C1F0883F9105C1F506C0AC014E5F6C
:101B000051094230510588F59093FB048093FA0403
:101B10001092FC041092FD041092F90481E080936D
:101B20003E059EC08091FE04803FA9F5C901019643
:101B3000F901EC53FB4F47EF42AF20EF30E0309319
:101B4000FB042093FA048093FC049093FD0410920C
:101B5000F90481E080933E051092F3041092F204A0
:101B60001092F1041092F00471C08091ED04F9011B
:101B7000EC53FB4F803FD1F4E2AEE090F004F090E4
:101B8000F104C70101972817390708F462C00091D2
:101B9000ED04003F69F41092F3041092F2041092E5
:101BA000F1041092F0041092EB0482C0E1A6E5CF9C
:101BB000802F0E943E046C019093FB048093FA04F2
:101BC0000E945004882331F0802F8F708F5F8093A4
:101BD000F90402C01092F9048091EE048093FC0491
:101BE00033E0E316F10419F48091EF0401C080E0C2
:101BF0008093FD041092F3041092F2041092F10409
:101C00001092F00481E080933E0580EBC816D10469
:101C1000D1F06CF4A0E9CA16D104A9F0B0EACB1651
:101C2000D10489F0E0E8CE16D10481F40CC0F0EDC7
:101C3000CF16D10441F020EEC216D10421F030ECD1
:101C4000C316D10419F40093EB040AC01092EB04FC
:101C500007C02F5F3F4F3093F3042093F20428C056
:101C60008091FA049091FB048039910529F48091C8
:101C7000FD04882309F4E0C38091FA049091FB04E9
:101C80009C01205831092136310508F0DCC3209130
:101C9000F904211709F4D7C3112309F4D4C300E0D0
:101CA0004091F804342F317040FD56C201111BC31E
:101CB0008091850181119BC180918401882329F045
:101CC0008091830181110E944A08809199018111BC
:101CD000ADC18091010181111EC0909182019111CD
:101CE0001AC00E948C0300919501109196012091D9
:101CF000970130919801DC01CB01801B910BA20B65
:101D0000B30B8D329140A105B10508F47BC0E12CE5
:101D1000F12C13E048C010928201811104C0E12C23
:101D2000F12C13E031C0809181018111F8CF109224
:101D30000101E12CF12C17E080918001282F30E087
:101D40002E153F0529F461E0F12FF81B8F2F03C0FA
:101D500060E0812F8E190E9485072FEFE21AF20AA8
:101D600034E0E316F10441F7DACF811105C060E0F9
:101D7000812F8E190E948507AFEFEA1AFA0AB4E0A4
:101D8000EB16F10409F4ADCF80918001F70194E0E6
:101D9000899FE00DF11D1124E059FE4F80818230B2
:101DA00021F761E0E5CF80918001F70124E0829F77
:101DB000E00DF11D1124E059FE4F8081813059F46E
:101DC00080916F01882311F060E001C061E0812FF4
:101DD0008E190E9485073FEFE31AF30A84E0E816A4
:101DE000F10409F70E948C036093950170939601AA
:101DF000809397019093980190916F0181E08927DA
:101E000080936F010E948C030091910110919201C7
:101E10002091930130919401DC01CB01801B910B47
:101E2000A20BB30BC397A105B10508F4F5C00E943E
:101E30008C0360939101709392018093930190932E
:101E400094018AE00E94E002892B09F448C081E0F5
:101E50008093000100E010E0E0906E01F09000013E
:101E60006E2D8F2D0E94B20A8AE00E94E00220911E
:101E70009001019771F4B301A201002E04C0440F38
:101E8000551F661F771F0A94D2F7422B409390018B
:101E90000EC0D301C201002E04C0880F991FAA1FD3
:101EA000BB1F0A94D2F78095822380939001FF0C88
:101EB000F09200010F5F1F4F0830110569F66E2D7B
:101EC0008FEF0E94B20A28E8822E21E0922E32ED96
:101ED000232E312C00E010E0AA24A3941EC01092FF
:101EE0009001F1CFC8010497049780F597E0F92E8F
:101EF000F01A80916D0180938001A1111FC0D4015F
:101F0000BC920F5F1F4FBFEF8B1A9B0AE6E02E1AA1
:101F100031080830110509F47FC08091900190E0EC
:101F2000002E02C0959587950A94E2F7A82FA1701C
:101F3000BA2EF4018081A813D5CFE3CF8F15F9F223
:101F400090916C019F1508F075C3D9CF83E2C82E1C
:101F5000D12CC01AD10AE0901504F090160480919B
:101F60005A0190915B01E80EF91EE20CF31C45E06A
:101F700050E0BE016F5F7F4FC7010E94210A41E020
:101F800050E0BE016A5F7F4FC70105960E94210A9B
:101F90008981877009F4B3CF83E0801B9E81BB20C9
:101FA00081F0E091800124E0E29FF0011124E80F2C
:101FB000F11DE45AFE4F4081842F8A25808350E032
:101FC0000FC091FD9CCFE091800134E0E39FF001D0
:101FD0001124E80FF11DE45AFE4F108241E050E059
:101FE000BE016F5F7F4FC6010E94640488CF0E94CC
:101FF0008C0328EE33E040E050E00E946214672B2F
:10200000682B692B29F481E08093840180938301FC
:1020100080918401811103C00E943E0607C0809117
:1020200083018823C9F30E944A08F6CF0E941C024C
:1020300075CC89E090E090935B0180935A0188A968
:10204000A6E08A9FC00111240996909357018093BE
:10205000560129A9B4E02B9F800D911D1124909366
:1020600055018093540185E491E00E94F10A8EE4C9
:1020700091E00E94F10AC0905401D09055010D2CBE
:10208000000CEE08FF08F7FE2BC0E0912704F0914A
:1020900028040190F081E02D6DE287E294E009953B
:1020A00022273327A9012C193D094E095F0919A2DE
:1020B0008E010F5D1F4F9AE0C92ED12CE12CF12C1F
:1020C000CA01B901A70196010E946214605DF8017E
:1020D00062938F01211531054105510589F71AC019
:1020E000A701960119A28E010F5D1F4F8AE0C82E2D
:1020F000D12CE12CF12CCA01B901A70196010E9453
:102100006214605DD8016E938D0121153105410582
:10211000510589F7C8010E94F10A81E591E00E940A
:10212000F10A609154017091550180EF93E00E9493
:10213000A3142FA530E0CB01261737070CF4C901F3
:102140008F3F910519F014F08FEF90E080936C01B0
:1021500080E00E940B04D1CB842F8E7F09F4A6CDA2
:102160008091FA049091FB04BC01605871096136BA
:10217000710508F52091F904211719F031E01111CA
:1021800030E0469550E04230510541F04330510572
:1021900049F04130510509F089CD06C0332309F4D7
:1021A00085CD02C0311182CD4091FD046091FC04C7
:1021B0000E94030B7BCDFC01E05FF109E031F105EA
:1021C00008F074CDEC5CFF4F0C94B714BC0188EEA2
:1021D00094E00E9423046ACD6091FD0470E0762FA4
:1021E00066278091FC04682B6134710510F060E46F
:1021F00070E021E04EEF54E088EE94E00E94B808D1
:1022000055CD1091FC048091E8049091E904DC0123
:10221000ED91FC910190F081E02D63EF09951F771E
:10222000612F70E08091E8049091E9040E94B10868
:102230003DCDE090FD04B0E8EB9E7001112480914B
:10224000FC04E82A8091E8049091E904DC01ED9116
:10225000FC910190F081E02D62EF09958091E804F6
:102260009091E904DC01ED91FC91B7016F7777273C
:102270000190F081E02D09958091E8049091E904A6
:10228000DC01ED91FC91B701660F672F661F770B9C
:1022900071956F7777270190F081E02D22C08091B2
:1022A000FC048770B0E18B9FC00111241091FD04E4
:1022B0001F70182B8091E8049091E904DC01ED91E6
:1022C000FC910190F081E02D61EF09958091E80487
:1022D0009091E904DC01ED91FC910190F081E02DF9
:1022E000612F0995E3CC8091FA049091FB04803929
:1022F000910539F0803F910539F08038910509F05A
:10230000D7CC0E94AD07D4CC0091FC049091FD0481
:102310003091000520910105809102054091FF0454
:10232000493509F0C5CC343509F0C2CC283509F05F
:10233000BFCC813049F4909181019111B9CC809347
:102340008401809383016FC0853059F480918101AD
:10235000882309F4ADCC81E08093840180938301CC
:1023600061C0833009F0A4CC80919901811105C02E
:1023700081E0809399011092F80410E0192B013448
:10238000110510F000E410E0209103058091580140
:102390009091590144E0E42E45E0F42E6801289F15
:1023A0004001299F900C1124B7E0CB16D10409F409
:1023B0003EC15701F7016081C4016AAB0E9422143B
:1023C0006AA9861719F0C4010E942A14C4010E9448
:1023D0002214FFEFEF1AFF0A2FEF821A920A31E060
:1023E000C31AD108D5019C918917F1F281E080933D
:1023F0008601809158019091590107960817190795
:10240000A8F41092990181E08093840185E0809383
:10241000830120E044E051E065E070E088EE94E064
:102420000E94B80880E00E94090942CC81E08093B4
:102430008401809383013CCC20E830E03093FB049E
:102440002093FA0419CC813F9105B1F5E091D404B1
:10245000F091D5040CC08B3F91050CF0C7C0833FB1
:10246000910509F0A4C0E091D804F091D904309707
:1024700009F18091FC0409951DC0813D91050CF482
:1024800054C0803E910509F060C0E091D004F09105
:10249000D104309779F06091FD046F7780E8689FF0
:1024A000B00111248091FC048F77682B70528091C9
:1024B000F904099501E0F4CB823F91050CF061C06D
:1024C000803B9105B1F4E091CA04F091CB0407C0C0
:1024D0008038910579F7E091C404F091C5043097F4
:1024E00049F34091FD046091FC048091F904099541
:1024F000E1CF813B910584F48039910529F4E09185
:10250000C604F091C704EBCF803A910509F7E0913A
:10251000C804F091C904E3CF803D910509F0ADCF27
:10252000E091CE04F091CF0407C0803C910511F6F4
:10253000E091CC04F091CD04309709F4BBCF6091C9
:10254000FC048091F9040995B5CF803F910509F00D
:10255000B1CFE091D204F091D304309709F4AACF1F
:102560006091FD0470E0762F66278091FC04682B53
:102570006134710510F060E470E08EEF94E009952D
:1025800099CF8A3F910509F066CFE091DE04F09182
:10259000DF0408C0883F910509F08CCFE091DC048E
:1025A000F091DD04309709F485CF099583CF833FFF
:1025B0009105A4F4E091D604F091D704309709F482
:1025C00079CF8091FD048F77A0E88A9FC001112404
:1025D0002091FC042F77822B09956CCF863F9105C3
:1025E000C9F6E091DA04F091DB04DCCF8C3F910571
:1025F00029F4E091E204F091E304D4CF8C3F9105FB
:102600002CF4E091E004F091E104CCCF8E3F9105F1
:1026100029F4E091E404F091E504C4CF8F3F9105E3
:1026200009F048CFE091E604F091E704BBCF1092A7
:102630008601DFCE809387018F2D0E940B04F092DC
:102640008001A09201015BCCCF93DF93A7E2B4E0BD
:1026500013961C921E92129748EE53E060E070E0D1
:1026600014964D935D936D937C93179787E391E058
:1026700011969C938E9385EC90E01D969C938E937F
:102680001C9784EC90E01F969C938E931E9780EC91
:1026900090E051969C938E93509781EC90E05396E6
:1026A0009C938E93529782EC90E055969C938E93D8
:1026B000549786EC90E057969C938E935697599634
:1026C0001C9259975A961C925A975B961C925B974C
:1026D0005C961C925C9784E690E09093380380931C
:1026E0003703E4ECF4E0B5A3A4A316A217A210A646
:1026F00015A614A617A616A68FEF9FEF91AB80AB79
:1027000093AB82AB83E08093F80415AA17AA16AAAC
:1027100010AE11AE10923E0580E4AEEFB4E0ED01D4
:1027200019928A95E9F7118210821382128215821A
:1027300014821782168211861086138612861586D9
:10274000148617861686118A108A138A128A158AA9
:10275000148A178A168A118E108E138E128E158E79
:10276000148E178E168E11A210A213A212A287E148
:1027700094E00E94AA08C0911504D091160445E087
:1027800050E06CE074E0CE010E94210A44E050E089
:1027900061E174E0CE0105960E94210A82E090E09A
:1027A0009093BB038093BA0383E090E09093BD03C2
:1027B0008093BC0384E090E09093BF038093BE03BA
:1027C00085E090E09093C1038093C0038EE090E099
:1027D0009093C3038093C2038FE090E09093C5036E
:1027E0008093C40386E090E09093C7038093C60370
:1027F00087E090E09093C9038093C80388E090E05D
:102800009093CB038093CA0380E1E3E1F1E0ACED68
:10281000B3E001900D928A95E1F780E1E3E1F1E008
:10282000ACEEB3E001900D928A95E1F780E1E3E22E
:10283000F1E0ACEFB3E001900D928A95E1F7DF9102
:10284000CF910895F999FECF92BD81BDF89A99274D
:1028500080B50895262FF999FECF1FBA92BD81BD8C
:1028600020BD0FB6F894FA9AF99A0FBE0196089512
:10287000052E97FB1EF400940E944F1457FD07D0BD
:102880000E94621407FC03D04EF40C944F14509530
:102890004095309521953F4F4F4F5F4F089590954C
:1028A0008095709561957F4F8F4F9F4F08950E943F
:1028B0008414A59F900DB49F900DA49F800D911D31
:1028C00011240895A1E21A2EAA1BBB1BFD010DC005
:1028D000AA1FBB1FEE1FFF1FA217B307E407F507D0
:1028E00020F0A21BB30BE40BF50B661F771F881FAC
:1028F000991F1A9469F760957095809590959B0142
:10290000AC01BD01CF010895A29FB001B39FC001EA
:10291000A39F700D811D1124911DB29F700D811D0B
:102920001124911D0895DB018F939F930E945714EA
:10293000BF91AF91A29F800D911DA39F900DB29F5B
:10294000900D1124089597FB072E16F4009407D0DC
:1029500077FD09D00E94BD1407FC05D03EF4909588
:1029600081959F4F0895709561957F4F0895EE0F63
:10297000FF1F0590F491E02D0994AA1BBB1B51E1A8
:1029800007C0AA1FBB1FA617B70710F0A61BB70BDF
:10299000881F991F5A95A9F780959095BC01CD0184
:1029A000089581E090E0F8940C94D614F894FFCF49
:1029B0000101010159545804005954580600595452
:1029C00058020000070106020503040F0B0E0A0D52
:1029D000090C0807000603050204010F080E0B0D81
:1029E0000A0C0900000000B3011C014B01FA017C34
:1029F000015A016E0142616E6B206C656E003A20D7
:042A0000000D0A00BB
:107E0000112484B714BE81FFF0D085E080938100F7
:107E100082E08093C00088E18093C10086E0809377
:107E2000C20080E18093C4008EE0C9D0259A86E02C
:107E300020E33CEF91E0309385002093840096BBD3
:107E4000B09BFECF1D9AA8958150A9F7CC24DD24C4
:107E500088248394B5E0AB2EA1E19A2EF3E0BF2EE7
:107E6000A2D0813461F49FD0082FAFD0023811F036
:107E7000013811F484E001C083E08DD089C08234E0
:107E800011F484E103C0853419F485E0A6D080C0E4
:107E9000853579F488D0E82EFF2485D0082F10E0AE
:107EA000102F00270E291F29000F111F8ED06801E7
:107EB0006FC0863521F484E090D080E0DECF843638
:107EC00009F040C070D06FD0082F6DD080E0C81688
:107ED00080E7D80618F4F601B7BEE895C0E0D1E017
:107EE00062D089930C17E1F7F0E0CF16F0E7DF06D8
:107EF00018F0F601B7BEE89568D007B600FCFDCFD4
:107F0000A601A0E0B1E02C9130E011968C91119780
:107F100090E0982F8827822B932B1296FA010C0160
:107F200087BEE89511244E5F5F4FF1E0A038BF0790
:107F300051F7F601A7BEE89507B600FCFDCF97BE46
:107F4000E89526C08437B1F42ED02DD0F82E2BD052
:107F50003CD0F601EF2C8F010F5F1F4F84911BD097
:107F6000EA94F801C1F70894C11CD11CFA94CF0C13
:107F7000D11C0EC0853739F428D08EE10CD085E9AC
:107F80000AD08FE07ACF813511F488E018D01DD067
:107F900080E101D065CF982F8091C00085FFFCCF94
:107FA0009093C60008958091C00087FFFCCF809118
:107FB000C00084FD01C0A8958091C6000895E0E648
:107FC000F0E098E1908380830895EDDF803219F02E
:107FD00088E0F5DFFFCF84E1DECF1F93182FE3DFCA
:107FE0001150E9F7F2DF1F91089580E0E8DFEE27F6
:047FF000FF270994CA
:027FFE00040479
:0400000300007E007B
:00000001FF
