:100000000C94F2000C941A010C941A010C941A012D
:100010000C941A010C941A010C941A010C94CC0340
:100020000C941A010C941A010C941A010C941A01E4
:100030000C941A010C941A010C941A010C941A01D4
:100040000C9482030C941A010C9498020C94720282
:100050000C941A010C941A010C941A010C941A01B4
:100060000C941A010C941A01B8101B11E510CD1054
:10007000220E220EB210220EB210220EB210B210B8
:10008000B210220EB210B2100000010002000300F4
:100090000400050006000700080009000A000B0024
:1000A0000C000D000E000F001000110012001300D4
:1000B00014001500170018001A001B001D001F0077
:1000C00021002300260028002B002D0030003300E3
:1000D00037003A003E00420046004B004F005500FA
:1000E0005A00600066006C0073007F0080008B0087
:1000F00094009D00A800B200BE00CA00E100FE000E
:10010000FF001301250138014B01610177018F01C7
:10011000A901C401E101FF010002280268028F0267
:10012000B902E602150347037D03B603FF032F045C
:100130007F04BF040F055F05BF050F067F06DF06BE
:100140004F07FF074F08CF085F09FF099F0A4F0BB2
:100150000F0CCF0C9F0D7F0E6F0FFF0F6F118F12C3
:10016000BF13FF145F16BF174F19DF1A9F1C6F1EB6
:10017000FF1F6F22AF2401277F291F2CEF2EEF31A5
:100180001F358F381F3CFF3F000000002400270070
:100190002A0000000000250028002B0000000000BD
:1001A00023002600290004040404040404040202B9
:1001B00002020202030303030303010204081020E6
:1001C00040800102040810200102040810200000F1
:1001D0000008000201000003040700000000000006
:1001E0000000201311241FBECFEFD8E0DEBFCDBF2B
:1001F00011E0A0E0B1E0E8EAF9E202C005900D925A
:10020000A235B107D9F725E0A2E5B1E001C01D9202
:10021000AF33B207E1F710E0C2EFD0E004C021979E
:10022000FE010E94B314C13FD107C9F70E94320BEF
:100230000C94D2140C940000CF92DF92EF92FF92B4
:100240000F931F93CF93DF936C017A018B01C0E072
:10025000D0E0CE15DF0589F0D8016D918D01D60172
:10026000ED91FC910190F081E02DC6010995892B5B
:1002700011F47E0102C02196ECCFC701DF91CF912E
:100280001F910F91FF90EF90DF90CF900895FC01A8
:10029000918D828D981761F0828DDF01A80FB11DBD
:1002A0005D968C91928D9F5F9F73928F90E00895E1
:1002B0008FEF9FEF0895FC01918D828D981731F09B
:1002C000828DE80FF11D858D90E008958FEF9FEFEF
:1002D0000895FC01918D228D892F90E0805C9F4FC5
:1002E000821B91098F739927089585E294E00E94FB
:1002F000690121E0892B09F420E0822F0895FC0197
:10030000848DDF01A80FB11DA35ABF4F2C91848D9E
:1003100090E001968F739927848FA689B7892C93D3
:10032000A089B1898C9180648C93938D848D98136E
:1003300006C00288F389E02D80818F7D8083089537
:10034000EF92FF920F931F93CF93DF93EC0181E025
:10035000888F9B8D8C8D981305C0E889F9898081E1
:1003600085FD24C0F62E0B8D10E00F5F1F4F0F731D
:100370001127E02E8C8DE8120CC00FB607FCFACFC7
:10038000E889F989808185FFF5CFCE010E947F0140
:10039000F1CF8B8DFE01E80FF11DE35AFF4FF08284
:1003A0000B8FEA89FB898081806207C0EE89FF8913
:1003B0006083E889F98980818064808381E090E0AE
:1003C000DF91CF911F910F91FF90EF900895CF9300
:1003D000DF93EC01888D8823C9F0EA89FB8980814D
:1003E00085FD05C0A889B9898C9186FD0FC00FB61F
:1003F00007FCF5CF808185FFF2CFA889B9898C9160
:1004000085FFEDCFCE010E947F01E7CFDF91CF9135
:10041000089580E090E0892B29F00E9475018111F8
:100420000C9400000895833081F028F4813099F015
:100430008230A1F008958730A9F08830B9F0843077
:10044000D1F4809180008F7D03C0809180008F77F0
:1004500080938000089584B58F7702C084B58F7D26
:1004600084BD08958091B0008F7703C08091B00063
:100470008F7D8093B00008950F93FA01E65FFC4FE3
:100480003081311105C0DA01A651BD4F3C9101C048
:10049000302F332379F068177907D8F0621B710980
:1004A00086179707C8F4011103C0FA01E651FD4F02
:1004B00010820FC08617970760F0620F711D6817D2
:1004C000790750F4011103C0FA01E651FD4F81E0B4
:1004D000808380E090E002C081E090E00F91089579
:1004E0000E94CD141F920F920FB60F9211242F93DA
:1004F0003F934F935F936F937F938F939F93AF93AC
:10050000BF93EF93FF9385E294E00E947F01FF91F8
:10051000EF91BF91AF919F918F917F916F915F917B
:100520004F913F912F910F900FBE0F901F901895F4
:100530001F920F920FB60F9211242F938F939F93B8
:10054000EF93FF93E0913504F09136048081E091C0
:100550003B04F0913C0482FD12C0908180913E04E6
:100560008F5F8F7320913F04821751F0E0913E041A
:10057000F0E0EB5DFB4F958F80933E0401C08081DE
:10058000FF91EF919F918F912F910F900FBE0F9040
:100590001F901895CF93DF93282F30E0F901E25395
:1005A000FE4F8491F901E654FE4FD491F901EA55CA
:1005B000FE4FC491CC2391F081110E941302EC2FC5
:1005C000F0E0EE0FFF1FE456FE4FA591B491EC91C1
:1005D000ED2381E090E021F480E002C080E090E033
:1005E000DF91CF9108951F93CF93DF93282F30E0B1
:1005F000F901E253FE4F8491F901E654FE4FD49184
:10060000F901EA55FE4FC491CC23C9F0162F811190
:100610000E941302EC2FF0E0EE0FFF1FEE56FE4F8C
:10062000A591B4918FB7F894111105C09C91ED2F4D
:10063000E095E92302C0EC91ED2BEC938FBFDF91A5
:10064000CF911F910895CF93DF9390E0FC01E65482
:10065000FE4F2491FC01EA55FE4F8491882361F1FD
:1006600090E0880F991FFC01E857FE4FC591D49187
:10067000FC01EE56FE4FA591B491611109C09FB7E0
:10068000F8948881209582238883EC912E230BC0D7
:10069000623061F49FB7F8943881822F809583236C
:1006A0008883EC912E2B2C939FBF06C08FB7F894B4
:1006B000E8812E2B28838FBFDF91CF9108958E3054
:1006C00008F08E508770806480937C0080917A005F
:1006D000806480937A0080917A0086FDFCCF8091BF
:1006E00078002091790090E0922B08952FB7F8942C
:1006F0006091310370913203809133039091340300
:100700002FBF08951F920F920FB60F9211242F93AF
:100710003F938F939F93AF93BF93809131039091B9
:100720003203A0913303B09134033091300323E0BE
:10073000230F2D3720F40196A11DB11D05C026E819
:10074000230F0296A11DB11D209330038093310326
:1007500090933203A0933303B093340380912C031E
:1007600090912D03A0912E03B0912F030196A11D0E
:10077000B11D80932C0390932D03A0932E03B0936F
:100780002F03BF91AF919F918F913F912F910F9028
:100790000FBE0F901F9018951F920F920FB60F92D9
:1007A00011242F933F934F935F936F937F938F9376
:1007B0009F93AF93BF93EF93FF93E0912A03F09140
:1007C0002B03309709F00995FF91EF91BF91AF91FD
:1007D0009F918F917F916F915F914F913F912F9159
:1007E0000F900FBE0F901F90189590916A01891776
:1007F00010F08FEF890F4091520150915301849F67
:100800009001859F300D1124205F3F4F30931404D9
:100810002093130480936B0108956D3F71053CF4A0
:100820006A3F710554F4683F710589F406C09B0165
:100830002E5F31092230310550F4DC018D919C91FD
:10084000DC01ED91FC910190F081E02D0994089577
:1008500087FF0DC09CE0980F923048F0982F9B7F47
:10086000993F29F0803F08F4807F90E0089580E070
:1008700090E008959C018F7C8038910561F0203DC7
:10088000310549F081E0203E310539F0203C310549
:1008900021F080E0089581E0089508952F923F921D
:1008A0004F925F926F927F928F929F92AF92BF9280
:1008B000CF92DF92EF92FF920F931F93CF93DF932C
:1008C00000D000D000D0CDB7DEB76C015B015E83F5
:1008D0004D83FB01F081FB831F2F1770FB01858186
:1008E00081708A83F281F983FB0143803480809197
:1008F0007F018111B1C0FA81FF2309F4A5C0423004
:10090000510548F07A014E3F534040F0ADEFEA2EDA
:10091000A3E0FA2E03C0F2E0EF2EF12C4601880C82
:10092000991CC40186559D4F3C01FC016081718179
:1009300001E022E0A601C7010E943C02892B09F0D8
:1009400078C1F301F182E082970140E050E013307A
:1009500009F047C0E42DF0E0EE0FFF1FE857FF4F0E
:1009600085919491E32DF0E0EE0FFF1FE857FF4FC4
:10097000659174913B01681A790A1C01990F44082A
:1009800055082250310941095109CB01770FAA0BB3
:10099000BB0BBC01CD0162197309840995090E9442
:1009A0008F142BEF33E040E050E00E943414DA0162
:1009B000C901820D931DA41DB51D7C01FFEF6F16AB
:1009C000F3E07F06DCF5A30177FE03C05195419566
:1009D0005109F401E659FD4F6081718100E0252F36
:1009E00027C0512C612C712C225031094109510929
:1009F000832D90E0A0E0B0E0BC01CD016419750941
:100A0000860997090E948F142BEF33E040E050E0F5
:100A10000E943414DA01C901840D951DA61DB71D6D
:100A20007C01F401E659FD4F6081718100E020E016
:100A3000A6010E943C02892B09F0FBC0F401E65993
:100A4000FD4FF182E08208C08D819E81892B11F0DB
:100A5000E42C01C0E32CF12C80917F01882309F460
:100A600064C09A81992309F455C0ED81FE81E2307A
:100A7000F10558F04F01FEEF8F16F3E09F0640F0AE
:100A80003DEF832E33E0932E03C022E0822E912C83
:100A90007601EE0CFF1CC70186559D4F5C01FC01E1
:100AA0006081718101E022E0A601C4010E943C0244
:100AB000892B09F0BEC0F50191828082C401A0E0BB
:100AC000B0E09C01AD012250310941095109AFE765
:100AD000B0E00E9453142BEF33E040E050E00E945E
:100AE0003414B22E122FC70186599D4F7C01FC0190
:100AF0006081718100E020E0A6018B2D932F3C8363
:100B00000E943C023C81892B09F093C0F701B0821E
:100B1000318307C08D819E81892B11F41FE701C0AD
:100B200010E021E0412F6C2D43C08B8188778695A2
:100B300086958695DD24D394D80E1330C1F048F401
:100B4000113079F0123009F069C02D2D4E2D6981D8
:100B50002FC0153009F43FC070F1163009F448C0B9
:100B60005DC02D2D4E2D698180E990E055C02D2D61
:100B7000F501418165E680EB90E00E94CF0A2D2DC2
:100B8000F501428164E680EB90E00E94CF0AA70164
:100B9000440F452F441F550B51954F772D2D66E07F
:100BA00080EB90E00E94CF0A4E2D4F772D2D66E20C
:100BB00080EB90E031C080917E01ED2DF0E020E1EE
:100BC000829FE00DF11D1124E75DFD4F60816623DA
:100BD00029F161501CC08A81811106C0EF28F1F013
:100BE0002D2D40E0698116C02D2D40E06E2D12C0E4
:100BF00080917E01ED2DF0E090E1899FE00DF11DE7
:100C00001124E75DFD4F60816F3740F46F5F6083B3
:100C10002D2D40E080EC90E00E94CF0A809183016E
:100C2000811107C081E08093830180932902809322
:100C3000820126960FB6F894DEBF0FBECDBFDF91BE
:100C4000CF911F910F91FF90EF90DF90CF90BF90C9
:100C5000AF909F908F907F906F905F904F903F905C
:100C60002F9008959F92AF92BF92CF92DF92EF9212
:100C7000FF920F931F93CF93DF93CDB7DEB72997E2
:100C80000FB6F894DEBF0FBECDBFA12CB12CC12C86
:100C9000D12C992493948091A60190E00497C816D2
:100CA000D9060CF00FC10091130410911404809127
:100CB000580190915901080F191F0A0D1B1D45E09D
:100CC00050E0BE016F5F7F4FC8010E94030A41E000
:100CD00050E0BE016A5F7F4FC80105960E94030A7B
:100CE00021E030E1C316D1040CF420E02093280267
:100CF00076015FE0E522FF24E09227028981877078
:100D000009F4D9C08E81022F10E080FF4BC0B701DB
:100D1000C8010E94210A54E0000F111F5A95E1F703
:100D200098012E0D3F1DF901EE0FFF1FE85CFC4FEF
:100D3000918380834091030141112AC0220F331F08
:100D4000F901E858FC4F208131818217930701F1A6
:100D5000AC01BE016F5F7F4FC6010E944E048091BF
:100D600028022091270230E1839FC0011124820FC5
:100D7000911DDC01AA0FBB1FA858BC4F880F991FFB
:100D8000FC01E85CFC4F808191818D939C9393C022
:100D90000E0D1F1DF801EE0FFF1FE858FC4F918349
:100DA000808389C0C701885C9C4FFC01211103C06E
:100DB000EE55FF4F02C0EE54FF4F808190E03BB1F3
:100DC000337C3BB93BB1880F991F880F991F832B48
:100DD0008BB960E0213051F08EE00E94230361E086
:100DE0008EE00E94F3028091C00309C08FE00E9450
:100DF000230361E08FE00E94F3028091C2030E940E
:100E0000CA02F80124E0EE0FFF1F2A95E1F7EE0D6C
:100E1000FF1DEE0FFF1FE85CFC4F918380834E8126
:100E2000909128028091270250E1959FF0011124B2
:100E3000E80FF11DDF01AA0FBB1FA85CBC4F2D916D
:100E40003C91EE0FFF1FE858FC4F6081718126171F
:100E5000370789F1318320835091030151112BC051
:100E600050E1959F800D1124232B81F4E0917E01A8
:100E700090E2E99FF0011124E80FF11DE955FE4FC2
:100E80004081842F8925808350E00FC041FD13C02D
:100E9000E0917E0120E2E29FF0011124E80FF11DB4
:100EA000E955FE4F108241E050E0BE016F5F7F4F79
:100EB000C6010E944E043FEFC31AD30A56E0A50EA6
:100EC000B11CE9CE80910301811110920301299692
:100ED0000FB6F894DEBF0FBECDBFDF91CF911F914B
:100EE0000F91FF90EF90DF90CF90BF90AF909F90C9
:100EF0000895382F20916C01662379F041E050E08D
:100F000060E070E004C0440F551F661F771F8A958C
:100F1000D2F7422B40936C010FC081E090E0A0E03B
:100F2000B0E004C0880F991FAA1FBB1F3A95D2F7E3
:100F30008095822380936C0160916C018FEF0C94FB
:100F40007E0ABF92CF92DF92EF92FF920F931F9390
:100F5000CF93DF9300D000D0CDB7DEB7E090FA0496
:100F6000F090FB04B090F70480917F01811126C0BE
:100F7000C12CD12C00E010E0209113043091140416
:100F80008091540190915501820F931F44E050E0ED
:100F9000BE016F5F7F4F8C0D9D1D0E94030A9981DA
:100FA0008A812B813C81E81243C0892F88778695FE
:100FB000869586958F5FB8123BC00AC0FF2011F05E
:100FC00061E001C060E083E08E190E94790748C0AB
:100FD0004091F8045091F90440395105A9F48091E9
:100FE0007E0190FF30C0F21670F13F1560F194E081
:100FF000899F000D111D1124F801E259FE4F81E077
:10100000808310926D0110C04038510569F4F110D1
:101010000BC080917E0194E0899F000D111D112469
:10102000F801E259FE4F108281E08093800118C0E0
:101030000F5F1F4F84E0C80ED11C90E1C916D10488
:1010400009F09ACF0DC0FF2031F394E0899F000D85
:10105000111D1124F801E259FE4F82E08083E4CF94
:101060000F900F900F900F90DF91CF911F910F91E4
:10107000FF90EF90DF90CF90BF9008950F931F9354
:10108000CF93DF9380910201882361F010920201D7
:101090000E9476036093A2017093A3018093A40140
:1010A0009093A50180912902811103C0C4E6D0E08C
:1010B00002C0CFE0D0E00E9476030091A20110911F
:1010C000A3012091A4013091A501AB01BC01401BFB
:1010D000510B620B730BCE01A0E0B0E084179507B3
:1010E000A607B70730F50E9476036093A2017093BC
:1010F000A3018093A4019093A501C091A10181E077
:10110000C8276C2F8DE00E94F302C093A101C1118A
:1011100005C080918201815080938201809182017B
:10112000811107C0109283011092290281E08093FF
:101130000201DF91CF911F910F91089540E150E09E
:10114000BC0180E090E00C94030A8F929F92AF92D2
:10115000BF92CF92DF92EF92FF920F931F93CF93A4
:10116000DF93CDB7DEB760970FB6F894DEBF0FBE42
:10117000CDBF182F61E08DE00E94230360E08DE079
:101180000E94F302CE0101960E949E0890E1FE01AA
:101190003196A5E1B4E001900D929A95E1F7109295
:1011A0007E0180E00E94F50310937F0181E080932F
:1011B00003011092810180911504893509F0C1C0A5
:1011C00080911604843509F0BCC0809117048835DD
:1011D00009F0B7C089E390E09093570180935601DE
:1011E00060E08AE00E94230360E08FEF0E947E0AA5
:1011F0008AE00E94CA028093A00180912104982F66
:10120000917090939F019091220490939E019091F0
:1012100023049093A6019091240490939D018695B8
:10122000817080939C01882321F083E08093F604F1
:1012300002C01092F60410922802F090280281E079
:101240008F1590F110922702AF2CB12C650144E06C
:10125000CC0CDD1C4A95E1F7E09027028FE08E155B
:10126000F8F08E2C912CB401C5010E94210A860150
:10127000080D191DF801EE0FFF1FE85CFC4F91836C
:101280008083B401C5010E94210A000F111FF801DB
:10129000E858FC4F91838083E394E0922702DCCFEF
:1012A000F394F0922802C9CF4AE252E067EA71E073
:1012B00080E090E020E030E0FB01E20FF31F1082BD
:1012C0002F5F3F4F20323105B9F7DC01A65ABE4FE0
:1012D0001C92FC01E259FE4F108211961C9211974C
:1012E000118212961C921297128213961C921382EC
:1012F00020E030E0FA01E20FF31F10822F5F3F4F32
:1013000020313105B9F7405F5F4F0496605E7F4F33
:101310008031910579F681E08093800160960FB667
:10132000F894DEBF0FBECDBFDF91CF911F910F911B
:10133000FF90EF90DF90CF90BF90AF909F908F90F5
:10134000089581E08093840189E390E090935701B0
:101350008093560170CFDC01ED91FC910190F081FA
:10136000E02D0994AF92BF92CF92DF92EF92FF925D
:101370001F93CF93DF9300D0CDB7DEB77C016B0115
:1013800091E0122F192759F060EF70E0D7018D918D
:101390009C9149835A830E94AB095A8149815A0121
:1013A000C40ED51EAC14BD0471F0F701808191818B
:1013B000D5016D915D01DC01ED91FC910190F08111
:1013C000E02D0995EFCF112391F067EF70E0F70161
:1013D000808191810F900F90DF91CF911F91FF90AD
:1013E000EF90DF90CF90BF90AF900C94AB090F902F
:1013F0000F90DF91CF911F91FF90EF90DF90CF90F2
:10140000BF90AF900895EF92FF920F931F93CF93E9
:10141000DF938B01040F151FEB017C01E61AF70A1D
:10142000C017D10739F0C7018C0F9D1F0E941E14F1
:101430008993F6CFDF91CF911F910F91FF90EF909D
:10144000089560317105A0F5009721F4FB01E65283
:10145000FC4F06C08130910559F5FB01E651FC4F68
:10146000208130E04BB1437C4BB94BB1220F331F8D
:10147000220F331F242B2BB9009749F0019799F4C1
:101480008091C2030E945F038091C20306C08091D5
:10149000C0030E945F038091C0030E945F0390938A
:1014A0003E0580933D0580913D0590913E05089550
:1014B0008FEF9FEF0895CF93DF9360E08091C60395
:1014C0000E94F302CAEDD3E060E08091C8030E945D
:1014D000F3026A918091C4030E94F30261E080915B
:1014E000C8030E94F30283E0CA3CD80769F761E0B1
:1014F0008091C603DF91CF910C94F302CF93DF93D9
:1015000020E030E090E0A7E0B0E0F901E650FC4FC9
:10151000E081F0E0E653FC4FAD01421B530BEC01C0
:1015200002C0D595C7954A95E2F7AE014170408358
:101530002F5F3F4F2830310541F788E090E070E0A1
:101540004FE050E0FC01E650FC4FE081F0E0E65354
:10155000FC4F9A01281B390BDB0102C0B595A795FA
:101560002A95E2F79D012170208301968031910533
:1015700049F7DF91CF910C945B0A009769F0FC0169
:1015800001900020E9F73197AF01481B590BBC01CE
:1015900085E294E00C941C0180E090E00895EF92C5
:1015A000FF921F93CF93DF931F92CDB7DEB77C01DD
:1015B000162F2150203108F04EC080E8E816F104C3
:1015C0000CF449C0A1EEEA16F104ACF58091E604F2
:1015D0009091E704DC01ED91FC916E2D622B01905E
:1015E000F081E02D498309958091E6049091E7040C
:1015F000DC01ED91FC91612F6F770190F081E02D7E
:101600000995E894E4F84981B0ECEB16F10419F17E
:101610008091E6049091E704DC01ED91FC91642F48
:101620006F770190F081E02D0F90DF91CF911F91A6
:10163000FF90EF900994C701885F9109089758F4CB
:10164000B70186EE94E00F90DF91CF911F91FF904C
:10165000EF900C940D040F90DF91CF911F91FF90AC
:10166000EF900895CF93DF93CDB7DEB7E2970FB633
:10167000F894DEBF0FBECDBF789484B5826084BD80
:1016800084B5816084BD85B5826085BD85B5816086
:1016900085BD80916E00816080936E001092810004
:1016A00080918100826080938100809181008160BF
:1016B0008093810080918000816080938000809180
:1016C000B10084608093B1008091B000816080930C
:1016D000B00080917A00846080937A0080917A00D3
:1016E000826080937A0080917A00816080937A0092
:1016F00080917A00806880937A001092C100E09116
:10170000E604F091E704A089B18982E08C93A48576
:10171000B5851C92A685B7858FE38C93108EA4891E
:10172000B58986E08C93A289B3898C9180618C9372
:10173000A289B3898C9188608C93A289B3898C919A
:1017400080688C930288F389E02D80818F7D80836F
:101750001092E8041092EA041092E9041092F10445
:101760001092F0041092EF041092EE048FEF9FEFAE
:101770009093F3048093F2049093F5048093F4041F
:1017800010923C051092F9041092F8041092F7049C
:101790001092FA041092FB048091F604817082602A
:1017A00081608093F60461E08091C6030E94230368
:1017B00061E08091C4030E94230361E08091C8032B
:1017C0000E94230361E08091B8030E94230361E03B
:1017D0008091BA030E94230361E08091BC030E94C0
:1017E000230361E08091BE030E942303E8E3F3E05A
:1017F0001192119217AE16AE23E0E835F207C1F749
:10180000E8E5F3E01192119217AE16AE33E0E83737
:10181000F307C1F7EAECF3E0119283E0EA3DF80741
:10182000D9F780917A00887F80937A0080917A003E
:10183000846080937A00EAEDF3E0129293E0EA3C50
:10184000F907D9F70E945B0ACE0182960E949E0892
:101850008AA1893551F48BA1843539F48CA188355E
:1018600021F48DA1813009F4B0C3109214041092B8
:1018700013041092530110925201109255011092CC
:101880005401109259011092580110926B0110925C
:101890006A010E947603609394017093950180938E
:1018A00096019093970180E00E94A508412C512C4D
:1018B000320143941091E804113108F0C5C18091C0
:1018C000E6049091E704DC01ED91FC910480F58140
:1018D000E02D0995892B09F4B7C18091E604909118
:1018E000E704DC01ED91FC910680F781E02D09957C
:1018F0007C018B7F893F09F4A7C12091F0043091CE
:10190000F1042115310509F0B4C0E092EB04009117
:10191000E904802F0E9428040E943A04882361F081
:10192000E7FC0AC00093EB04E092EC0481E090E055
:101930009093F1048093F0040091EB04802F0E94B7
:101940002804813F910509F461C084F5803B91052D
:1019500009F463C06CF48039910509F45EC0803AE3
:10196000910509F45AC08038910509F0E0C055C0CE
:10197000803D910509F44AC02CF4803C910509F49E
:1019800045C0D5C0803E910509F447C0803F910510
:1019900009F0CDC020E430E03093EF042093EE0452
:1019A0001092E90420EF2093FC043DC0883F91058C
:1019B000B9F044F4833F910549F17CF1863F9105EC
:1019C00079F0B5C08A3F91050CF4B1C08D3F910507
:1019D0003CF09C012E5F31092230310508F0A7C090
:1019E0009093F9048093F8041092F7041092FA048B
:1019F0001092FB0481E080933C051092F104109258
:101A0000F0041092EF041092EE04F6C0E2E0F0E071
:101A1000F093EF04E093EE0406C023E030E030934F
:101A2000EF042093EE042091F0043091F1044091F2
:101A3000EE045091EF04415051092417350708F482
:101A4000D4C09093F9048093F804802F8F708F5F37
:101A50008093F7048091EC048093FA041092FB04C5
:101A60001092F1041092F0041092EF041092EE0420
:101A700021C0E7FE46C0C70199278D3F910554F468
:101A80008A3F91056CF4873F9105C1F0883F91052D
:101A9000C1F506C0AC014E5F51094230510588F5D1
:101AA0009093F9048093F8041092FA041092FB04C6
:101AB0001092F70481E080933C059EC08091FC0465
:101AC000803FA9F5C9010196F901EE53FB4F47EF9D
:101AD00042AFA0EFB0E0B093F904A093F804809374
:101AE000FA049093FB041092F70481E080933C0584
:101AF0001092F1041092F0041092EF041092EE0490
:101B000071C08091EB04F901EE53FB4F803FD1F49B
:101B1000E2AEE090EE04F090EF04C70101972817C1
:101B2000390708F462C00091EB04003F69F4109299
:101B3000F1041092F0041092EF041092EE0410924F
:101B4000E90482C0E1A6E5CF802F0E9428046C0141
:101B50009093F9048093F8040E943A04882331F0AA
:101B6000802F8F708F5F8093F70402C01092F7046C
:101B70008091EC048093FA04B3E0EB16F10419F4BD
:101B80008091ED0401C080E08093FB041092F10489
:101B90001092F0041092EF041092EE0481E0809312
:101BA0003C05E0EBCE16D104D1F06CF420E9C2166E
:101BB000D104A9F030EAC316D10489F080E8C81630
:101BC000D10481F40CC090EDC916D10441F0A0EE0F
:101BD000CA16D10421F0B0ECCB16D10419F400934D
:101BE000E9040AC01092E90407C02F5F3F4F309309
:101BF000F1042093F00428C08091F8049091F90436
:101C00008039910529F48091FB04882309F413C4D9
:101C10008091F8049091F9049C01205831092136F3
:101C2000310508F00FC42091F704211709F40AC404
:101C3000112309F407C400E04091F604342F3170F9
:101C400040FD56C201111BC38091840181119BC1CB
:101C500080918301882329F08091820181110E9463
:101C60003E08809181018111ADC1809101018111F6
:101C70001EC09091800191111AC00E9476030091BC
:101C80009401109195012091960130919701DC010A
:101C9000CB01801B910BA20BB30B8D329140A105A0
:101CA000B10508F47BC0E12CF12C13E048C0109280
:101CB0008001811104C0E12CF12C13E031C080912E
:101CC0007F018111F8CF10920101E12CF12C17E076
:101CD00080917E01282F30E02E153F0529F461E028
:101CE000F12FF81B8F2F03C060E0812F8E190E9407
:101CF00079072FEFE21AF20A34E0E316F10441F714
:101D0000DACF811105C060E0812F8E190E9479071A
:101D1000AFEFEA1AFA0AB4E0EB16F10409F4ADCF1A
:101D200080917E01F70194E0899FE00DF11D11245F
:101D3000E259FE4F8081823021F761E0E5CF80914A
:101D40007E01F70124E0829FE00DF11D1124E2598C
:101D5000FE4F8081813059F480916D01882311F00C
:101D600060E001C061E0812F8E190E9479073FEF8A
:101D7000E31AF30A84E0E816F10409F70E947603F7
:101D800060939401709395018093960190939701CD
:101D900090916D0181E0892780936D010E94760307
:101DA0000091900110919101209192013091930145
:101DB000DC01CB01801B910BA20BB30BC397A105D8
:101DC000B10508F4F5C00E9476036093900170930A
:101DD000910180939201909393018AE00E94CA023C
:101DE000892B09F448C081E08093000100E010E0F5
:101DF000E0906C01F09000016E2D8F2D0E947E0A04
:101E00008AE00E94CA0220918F01019771F4B30108
:101E1000A201002E04C0440F551F661F771F0A94AD
:101E2000D2F7422B40938F010EC0D301C201002E86
:101E300004C0880F991FAA1FBB1F0A94D2F7809570
:101E4000822380938F01FF0CF09200010F5F1F4FE0
:101E50000830110569F66E2D8FEF0E947E0A27E883
:101E6000A22E21E0B22E32ED832E912C00E010E064
:101E7000222423941EC010928F01F1CFC801049731
:101E8000049780F597E0F92EF01A80916B0180930A
:101E90007E01A1111FC0D5013C920F5F1F4FBFEF04
:101EA000AB1ABB0AE6E08E1A91080830110509F456
:101EB0007FC080918F0190E0002E02C0959587959C
:101EC0000A94E2F7A82FA1703A2EF5018081A81399
:101ED000D5CFE3CF8F15F9F290916A019F1508F0E5
:101EE000A5C3D9CF83E2C82ED12CC01AD10AE09065
:101EF0001304F09014048091580190915901E80E58
:101F0000F91EE80CF91C45E050E0BE016F5F7F4F01
:101F1000C7010E94030A41E050E0BE016A5F7F4FA3
:101F2000C70105960E94030A8981877009F4B3CF1F
:101F300083E0801B9E81332081F0E0917E0124E0CC
:101F4000E29FF0011124E80FF11DE65AFE4F408197
:101F5000842F8225808350E00FC091FD9CCFE091BB
:101F60007E0134E0E39FF0011124E80FF11DE65AF1
:101F7000FE4F108241E050E0BE016F5F7F4FC6010F
:101F80000E944E0488CF0E94760328EE33E040E0A2
:101F900050E00E945E14672B682B692B29F481E0C6
:101FA000809383018093820180918301811103C01A
:101FB0000E94320607C0809182018823C9F30E94E3
:101FC0003E08F6CF0E94090275CC89E090E090931C
:101FD00059018093580188A9A6E08A9FC001112465
:101FE0000996909355018093540129A9B4E02B9F41
:101FF000800D911D1124909353018093520183E42D
:1020000091E00E94BD0A8CE491E00E94BD0AC0905C
:102010005201D09053010D2C000CEE08FF08F7FE82
:102020002BC0E0912504F09126040190F081E02D71
:102030006DE285E294E0099522273327A9012C1946
:102040003D094E095F0919A28E010F5D1F4F9AE0ED
:10205000C92ED12CE12CF12CCA01B901A70196019E
:102060000E945E14605DF80162938F0121153105B5
:102070004105510589F71AC0A701960119A28E01E1
:102080000F5D1F4F8AE0C82ED12CE12CF12CCA0124
:10209000B901A70196010E945E14605DD8016E939C
:1020A0008D01211531054105510589F7C8010E94AF
:1020B000BD0A8FE491E00E94BD0A609152017091C7
:1020C000530180EF93E00E949F142FA530E0CB01D5
:1020D000261737070CF4C9018F3F910519F014F04A
:1020E0008FEF90E080936A0180E00E94F503D1CBEE
:1020F000842F8E7F09F4A6CD8091F8049091F90485
:10210000BC01605871096136710508F52091F7042A
:10211000211719F031E0111130E0469550E04230BE
:10212000510541F04330510549F04130510509F066
:1021300089CD06C0332309F485CD02C0311182CD8B
:102140004091FB046091FA040E94CF0A7BCDFC0110
:10215000E05FF109E031F10508F074CDEC5CFF4F70
:102160000C94B314BC0186EE94E00E940D046ACD79
:102170006091FB0470E0762F66278091FA04682B4B
:102180006134710510F060E470E021E04CEF54E040
:1021900086EE94E00E94B20955CD1091FA04809128
:1021A000E6049091E704DC01ED91FC910190F0814F
:1021B000E02D63EF09951F77612F70E08091E604B1
:1021C0009091E7040E94AB093DCDE090FB04B0E89C
:1021D000EB9E700111248091FA04E82A8091E604B4
:1021E0009091E704DC01ED91FC910190F081E02DEC
:1021F00062EF09958091E6049091E704DC01ED918E
:10220000FC91B7016F7777270190F081E02D099558
:102210008091E6049091E704DC01ED91FC91B70117
:10222000660F672F661F770B71956F777727019081
:10223000F081E02D22C08091FA048770B0E18B9F7D
:10224000C00111241091FB041F70182B8091E6042B
:102250009091E704DC01ED91FC910190F081E02D7B
:1022600061EF09958091E6049091E704DC01ED911E
:10227000FC910190F081E02D612F0995E3CC8091D4
:10228000F8049091F9048039910539F0803F910567
:1022900039F08038910509F0D7CC0E94A107D4CC41
:1022A0001092F6040091FA049091FB043091FE0420
:1022B0002091FF04809100054091FD04493509F00B
:1022C000C3CC343509F0C0CC283509F0BDCC813001
:1022D000E9F490917F019111B7CC809383018093B1
:1022E000820185E0E4E0F1E0DE01119601900D92BB
:1022F0008A95E1F720E0AE014F5F5F4F65E070E047
:1023000086EE94E00E94B20981E092C08630A1F48A
:1023100080917F01882309F497CC81E08093830129
:102320008093820185E0E9E0F1E0DE011196019001
:102330000D928A95E1F771C0833009F085CC8091C8
:102340008101811103C081E08093810110E0192B8C
:102350000134110510F000E410E020910105809196
:1023600056019091570142E0E42E45E0F42E6801B9
:10237000289F4001299F900C1124B7E0CB16D1046F
:1023800001F15701F7016081C4016AAB0E941E147C
:102390006AA9861719F0C4010E942614C4010E947C
:1023A0001E14FFEFEF1AFF0A2FEF821A920A31E094
:1023B000C31AD108D5019C918917F9F281E0809365
:1023C000850181E080938301809382018091560191
:1023D0009091570107960817190708F035CC15E0BA
:1023E00010938201EEE0F1E0DE019296812F0190E0
:1023F0000D928A95E1F720E0AE014E5D5F4F65E0FA
:1024000070E086EE94E00E94B209E9E0F1E0DE01BE
:10241000119601900D921A95E1F720E0AE014F5F01
:102420005F4F65E070E086EE94E00E94B20980E0C4
:102430000E94A50809CC20E830E03093F9042093ED
:10244000F804E6CB813F9105B1F5E091D204F0911B
:10245000D3040CC08B3F91050CF0C7C0833F91059E
:1024600009F0A4C0E091D604F091D704309709F1A7
:102470008091FA0409951DC0813D91050CF454C06A
:10248000803E910509F060C0E091CE04F091CF0448
:10249000309779F06091FB046F7720E8629FB0017C
:1024A00011248091FA048F77682B70528091F70481
:1024B000099501E0C1CB823F91050CF061C0803BE2
:1024C0009105B1F4E091C804F091C90407C08038C7
:1024D000910579F7E091C204F091C304309749F374
:1024E0004091FB046091FA048091F7040995E1CFD3
:1024F000813B910584F48039910529F4E091C4046D
:10250000F091C504EBCF803A910509F7E091C6043C
:10251000F091C704E3CF803D910509F0ADCFE09184
:10252000CC04F091CD0407C0803C910511F6E091F8
:10253000CA04F091CB04309709F4BBCF6091FA0440
:102540008091F7040995B5CF803F910509F0B1CF8F
:10255000E091D004F091D104309709F4AACF6091B2
:10256000FB0470E0762F66278091FA04682B6134B3
:10257000710510F060E470E08CEF94E0099599CF5C
:102580008A3F910509F066CFE091DC04F091DD040B
:1025900008C0883F910509F08CCFE091DA04F091F2
:1025A000DB04309709F485CF099583CF833F9105EC
:1025B000A4F4E091D404F091D504309709F479CFD4
:1025C0008091FB048F7730E8839FC0011124209114
:1025D000FA042F77822B09956CCF863F9105C9F6B7
:1025E000E091D804F091D904DCCF8C3F910529F417
:1025F000E091E004F091E104D4CF8C3F91052CF4FC
:10260000E091DE04F091DF04CCCF8E3F910529F4F8
:10261000E091E204F091E304C4CF8F3F910509F00B
:1026200048CFE091E404F091E504BBCF80938601AC
:102630008F2D0E94F503F0927E01209201012BCC98
:10264000CF93DF93A5E2B4E013961C921E921297EB
:1026500048EE53E060E070E014964D935D936D9307
:102660007C93179787E391E011969C938E9385EC6A
:1026700090E01D969C938E931C9784EC90E01F969F
:102680009C938E931E9780EC90E051969C938E9332
:10269000509781EC90E053969C938E93529782ECE6
:1026A00090E055969C938E93549786EC90E05796C5
:1026B0009C938E93569759961C9259975A961C92B2
:1026C0005A975B961C925B975C961C925C9784E68B
:1026D00090E09093360380933503E2ECF4E0B5A3E9
:1026E000A4A316A217A210A615A614A617A616A68E
:1026F0008FEF9FEF91AB80AB93AB82AB83E0809386
:10270000F60415AA17AA16AA10AE11AE10923C052F
:1027100080E4ACEFB4E0ED0119928A95E9F71182FB
:1027200010821382128215821482178216821186F9
:102730001086138612861586148617861686118AC9
:10274000108A138A128A158A148A178A168A118E99
:10275000108E138E128E158E148E178E168E11A259
:1027600010A213A212A285E194E00E949E08C091DB
:102770001304D091140445E050E06AE074E0CE0107
:102780000E94030A44E050E06FE074E0CE01059639
:102790000E94030A82E090E09093B9038093B8030B
:1027A00083E090E09093BB038093BA0384E090E0D1
:1027B0009093BD038093BC0385E090E09093BF03AA
:1027C0008093BE038EE090E09093C1038093C0039A
:1027D0008FE090E09093C3038093C20386E090E083
:1027E0009093C5038093C40387E090E09093C70360
:1027F0008093C60388E090E09093C9038093C80358
:1028000080E1E3E1F1E0AAEDB3E001900D928A9559
:10281000E1F780E1E3E1F1E0AAEEB3E001900D928F
:102820008A95E1F780E1E3E2F1E0AAEFB3E00190FD
:102830000D928A95E1F7DF91CF910895F999FECF36
:1028400092BD81BDF89A992780B50895262FF999F0
:10285000FECF1FBA92BD81BD20BD0FB6F894FA9A83
:10286000F99A0FBE01960895052E97FB1EF4009469
:102870000E944B1457FD07D00E945E1407FC03D042
:102880004EF40C944B1450954095309521953F4F44
:102890004F4F5F4F089590958095709561957F4F4C
:1028A0008F4F9F4F08950E948014A59F900DB49F55
:1028B000900DA49F800D911D11240895A1E21A2E60
:1028C000AA1BBB1BFD010DC0AA1FBB1FEE1FFF1FD4
:1028D000A217B307E407F50720F0A21BB30BE40B24
:1028E000F50B661F771F881F991F1A9469F760956B
:1028F0007095809590959B01AC01BD01CF01089525
:10290000A29FB001B39FC001A39F700D811D112430
:10291000911DB29F700D811D1124911D0895DB0141
:102920008F939F930E945314BF91AF91A29F800DEC
:10293000911DA39F900DB29F900D1124089597FBB8
:10294000072E16F4009407D077FD09D00E94B91421
:1029500007FC05D03EF4909581959F4F08957095A2
:1029600061957F4F0895EE0FFF1F0590F491E02DC4
:102970000994AA1BBB1B51E107C0AA1FBB1FA617C6
:10298000B70710F0A61BB70B881F991F5A95A9F718
:1029900080959095BC01CD01089581E090E0F89478
:0829A0000C94D214F894FFCF4F
:1029A800010101015954580200595458070059545B
:1029B80058040000070106020503040F0B0E0A0D58
:1029C800090C0807000603050204010F080E0B0D89
:1029D8000A0C0900000000A0011C01690147015B05
:1029E80001E70142616E6B206C656E003A20000DB4
:0229F8000A00D3
:107E0000112484B714BE81FFF0D085E080938100F7
:107E100082E08093C00088E18093C10086E0809377
:107E2000C20080E18093C4008EE0C9D0259A86E02C
:107E300020E33CEF91E0309385002093840096BBD3
:107E4000B09BFECF1D9AA8958150A9F7CC24DD24C4
:107E500088248394B5E0AB2EA1E19A2EF3E0BF2EE7
:107E6000A2D0813461F49FD0082FAFD0023811F036
:107E7000013811F484E001C083E08DD089C08234E0
:107E800011F484E103C0853419F485E0A6D080C0E4
:107E9000853579F488D0E82EFF2485D0082F10E0AE
:107EA000102F00270E291F29000F111F8ED06801E7
:107EB0006FC0863521F484E090D080E0DECF843638
:107EC00009F040C070D06FD0082F6DD080E0C81688
:107ED00080E7D80618F4F601B7BEE895C0E0D1E017
:107EE00062D089930C17E1F7F0E0CF16F0E7DF06D8
:107EF00018F0F601B7BEE89568D007B600FCFDCFD4
:107F0000A601A0E0B1E02C9130E011968C91119780
:107F100090E0982F8827822B932B1296FA010C0160
:107F200087BEE89511244E5F5F4FF1E0A038BF0790
:107F300051F7F601A7BEE89507B600FCFDCF97BE46
:107F4000E89526C08437B1F42ED02DD0F82E2BD052
:107F50003CD0F601EF2C8F010F5F1F4F84911BD097
:107F6000EA94F801C1F70894C11CD11CFA94CF0C13
:107F7000D11C0EC0853739F428D08EE10CD085E9AC
:107F80000AD08FE07ACF813511F488E018D01DD067
:107F900080E101D065CF982F8091C00085FFFCCF94
:107FA0009093C60008958091C00087FFFCCF809118
:107FB000C00084FD01C0A8958091C6000895E0E648
:107FC000F0E098E1908380830895EDDF803219F02E
:107FD00088E0F5DFFFCF84E1DECF1F93182FE3DFCA
:107FE0001150E9F7F2DF1F91089580E0E8DFEE27F6
:047FF000FF270994CA
:027FFE00040479
:0400000300007E007B
:00000001FF
