:100000000C94F2000C941A010C941A010C941A012D
:100010000C941A010C941A010C941A010C94E2032A
:100020000C941A010C941A010C941A010C941A01E4
:100030000C941A010C941A010C941A010C941A01D4
:100040000C9498030C941A010C94AE020C94880240
:100050000C941A010C941A010C941A010C941A01B4
:100060000C941A010C941A01F510581122110A115E
:100070005F0E5F0EEF105F0EEF105F0EEF10EF10D0
:10008000EF105F0EEF10EF10000001000200030000
:100090000400050006000700080009000A000B0024
:1000A0000C000D000E000F001000110012001300D4
:1000B00014001500170018001A001B001D001F0077
:1000C00021002300260028002B002D0030003300E3
:1000D00037003A003E00420046004B004F005500FA
:1000E0005A00600066006C0073007F0080008B0087
:1000F00094009D00A800B200BE00CA00E100FE000E
:10010000FF001301250138014B01610177018F01C7
:10011000A901C401E101FF010002280268028F0267
:10012000B902E602150347037D03B603FF032F045C
:100130007F04BF040F055F05BF050F067F06DF06BE
:100140004F07FF074F08CF085F09FF099F0A4F0BB2
:100150000F0CCF0C9F0D7F0E6F0FFF0F6F118F12C3
:10016000BF13FF145F16BF174F19DF1A9F1C6F1EB6
:10017000FF1F6F22AF2401277F291F2CEF2EEF31A5
:100180001F358F381F3CFF3F000000002400270070
:100190002A0000000000250028002B0000000000BD
:1001A00023002600290004040404040404040202B9
:1001B00002020202030303030303010204081020E6
:1001C00040800102040810200102040810200000F1
:1001D0000008000201000003040700000000000006
:1001E00000002D1311241FBECFEFD8E0DEBFCDBF1E
:1001F00011E0A0E0B1E0EAEAF9E202C005900D9258
:10020000A437B107D9F725E0A4E7B1E001C01D92FA
:10021000AD35B207E1F710E0C2EFD0E004C021979E
:10022000FE010E94B414C13FD107C9F70E946F0BB1
:100230000C94D3140C940000CF92DF92EF92FF92B3
:100240000F931F93CF93DF936C017A018B01C0E072
:10025000D0E0CE15DF0589F0D8016D918D01D60172
:10026000ED91FC910190F081E02DC6010995892B5B
:1002700011F47E0102C02196ECCFC701DF91CF912E
:100280001F910F91FF90EF90DF90CF900895089508
:1002900080E090E00895FC01538D448D252F30E0DF
:1002A000842F90E0821B930B541710F0CF96089583
:1002B00001970895FC01918D828D981761F0828DD0
:1002C000DF01A80FB11D5D968C91928D9F5F9F738A
:1002D000928F90E008958FEF9FEF0895FC01918D2C
:1002E000828D981731F0828DE80FF11D858D90E099
:1002F00008958FEF9FEF0895FC01918D228D892F36
:1003000090E0805C9F4F821B91098F73992708951D
:1003100083E494E00E947C0121E0892B09F420E031
:10032000822F0895FC01848DDF01A80FB11DA35A0F
:10033000BF4F2C91848D90E001968F739927848F05
:10034000A689B7892C93A089B1898C9180648C93FC
:10035000938D848D981306C00288F389E02D8081E7
:100360008F7D80830895EF92FF920F931F93CF9319
:10037000DF93EC0181E0888F9B8D8C8D981305C0F5
:10038000E889F989808185FD24C0F62E0B8D10E067
:100390000F5F1F4F0F731127E02E8C8DE8120CC0DA
:1003A0000FB607FCFACFE889F989808185FFF5CF80
:1003B000CE010E949201F1CF8B8DFE01E80FF11D5D
:1003C000E35AFF4FF0820B8FEA89FB8980818062BC
:1003D00007C0EE89FF896083E889F989808180649C
:1003E000808381E090E0DF91CF911F910F91FF908A
:1003F000EF900895CF93DF93EC01888D8823C9F0A7
:10040000EA89FB89808185FD05C0A889B9898C911D
:1004100086FD0FC00FB607FCF5CF808185FFF2CFB8
:10042000A889B9898C9185FFEDCFCE010E949201F8
:10043000E7CFDF91CF91089580E090E0892B29F0FC
:100440000E94880181110C9400000895833081F08E
:1004500028F4813099F08230A1F008958730A9F016
:100460008830B9F08430D1F4809180008F7D03C052
:10047000809180008F7780938000089584B58F7776
:1004800002C084B58F7D84BD08958091B0008F77C0
:1004900003C08091B0008F7D8093B00008950F93CA
:1004A000FA01002319F0E45DFC4F02C0E45FFC4F49
:1004B0003081332391F06817790708F1621B7109C5
:1004C00086179707F8F4FA01002319F0E45DFC4F52
:1004D00002C0E45FFC4F108212C08617970778F0C5
:1004E000620F711D6817790768F4FA01002319F08B
:1004F000E45DFC4F02C0E45FFC4F81E0808380E05C
:1005000090E002C081E090E00F9108950E94CE1427
:100510001F920F920FB60F9211242F933F934F9378
:100520005F936F937F938F939F93AF93BF93EF935B
:10053000FF9383E494E00E949201FF91EF91BF91B9
:10054000AF919F918F917F916F915F914F913F916B
:100550002F910F900FBE0F901F9018951F920F9222
:100560000FB60F9211242F938F939F93EF93FF93C6
:10057000E0915304F09154048081E0915904F0918A
:100580005A0482FD12C0908180915C048F5F8F734A
:1005900020915D04821751F0E0915C04F0E0ED5B86
:1005A000FB4F958F80935C0401C08081FF91EF9198
:1005B0009F918F912F910F900FBE0F901F901895C4
:1005C000CF93DF93282F30E0F901E253FE4F84915F
:1005D000F901E654FE4FD491F901EA55FE4FC4915A
:1005E000CC2391F081110E942602EC2FF0E0EE0F57
:1005F000FF1FE456FE4FA591B491EC91ED2381E0ED
:1006000090E021F480E002C080E090E0DF91CF91A3
:1006100008951F93CF93DF93282F30E0F901E25321
:10062000FE4F8491F901E654FE4FD491F901EA5549
:10063000FE4FC491CC23C9F0162F81110E942602CF
:10064000EC2FF0E0EE0FFF1FEE56FE4FA591B49198
:100650008FB7F894111105C09C91ED2FE095E92317
:1006600002C0EC91ED2BEC938FBFDF91CF911F91E6
:100670000895CF93DF9390E0FC01E654FE4F249160
:10068000FC01EA55FE4F8491882361F190E0880FC8
:10069000991FFC01E857FE4FC591D491FC01EE561D
:1006A000FE4FA591B491611109C09FB7F89488815C
:1006B000209582238883EC912E230BC0623061F455
:1006C0009FB7F8943881822F809583238883EC919B
:1006D0002E2B2C939FBF06C08FB7F894E8812E2B4A
:1006E00028838FBFDF91CF9108958E3008F08E5010
:1006F0008770806480937C0080917A00806480930E
:100700007A0080917A0086FDFCCF8091780020915C
:10071000790090E0922B08952FB7F89460915303DD
:100720007091540380915503909156032FBF089503
:100730001F920F920FB60F9211242F933F938F9316
:100740009F93AF93BF938091530390915403A091D3
:100750005503B09156033091520323E0230F2D37F8
:1007600020F40196A11DB11D05C026E8230F0296B5
:10077000A11DB11D20935203809353039093540302
:10078000A0935503B093560380914E0390914F036D
:10079000A0915003B09151030196A11DB11D80930A
:1007A0004E0390934F03A0935003B0935103BF9116
:1007B000AF919F918F913F912F910F900FBE0F900E
:1007C0001F9018951F920F920FB60F9211242F931E
:1007D0003F934F935F936F937F938F939F93AF93C9
:1007E000BF93EF93FF93E0914C03F0914D0330974B
:1007F00009F00995FF91EF91BF91AF919F918F9172
:100800007F916F915F914F913F912F910F900FBE0C
:100810000F901F90189590918C01891710F08FEF11
:10082000890F4091740150917501849F9001859FBB
:10083000300D1124205F3F4F309332042093310458
:1008400080938D0108956D3F71053CF46A3F7105F9
:1008500054F4683F710589F406C09B012E5F31098D
:100860002230310550F4DC018D919C91DC01ED9139
:10087000FC910190F081E02D0994089587FF0DC04F
:100880009CE0980F923048F0982F9B7F993F29F079
:10089000803F08F4807F90E0089580E090E0089524
:1008A0009C018F7C8038910561F0203D310549F035
:1008B00081E0203E310539F0203C310521F080E017
:1008C000089581E0089508952F923F924F925F928C
:1008D0006F927F928F929F92AF92BF92CF92DF9250
:1008E000EF92FF920F931F93CF93DF9300D000D02E
:1008F0001F92CDB7DEB75C016B015D834C83FB01BA
:10090000F081FB831F2F1770FB01858181708A8323
:10091000F281F983FB01438034808091A101811130
:10092000B2C0FA81FF2309F4A6C04230510548F055
:100930007A014E3F534040F0ADEFEA2EA3E0FA2E8D
:1009400003C0F2E0EF2EF12C4501880C991CC40184
:1009500084539D4F3C01FC016081718101E027E0DF
:10096000A501C7010E944F02892B09F06FC1F30155
:10097000F182E082970140E050E0133009F04CC072
:10098000E42DF0E0EE0FFF1FE857FF4F85919491A3
:10099000E32DF0E0EE0FFF1FE857FF4F65917491D4
:1009A0003B01681A790A1C01990F44085508225026
:1009B000310941095109CB01770FAA0BBB0BBC01CF
:1009C000CD0162197309840995090E9490142BEFD7
:1009D00033E040E050E00E943514DA01C901820D95
:1009E000931DA41DB51D7C01FFEF6F16F3E07F067C
:1009F000E4F5A30177FE03C0519541955109F40137
:100A0000E457FD4F6081718100E0252FA5010E9410
:100A10004F02892B51F11AC1512C612C712C22509B
:100A2000310941095109832D90E0A0E0B0E0BC01FB
:100A3000CD0164197509860997090E9490142BEF5E
:100A400033E040E050E00E943514DA01C901840D22
:100A5000951DA61DB71D7C01F401E457FD4F808153
:100A60009181E816F90609F4F1C0F401E457FD4F4D
:100A7000F182E08208C08C819D81892B11F0E42CE9
:100A800001C0E32CF12C8091A101882309F45AC004
:100A90009A81992309F449C0EC81FD81E230F10586
:100AA00058F04F01FEEF8F16F3E09F0640F03DEF48
:100AB000832E33E0932E03C022E0822E912C750109
:100AC000EE0CFF1CC70184539D4F6C01FC0160813B
:100AD000718101E027E0A501C4010E944F02892B2A
:100AE00009F0B4C0F60191828082C401A0E0B0E0B8
:100AF0009C01AD012250310941095109AFE7B0E035
:100B00000E9454142BEF33E040E050E00E94351473
:100B1000B901F701E457FD4F80819181281739070A
:100B200009F494C03183208309C08C819D81892B75
:100B300019F46FE770E002C060E070E021E0462F3A
:100B40006A2D43C08B818877869586958695BB24D0
:100B5000B394B80E1330C1F048F4113079F012306C
:100B600009F069C02B2D4E2D69812FC0153009F475
:100B70003FC070F1163009F448C05DC02B2D4E2DDA
:100B8000698180E990E055C02B2DF601418163E633
:100B900080EB90E00E940C0B2B2DF601428162E667
:100BA00080EB90E00E940C0BA701440F452F441FDF
:100BB000550B51954F772B2D66E080EB90E00E940E
:100BC0000C0B4E2D4F772B2D66E280EB90E031C061
:100BD0008091A001EB2DF0E020E1829FE00DF11D5E
:100BE0001124E55BFD4F6081662329F161501CC033
:100BF0008A81811106C0EF28F1F02B2D40E0698138
:100C000016C02B2D40E06E2D12C08091A001EB2D5F
:100C1000F0E090E1899FE00DF11D1124E55BFD4FAF
:100C200060816F3740F46F5F60832B2D40E080EC74
:100C300090E00E940C0B8091A401811107C081E01B
:100C40008093A40180934B028093A3010F900F9097
:100C50000F900F900F90DF91CF911F910F91FF9008
:100C6000EF90DF90CF90BF90AF909F908F907F904C
:100C70006F905F904F903F902F9008954F925F92AA
:100C80006F927F928F929F92AF92BF92CF92DF929C
:100C9000EF92FF920F931F93CF93DF93CDB7DEB701
:100CA00029970FB6F894DEBF0FBECDBF53E1C52E16
:100CB00051E0D52EA12CB12C55245394C60183515B
:100CC00091407C018091C80190E00497E816F906F4
:100CD0000CF018C1009131041091320480917A0116
:100CE00090917B01080F191F0A0D1B1D45E050E074
:100CF000BE016F5F7F4FC8010E94330A41E050E0A0
:100D0000BE016A5F7F4FC80105960E94330AF60153
:100D100001916F0144244394003108F4412C409226
:100D20004A020F70009349028981877009F4E6C076
:100D30008E8110E0842C912C80FF4BC0B801C4013F
:100D40000E94510AB4E0880C991CBA95E1F794010D
:100D5000200F311FF901EE0FFF1FE65AFC4F918360
:100D600080834091030141112AC0220F331FF901F2
:100D7000E656FC4F208131818217930701F1AC01C7
:100D8000BE016F5F7F4FC7010E94640480914A02D9
:100D900020914902F0E18F9FC0011124820F911D23
:100DA000DC01AA0FBB1FA656BC4F880F991FFC0180
:100DB000E65AFC4F808191818D939C939FC0800E59
:100DC000911EF401EE0FFF1FE656FC4F91838083C6
:100DD00095C0C801865A9C4FFC0141100BC0E256D9
:100DE000FF4F6080712C60E08EE00E94390361E06B
:100DF0008EE00AC0E255FF4F6080712C60E08FE00A
:100E00000E94390361E08FE00E9409038BB1837C6B
:100E10008BB98BB1660C771C660C771C682A6BB893
:100E200021E0421629F08EE00E94E0028EE004C02C
:100E30008FE00E94E0028FE00E94E00221E0892B17
:100E400009F420E0F40184E0EE0FFF1F8A95E1F73A
:100E5000E00FF11FEE0FFF1FE65AFC4F822F90E0CC
:100E6000918380834E8190914A028091490230E1C2
:100E7000939FF0011124E80FF11DDF01AA0FBB1FA2
:100E8000A65ABC4F2D913C91EE0FFF1FE656FC4F2A
:100E9000608171812617370789F131832083509152
:100EA000030151112BC050E1959F800D1124232B7C
:100EB00081F4E091A00190E2E99FF0011124E80F94
:100EC000F11DE753FE4F4081842F8525808350E03C
:100ED0000FC041FD13C0E091A00120E2E29FF001AC
:100EE0001124E80FF11DE753FE4F108241E050E05E
:100EF000BE016F5F7F4FC7010E94640436E0A30EFE
:100F0000B11CDCCE8091030181111092030129965E
:100F10000FB6F894DEBF0FBECDBFDF91CF911F910A
:100F20000F91FF90EF90DF90CF90BF90AF909F9088
:100F30008F907F906F905F904F900895382F209101
:100F40008E01662379F041E050E060E070E004C07B
:100F5000440F551F661F771F8A95D2F7422B409387
:100F60008E010FC081E090E0A0E0B0E004C0880FE7
:100F7000991FAA1FBB1F3A95D2F7809582238093B1
:100F80008E0160918E018FEF0C94BB0ABF92CF92BD
:100F9000DF92EF92FF920F931F93CF93DF9300D0D6
:100FA00000D0CDB7DEB7E0901805F0901905B090ED
:100FB00015058091A101811126C0C12CD12C00E022
:100FC00010E02091310430913204809176019091AB
:100FD0007701820F931F44E050E0BE016F5F7F4FA7
:100FE0008C0D9D1D0E94330A99818A812B813C8141
:100FF000E81241C0892F88778695869586958F5F00
:10100000B81239C00AC0FF2011F061E001C060E0F1
:1010100083E08E190E949E0746C0409116055091AC
:10102000170540395105A9F48091A00190FF2EC009
:10103000F21660F13F1550F194E0899F000D111DEB
:101040001124F801E057FE4F81E0808310928F0158
:101050000EC04038510559F48091A00194E0899F59
:10106000000D111D1124F801E057FE4F108281E0A0
:101070008093A20118C00F5F1F4F84E0C80ED11CDF
:1010800090E1C916D10409F09CCF0DC0FF2031F3C7
:1010900094E0899F000D111D1124F801E057FE4FC7
:1010A00082E08083E4CF0F900F900F900F90DF913C
:1010B000CF911F910F91FF90EF90DF90CF90BF9055
:1010C00008950F931F93CF93DF938091020188239C
:1010D00061F0109202010E948C036093C40170932E
:1010E000C5018093C6019093C70180914B02811185
:1010F00003C0C4E6D0E002C0CFE0D0E00E948C0381
:101100000091C4011091C5012091C6013091C70121
:10111000AB01BC01401B510B620B730BCE01A0E075
:10112000B0E084179507A607B70730F50E948C0337
:101130006093C4017093C5018093C6019093C70169
:10114000C091C30181E0C8276C2F8DE00E94090384
:10115000C093C301C11105C08091A3018150809348
:10116000A3018091A301811107C01092A4011092E4
:101170004B0281E080930201DF91CF911F910F918B
:10118000089540E150E0BC0180E090E00C94330A07
:10119000DC01ED91FC910190F081E02D0994AF927A
:1011A000BF92CF92DF92EF92FF921F93CF93DF9384
:1011B00000D0CDB7DEB77C016B0191E0122F19276B
:1011C00059F060EF70E0D7018D919C9149835A836B
:1011D0000E94C8085A8149815A01C40ED51EAC1418
:1011E000BD0471F0F70180819181D5016D915D01A0
:1011F000DC01ED91FC910190F081E02D0995EFCF9C
:10120000112391F067EF70E0F701808191810F90D9
:101210000F90DF91CF911F91FF90EF90DF90CF90D3
:10122000BF90AF900C94C8080F900F90DF91CF91B2
:101230001F91FF90EF90DF90CF90BF90AF900895F7
:101240008F929F92AF92BF92CF92DF92EF92FF92D6
:101250000F931F93CF93DF93CDB7DEB760970FB691
:10126000F894DEBF0FBECDBF182F61E08DE00E9465
:10127000390360E08DE00E940903CE0101960E94CF
:10128000C10890E1FE013196A3E3B4E001900D9214
:101290009A95E1F71092A00180E00E940B04109350
:1012A000A10181E0809301018093A2018093030159
:1012B00080913304893509F0CCC0809134048435A1
:1012C00009F0C7C080913504883509F0C2C089E3B0
:1012D00090E0909379018093780160E08AE00E9429
:1012E000390360E08FEF0E94BB0A8AE00E94E002AF
:1012F0008093C20180913F04982F91709093C10117
:10130000909140049093C001909141049093C80142
:10131000909142049093BF01869581708093BE01A5
:10132000882321F083E08093140502C010921405F5
:101330008091A10120E0882319F04EE051E002C025
:1013400049E051E065E070E084E095E00E94CF085C
:1013500010924A02F0904A0281E08F1590F11092AB
:101360004902AF2CB12C650144E0CC0CDD1C4A9540
:10137000E1F7E09049028FE08E15F8F08E2C912C69
:10138000B401C5010E94510A8601080D191DF8011A
:10139000EE0FFF1FE65AFC4F91838083B401C50115
:1013A0000E94510A000F111FF801E656FC4F91836D
:1013B0008083E394E0924902DCCFF394F0924A02F6
:1013C000C9CF4CE452E069EC71E080E090E020E0AD
:1013D00030E0FB01E20FF31F10822F5F3F4F2032FE
:1013E0003105B9F7FC01E458FE4F108211821282D8
:1013F0001382FC01E057FE4F108211821282138289
:1014000020E030E0FA01E20FF31F10822F5F3F4F20
:1014100020313105B9F7405F5F4F0496605E7F4F22
:1014200080319105A1F681E08093A20160960FB60C
:10143000F894DEBF0FBECDBFDF91CF911F910F910A
:10144000FF90EF90DF90CF90BF90AF909F908F90E4
:10145000089581E08093A50189E390E0909379015C
:101460008093780175CFEF92FF920F931F93CF93E4
:10147000DF938B01040F151FEB017C01E61AF70ABD
:10148000C017D10739F0C7018C0F9D1F0E941F1490
:101490008993F6CFDF91CF911F910F91FF90EF903D
:1014A00008950F931F93CF93DF9360317105C8F5B3
:1014B000EB018C01009739F460E08EE00E94390363
:1014C000C850DC4F08C0019761F560E08FE00E94D2
:1014D0003903C85FDB4F288130E08BB1837C8BB947
:1014E0008BB1220F331F220F331F282B2BB901156D
:1014F000110541F00130110579F48FE00E94750368
:101500008FE004C08EE00E9475038EE00E94750398
:1015100090935C0580935B0580915B0590915C05E1
:1015200002C08FEF9FEFDF91CF911F910F91089530
:10153000CF93DF9360E08091E4030E940903C8EF3A
:10154000D3E060E08091E6030E9409036A918091F4
:10155000E2030E94090361E08091E6030E9409030F
:1015600083E0C83ED80769F761E08091E403DF912A
:10157000CF910C940903CF93DF9320E030E090E00B
:10158000A7E0B0E0F901E85EFB4FE081F0E0E85150
:10159000FC4FAD01421B530BEC0102C0D595C79522
:1015A0004A95E2F7AE01417040832F5F3F4F2830EC
:1015B000310541F788E090E070E04FE050E0FC0139
:1015C000E85EFB4FE081F0E0E851FC4F9A01281BF8
:1015D000390BDB0102C0B595A7952A95E2F79D016D
:1015E0002170208301968031910549F7DF91CF91D9
:1015F0000C94980A009769F0FC0101900020E9F72B
:101600003197AF01481B590BBC0183E494E00C9463
:101610001C0180E090E00895EF92FF921F93CF931A
:10162000DF931F92CDB7DEB77C01162F21502031FA
:1016300008F04EC080E8E816F1040CF449C0A1EEB1
:10164000EA16F104ACF58091040590910505DC01E2
:10165000ED91FC916E2D622B0190F081E02D49837C
:1016600009958091040590910505DC01ED91FC91AF
:10167000612F6F770190F081E02D0995E894E4F8EF
:101680004981B0ECEB16F10419F1809104059091B9
:101690000505DC01ED91FC91642F6F770190F081DD
:1016A000E02D0F90DF91CF911F91FF90EF90099463
:1016B000C701885F9109089758F4B70184E095E065
:1016C0000F90DF91CF911F91FF90EF900C94230426
:1016D0000F90DF91CF911F91FF90EF900895CF93DE
:1016E000DF93CDB7DEB7E2970FB6F894DEBF0FBE3B
:1016F000CDBF789484B5826084BD84B5816084BD9B
:1017000085B5826085BD85B5816085BD80916E009F
:10171000816080936E0010928100809181008260D0
:10172000809381008091810081608093810080910D
:1017300080008160809380008091B10084608093FC
:10174000B1008091B00081608093B00080917A00F8
:10175000846080937A0080917A00826080937A001E
:1017600080917A00816080937A0080917A0080680D
:1017700080937A001092C100E0910405F091050574
:10178000A089B18982E08C93A485B5851C92A68539
:10179000B7858FE38C93108EA489B58986E08C93EE
:1017A000A289B3898C9180618C93A289B3898C9131
:1017B00088608C93A289B3898C9180688C9302880D
:1017C000F389E02D80818F7D808310920605109231
:1017D00008051092070510920F0510920E05109241
:1017E0000D0510920C058FEF9FEF909311058093DC
:1017F0001005909313058093120510925A051092CC
:1018000017051092160510921505109218051092E2
:1018100019058091140581708260816080931405A0
:1018200061E08091E4030E94390361E08091E2036A
:101830000E94390361E08091E6030E94390361E070
:101840008091DA030E94390361E08091DC030E94F9
:10185000390361E08091DE030E94390361E08091E9
:10186000E0030E943903EAE5F3E01192119217AE0A
:1018700016AE23E0EA37F207C1F7EAE7F3E0119288
:10188000119217AE16AE33E0EA39F307C1F7E8EE6E
:10189000F3E0119283E0E83FF807D9F780917A00EE
:1018A000887F80937A0080917A00846080937A00A8
:1018B000E8EFF3E0129293E0E83EF907D9F70E94CF
:1018C000980ACE0182960E94C1088AA1893551F4F6
:1018D0008BA1843539F48CA1883521F48DA1813018
:1018E00009F4B0C3109232041092310410927501C1
:1018F00010927401109277011092760110927B0180
:1019000010927A0110928D0110928C010E948C032A
:101910006093B5017093B6018093B7019093B801BD
:1019200080E00E942009412C512C320143941091F7
:101930000605113108F0C5C1809104059091050597
:10194000DC01ED91FC910084F185E02D0995892B56
:1019500009F4B7C18091040590910505DC01ED9172
:10196000FC910284F385E02D09957C018B7F893FF2
:1019700009F4A7C120910E0530910F0521153105FD
:1019800009F0B4C0E092090500910705802F0E947C
:101990003E040E945004882361F0E7FC0AC00093D3
:1019A0000905E0920A0581E090E090930F0580938D
:1019B0000E0500910905802F0E943E04813F91058C
:1019C00009F461C084F5803B910509F463C06CF4AF
:1019D0008039910509F45EC0803A910509F45AC036
:1019E0008038910509F0E0C055C0803D910509F4AB
:1019F0004AC02CF4803C910509F445C0D5C0803E16
:101A0000910509F447C0803F910509F0CDC020E45D
:101A100030E030930D0520930C051092070520EF60
:101A200020931A053DC0883F9105B9F044F4833FE7
:101A3000910549F17CF1863F910579F0B5C08A3F67
:101A400091050CF4B1C08D3F91053CF09C012E5FD7
:101A500031092230310508F0A7C090931705809313
:101A6000160510921505109218051092190581E0BF
:101A700080935A0510920F0510920E0510920D05D5
:101A800010920C05F6C0E2E0F0E0F0930D05E09353
:101A90000C0506C023E030E030930D0520930C05C3
:101AA00020910E0530910F0540910C0550910D05C8
:101AB000415051092417350708F4D4C090931705F5
:101AC00080931605802F8F708F5F8093150580910E
:101AD0000A05809318051092190510920F051092AF
:101AE0000E0510920D0510920C0521C0E7FE46C0B0
:101AF000C70199278D3F910554F48A3F91056CF4F5
:101B0000873F9105C1F0883F9105C1F506C0AC0142
:101B10004E5F51094230510588F590931705809327
:101B2000160510921805109219051092150581E0FE
:101B300080935A059EC080911A05803FA9F5C9017E
:101B40000196F901E052FB4F47EF42AF20EF30E042
:101B50003093170520931605809318059093190567
:101B60001092150581E080935A0510920F0510928E
:101B70000E0510920D0510920C0571C0809109059B
:101B8000F901E052FB4F803FD1F4E2AEE0900C054A
:101B9000F0900D05C70101972817390708F462C0B6
:101BA00000910905003F69F410920F0510920E058F
:101BB00010920D0510920C051092070582C0E1A647
:101BC000E5CF802F0E943E046C019093170580930F
:101BD00016050E945004882331F0802F8F708F5F8C
:101BE0008093150502C01092150580910A05809317
:101BF000180533E0E316F10419F480910B0501C0D8
:101C000080E08093190510920F0510920E05109236
:101C10000D0510920C0581E080935A0580EBC816E3
:101C2000D104D1F06CF4A0E9CA16D104A9F0B0EA4D
:101C3000CB16D10489F0E0E8CE16D10481F40CC0B3
:101C4000F0EDCF16D10441F020EEC216D10421F000
:101C500030ECC316D10419F4009307050AC01092A2
:101C6000070507C02F5F3F4F30930F0520930E05E8
:101C700028C080911605909117058039910529F4A7
:101C800080911905882309F4E0C38091160590918D
:101C900017059C01205831092136310508F0DCC3B5
:101CA00020911505211709F4D7C3112309F4D4C3D2
:101CB00000E040911405342F317040FD56C20111EF
:101CC0001BC38091A50181119BC18091A401882330
:101CD00029F08091A30181110E9461088091B901CE
:101CE0008111ADC18091010181111EC09091A201AD
:101CF00091111AC00E948C030091B5011091B60198
:101D00002091B7013091B801DC01CB01801B910B10
:101D1000A20BB30B8D329140A105B10508F47BC035
:101D2000E12CF12C13E048C01092A201811104C0F3
:101D3000E12CF12C13E031C08091A1018111F8CF89
:101D400010920101E12CF12C17E08091A001282FC5
:101D500030E02E153F0529F461E0F12FF81B8F2F9D
:101D600003C060E0812F8E190E949E072FEFE21AB8
:101D7000F20A34E0E316F10441F7DACF811105C02D
:101D800060E0812F8E190E949E07AFEFEA1AFA0ACF
:101D9000B4E0EB16F10409F4ADCF8091A001F70196
:101DA00094E0899FE00DF11D1124E057FE4F8081E2
:101DB000823021F761E0E5CF8091A001F70124E0B6
:101DC000829FE00DF11D1124E057FE4F808181308C
:101DD00059F480918F01882311F060E001C061E027
:101DE000812F8E190E949E073FEFE31AF30A84E0C9
:101DF000E816F10409F70E948C036093B501709313
:101E0000B6018093B7019093B80190918F0181E062
:101E1000892780938F010E948C030091B10110915A
:101E2000B2012091B3013091B401DC01CB01801BE0
:101E3000910BA20BB30BC397A105B10508F4F5C034
:101E40000E948C036093B1017093B2018093B3013F
:101E50009093B4018AE00E94E002892B09F448C003
:101E600081E08093000100E010E0E0908E01F090AE
:101E700000016E2D8F2D0E94BB0A8AE00E94E002B5
:101E80002091B001019771F4B301A201002E04C0AA
:101E9000440F551F661F771F0A94D2F7422B4093B9
:101EA000B0010EC0D301C201002E04C0880F991FDB
:101EB000AA1FBB1F0A94D2F7809582238093B0019A
:101EC000FF0CF09200010F5F1F4F0830110569F6FB
:101ED0006E2D8FEF0E94BB0A28EA822E21E0922EFF
:101EE00032ED232E312C00E010E0AA24A3941EC072
:101EF0001092B001F1CFC8010497049780F597E0E4
:101F0000F92EF01A80918D018093A001A1111FC0BC
:101F1000D401BC920F5F1F4FBFEF8B1A9B0AE6E004
:101F20002E1A31080830110509F47FC08091B001E4
:101F300090E0002E02C0959587950A94E2F7A82FAD
:101F4000A170BA2EF4018081A813D5CFE3CF8F15ED
:101F5000F9F290918C019F1508F075C3D9CF83E2F7
:101F6000C82ED12CC01AD10AE0903104F09032046E
:101F700080917A0190917B01E80EF91EE20CF31C2E
:101F800045E050E0BE016F5F7F4FC7010E94330AFA
:101F900041E050E0BE016A5F7F4FC70105960E9495
:101FA000330A8981877009F4B3CF83E0801B9E8157
:101FB000BB2081F0E091A00124E0E29FF001112418
:101FC000E80FF11DE458FE4F4081842F8A2580835D
:101FD00050E00FC091FD9CCFE091A00134E0E39F61
:101FE000F0011124E80FF11DE458FE4F108241E08A
:101FF00050E0BE016F5F7F4FC6010E94640488CF2E
:102000000E948C0328EE33E040E050E00E945F1411
:10201000672B682B692B29F481E08093A4018093BE
:10202000A3018091A401811103C00E943E0607C054
:102030008091A3018823C9F30E946108F6CF0E9412
:102040001C0275CC89E090E090937B0180937A012B
:1020500088A9A6E08A9FC001112409969093770170
:102060008093760129A9B4E02B9F800D911D112446
:10207000909375018093740185E691E00E94FA0ABD
:102080008EE691E00E94FA0AC0907401D09075012A
:102090000D2C000CEE08FF08F7FE2BC0E091430466
:1020A000F09144040190F081E02D6DE283E494E02E
:1020B000099522273327A9012C193D094E095F09EB
:1020C00019A28E010F5D1F4F9AE0C92ED12CE12C71
:1020D000F12CCA01B901A70196010E945F14605D4D
:1020E000F80162938F01211531054105510589F7EA
:1020F0001AC0A701960119A28E010F5D1F4F8AE039
:10210000C82ED12CE12CF12CCA01B901A7019601EE
:102110000E945F14605DD8016E938D012115310519
:102120004105510589F7C8010E94FA0A81E791E04B
:102130000E94FA0A609174017091750180EF93E03A
:102140000E94A0142FA530E0CB01261737070CF40E
:10215000C9018F3F910519F014F08FEF90E0809343
:102160008C0180E00E940B04D1CB842F8E7F09F478
:10217000A6CD8091160590911705BC016058710994
:102180006136710508F520911505211719F031E028
:10219000111130E0469550E04230510541F0433096
:1021A000510549F04130510509F089CD06C033236E
:1021B00009F485CD02C0311182CD4091190560919D
:1021C00018050E940C0B7BCDFC01E05FF109E031AA
:1021D000F10508F074CDEC5CFF4F0C94B414BC0115
:1021E00084E095E00E9423046ACD6091190570E0B7
:1021F000762F662780911805682B6134710510F0E1
:1022000060E470E021E04AE155E084E095E00E945E
:10221000CF0855CD109118058091040590910505C2
:10222000DC01ED91FC910190F081E02D63EF0995C7
:102230001F77612F70E080910405909105050E9441
:10224000C8083DCDE0901905B0E8EB9E700111245F
:1022500080911805E82A8091040590910505DC011C
:10226000ED91FC910190F081E02D62EF0995809154
:10227000040590910505DC01ED91FC91B7016F77A4
:1022800077270190F081E02D0995809104059091C8
:102290000505DC01ED91FC91B701660F672F661F04
:1022A000770B71956F7777270190F081E02D22C031
:1022B000809118058770B0E18B9FC00111241091A7
:1022C00019051F70182B8091040590910505DC01FC
:1022D000ED91FC910190F081E02D61EF09958091E5
:1022E000040590910505DC01ED91FC910190F081D0
:1022F000E02D612F0995E3CC80911605909117058B
:102300008039910539F0803F910539F08038910589
:1023100009F0D7CC0E94C607D4CC00911805909143
:10232000190530911C0520911D0580911E054091D5
:102330001B05493509F0C5CC343509F0C2CC283528
:1023400009F0BFCC813049F49091A1019111B9CC31
:102350008093A4018093A3016FC0853059F48091CC
:10236000A101882309F4ADCC81E08093A40180937E
:10237000A30161C0833009F0A4CC8091B90181111F
:1023800005C081E08093B9011092140510E0192B6B
:102390000134110510F000E410E020911F05809138
:1023A00078019091790140E2E42E45E0F42E680135
:1023B000289F4001299F900C1124B7E0CB16D1042F
:1023C00009F43EC15701F7016081C4016AAB0E9464
:1023D0001F146AA9861719F0C4010E942714C401AA
:1023E0000E941F14FFEFEF1AFF0A2FEF821A920AC2
:1023F00031E0C31AD108D5019C918917F1F281E02F
:102400008093A60180917801909179010796081731
:102410001907A8F41092B90181E08093A40185E026
:102420008093A30120E044E051E065E070E084E0A7
:1024300095E00E94CF0880E00E94200942CC81E014
:102440008093A4018093A3013CCC20E830E030933A
:1024500017052093160519CC813F9105B1F5E09140
:10246000F004F091F1040CC08B3F91050CF0C7C053
:10247000833F910509F0A4C0E091F404F091F504C4
:10248000309709F18091180509951DC0813D91058E
:102490000CF454C0803E910509F060C0E091EC045A
:1024A000F091ED04309779F0609119056F7780E82D
:1024B000689FB0011124809118058F77682B7052A6
:1024C00080911505099501E0F4CB823F91050CF050
:1024D00061C0803B9105B1F4E091E604F091E7041E
:1024E00007C08038910579F7E091E004F091E104AC
:1024F000309749F3409119056091180580911505B1
:102500000995E1CF813B910584F48039910529F447
:10251000E091E204F091E304EBCF803A910509F7F2
:10252000E091E404F091E504E3CF803D910509F0EA
:10253000ADCFE091EA04F091EB0407C0803C910537
:1025400011F6E091E804F091E904309709F4BBCF6B
:1025500060911805809115050995B5CF803F9105CB
:1025600009F0B1CFE091EE04F091EF04309709F457
:10257000AACF6091190570E0762F66278091180523
:10258000682B6134710510F060E470E08AE195E039
:10259000099599CF8A3F910509F066CFE091FA0439
:1025A000F091FB0408C0883F910509F08CCFE091C1
:1025B000F804F091F904309709F485CF099583CF99
:1025C000833F9105A4F4E091F204F091F304309775
:1025D00009F479CF809119058F77A0E88A9FC0010F
:1025E0001124209118052F77822B09956CCF863FF7
:1025F0009105C9F6E091F604F091F704DCCF8C3F29
:10260000910529F4E091FE04F091FF04D4CF8C3FB2
:1026100091052CF4E091FC04F091FD04CCCF8E3FA9
:10262000910529F4E0910005F0910105C4CF8F3F99
:10263000910509F048CFE0910205F0910305BBCF69
:102640001092A601DFCE8093A7018F2D0E940B046C
:10265000F092A001A09201015BCCCF93DF93A3E4A1
:10266000B4E013961C921E92129748EE53E060E07D
:1026700070E014964D935D936D937C93179787E567
:1026800091E011969C938E9385EC90E01D969C931F
:102690008E931C9784EC90E01F969C938E931E97CC
:1026A00080EC90E051969C938E93509781EC90E053
:1026B00053969C938E93529782EC90E055969C9300
:1026C0008E93549786EC90E057969C938E935697F2
:1026D00059961C9259975A961C925A975B961C923F
:1026E0005B975C961C925C9784E690E0909358030D
:1026F00080935703E0EEF4E0B5A3A4A316A217A2BB
:1027000010A615A614A617A616A68FEF9FEF91ABDD
:1027100080AB93AB82AB83E08093140515AA17AA14
:1027200016AA10AE11AE10925A0580E4AAE1B5E0E7
:10273000ED0119928A95E9F71182108213821282B3
:1027400015821482178216821186108613861286CD
:102750001586148617861686118A108A138A128A9D
:10276000158A148A178A168A118E108E138E128E6D
:10277000158E148E178E168E11A210A213A212A2FD
:1027800083E394E00E94C108C0913104D0913204E7
:1027900045E050E068E274E0CE010E94330A44E074
:1027A00050E06DE274E0CE0105960E94330A82E0AB
:1027B00090E09093DB038093DA0383E090E09093C2
:1027C000DD038093DC0384E090E09093DF0380934B
:1027D000DE0385E090E09093E1038093E00386E0E0
:1027E00090E09093E3038093E20387E090E090937E
:1027F000E5038093E40388E090E09093E7038093FF
:10280000E60380E1E3E3F1E0A8EFB3E001900D928D
:102810008A95E1F780E1E3E3F1E0A8E0B4E001901C
:102820000D928A95E1F780E1E3E4F1E0A8E1B4E0FC
:1028300001900D928A95E1F7DF91CF910895F99972
:10284000FECF92BD81BDF89A992780B50895262FB5
:10285000F999FECF1FBA92BD81BD20BD0FB6F89485
:10286000FA9AF99A0FBE01960895052E97FB1EF469
:1028700000940E944C1457FD07D00E945F1407FC7F
:1028800003D04EF40C944C145095409530952195FE
:102890003F4F4F4F5F4F089590958095709561958C
:1028A0007F4F8F4F9F4F08950E948114A59F900DD9
:1028B000B49F900DA49F800D911D11240895A1E255
:1028C0001A2EAA1BBB1BFD010DC0AA1FBB1FEE1FAA
:1028D000FF1FA217B307E407F50720F0A21BB30BF5
:1028E000E40BF50B661F771F881F991F1A9469F771
:1028F00060957095809590959B01AC01BD01CF01CD
:102900000895A29FB001B39FC001A39F700D811DC8
:102910001124911DB29F700D811D1124911D0895E8
:10292000DB018F939F930E945414BF91AF91A29F9C
:10293000800D911DA39F900DB29F900D11240895BD
:1029400097FB072E16F4009407D077FD09D00E945C
:10295000BA1407FC05D03EF4909581959F4F0895D9
:10296000709561957F4F0895EE0FFF1F0590F491CC
:10297000E02D0994AA1BBB1B51E107C0AA1FBB1F76
:10298000A617B70710F0A61BB70B881F991F5A95FB
:10299000A9F780959095BC01CD01089581E090E064
:0A29A000F8940C94D314F894FFCFC0
:1029AA000101010159545804005954580600595458
:1029BA0058020008090A0B000102030C0D0E0F044D
:1029CA0005060718191A1B101112131C1D1E1F14B5
:1029DA0015161700070106020503040F0B0E0A0D50
:1029EA00090C0807000603050204010F080E0B0D67
:1029FA000A0C0900000000B3011C014B01FA017C1A
:102A0A00015A016E0142616E6B206C656E003A20BC
:042A1A00000D0A00A1
:107E0000112484B714BE81FFF0D085E080938100F7
:107E100082E08093C00088E18093C10086E0809377
:107E2000C20080E18093C4008EE0C9D0259A86E02C
:107E300020E33CEF91E0309385002093840096BBD3
:107E4000B09BFECF1D9AA8958150A9F7CC24DD24C4
:107E500088248394B5E0AB2EA1E19A2EF3E0BF2EE7
:107E6000A2D0813461F49FD0082FAFD0023811F036
:107E7000013811F484E001C083E08DD089C08234E0
:107E800011F484E103C0853419F485E0A6D080C0E4
:107E9000853579F488D0E82EFF2485D0082F10E0AE
:107EA000102F00270E291F29000F111F8ED06801E7
:107EB0006FC0863521F484E090D080E0DECF843638
:107EC00009F040C070D06FD0082F6DD080E0C81688
:107ED00080E7D80618F4F601B7BEE895C0E0D1E017
:107EE00062D089930C17E1F7F0E0CF16F0E7DF06D8
:107EF00018F0F601B7BEE89568D007B600FCFDCFD4
:107F0000A601A0E0B1E02C9130E011968C91119780
:107F100090E0982F8827822B932B1296FA010C0160
:107F200087BEE89511244E5F5F4FF1E0A038BF0790
:107F300051F7F601A7BEE89507B600FCFDCF97BE46
:107F4000E89526C08437B1F42ED02DD0F82E2BD052
:107F50003CD0F601EF2C8F010F5F1F4F84911BD097
:107F6000EA94F801C1F70894C11CD11CFA94CF0C13
:107F7000D11C0EC0853739F428D08EE10CD085E9AC
:107F80000AD08FE07ACF813511F488E018D01DD067
:107F900080E101D065CF982F8091C00085FFFCCF94
:107FA0009093C60008958091C00087FFFCCF809118
:107FB000C00084FD01C0A8958091C6000895E0E648
:107FC000F0E098E1908380830895EDDF803219F02E
:107FD00088E0F5DFFFCF84E1DECF1F93182FE3DFCA
:107FE0001150E9F7F2DF1F91089580E0E8DFEE27F6
:047FF000FF270994CA
:027FFE00040479
:0400000300007E007B
:00000001FF
