:100000000C94F2000C941A010C941A010C941A012D
:100010000C941A010C941A010C941A010C94CF033D
:100020000C941A010C941A010C941A010C941A01E4
:100030000C941A010C941A010C941A010C941A01D4
:100040000C9485030C941A010C949B020C94750279
:100050000C941A010C941A010C941A010C941A01B4
:100060000C941A010C941A01C2102511EF10D7102C
:100070002C0E2C0EBC102C0EBC102C0EBC10BC1068
:10008000BC102C0EBC10BC100000010002000300CC
:100090000400050006000700080009000A000B0024
:1000A0000C000D000E000F001000110012001300D4
:1000B00014001500170018001A001B001D001F0077
:1000C00021002300260028002B002D0030003300E3
:1000D00037003A003E00420046004B004F005500FA
:1000E0005A00600066006C0073007F0080008B0087
:1000F00094009D00A800B200BE00CA00E100FE000E
:10010000FF001301250138014B01610177018F01C7
:10011000A901C401E101FF010002280268028F0267
:10012000B902E602150347037D03B603FF032F045C
:100130007F04BF040F055F05BF050F067F06DF06BE
:100140004F07FF074F08CF085F09FF099F0A4F0BB2
:100150000F0CCF0C9F0D7F0E6F0FFF0F6F118F12C3
:10016000BF13FF145F16BF174F19DF1A9F1C6F1EB6
:10017000FF1F6F22AF2401277F291F2CEF2EEF31A5
:100180001F358F381F3CFF3F000000002400270070
:100190002A0000000000250028002B0000000000BD
:1001A00023002600290004040404040404040202B9
:1001B00002020202030303030303010204081020E6
:1001C00040800102040810200102040810200000F1
:1001D0000008000201000003040700000000000006
:1001E0000000FA1211241FBECFEFD8E0DEBFCDBF52
:1001F00011E0A0E0B1E0ECE5F9E202C005900D925B
:10020000A237B107D9F725E0A2E7B1E001C01D92FE
:10021000AF35B207E1F710E0C2EFD0E004C021979C
:10022000FE010E948D14C13FD107C9F70E943C0B0B
:100230000C94AC140C940000CF92DF92EF92FF92DA
:100240000F931F93CF93DF936C017A018B01C0E072
:10025000D0E0CE15DF0589F0D8016D918D01D60172
:10026000ED91FC910190F081E02DC6010995892B5B
:1002700011F47E0102C02196ECCFC701DF91CF912E
:100280001F910F91FF90EF90DF90CF900895FC01A8
:10029000918D828D981761F0828DDF01A80FB11DBD
:1002A0005D968C91928D9F5F9F73928F90E00895E1
:1002B0008FEF9FEF0895FC01918D828D981731F09B
:1002C000828DE80FF11D858D90E008958FEF9FEFEF
:1002D0000895FC01918D228D892F90E0805C9F4FC5
:1002E000821B91098F739927089585E494E00E94F9
:1002F000690121E0892B09F420E0822F0895FC0197
:10030000848DDF01A80FB11DA35ABF4F2C91848D9E
:1003100090E001968F739927848FA689B7892C93D3
:10032000A089B1898C9180648C93938D848D98136E
:1003300006C00288F389E02D80818F7D8083089537
:10034000EF92FF920F931F93CF93DF93EC0181E025
:10035000888F9B8D8C8D981305C0E889F9898081E1
:1003600085FD24C0F62E0B8D10E00F5F1F4F0F731D
:100370001127E02E8C8DE8120CC00FB607FCFACFC7
:10038000E889F989808185FFF5CFCE010E947F0140
:10039000F1CF8B8DFE01E80FF11DE35AFF4FF08284
:1003A0000B8FEA89FB898081806207C0EE89FF8913
:1003B0006083E889F98980818064808381E090E0AE
:1003C000DF91CF911F910F91FF90EF900895CF9300
:1003D000DF93EC01888D8823C9F0EA89FB8980814D
:1003E00085FD05C0A889B9898C9186FD0FC00FB61F
:1003F00007FCF5CF808185FFF2CFA889B9898C9160
:1004000085FFEDCFCE010E947F01E7CFDF91CF9135
:10041000089580E090E0892B29F00E9475018111F8
:100420000C9400000895833081F028F4813099F015
:100430008230A1F008958730A9F08830B9F0843077
:10044000D1F4809180008F7D03C0809180008F77F0
:1004500080938000089584B58F7702C084B58F7D26
:1004600084BD08958091B0008F7703C08091B00063
:100470008F7D8093B00008950F93FA01002319F047
:10048000E65DFC4F02C0E65FFC4F3081332391F004
:100490006817790708F1621B710986179707F8F446
:1004A000FA01002319F0E65DFC4F02C0E65FFC4F45
:1004B000108212C08617970778F0620F711D6817B7
:1004C000790768F4FA01002319F0E65DFC4F02C0D9
:1004D000E65FFC4F81E0808380E090E002C081E035
:1004E00090E00F9108950E94A7141F920F920FB6EB
:1004F0000F9211242F933F934F935F936F937F93AA
:100500008F939F93AF93BF93EF93FF9385E494E012
:100510000E947F01FF91EF91BF91AF919F918F91C9
:100520007F916F915F914F913F912F910F900FBEEF
:100530000F901F9018951F920F920FB60F921124D3
:100540002F938F939F93EF93FF93E0915504F09136
:1005500056048081E0915B04F0915C0482FD12C03E
:10056000908180915E048F5F8F7320915F0482176A
:1005700051F0E0915E04F0E0EB5BFB4F958F8093D0
:100580005E0401C08081FF91EF919F918F912F9127
:100590000F900FBE0F901F901895CF93DF93282FC9
:1005A00030E0F901E253FE4F8491F901E654FE4F29
:1005B000D491F901EA55FE4FC491CC2391F08111F9
:1005C0000E941302EC2FF0E0EE0FFF1FE456FE4FE7
:1005D000A591B491EC91ED2381E090E021F480E0CD
:1005E00002C080E090E0DF91CF9108951F93CF93F8
:1005F000DF93282F30E0F901E253FE4F8491F90197
:10060000E654FE4FD491F901EA55FE4FC491CC2334
:10061000C9F0162F81110E941302EC2FF0E0EE0FAB
:10062000FF1FEE56FE4FA591B4918FB7F8941111AC
:1006300005C09C91ED2FE095E92302C0EC91ED2BD4
:10064000EC938FBFDF91CF911F910895CF93DF93EC
:1006500090E0FC01E654FE4F2491FC01EA55FE4F68
:100660008491882361F190E0880F991FFC01E8577D
:10067000FE4FC591D491FC01EE56FE4FA591B49169
:10068000611109C09FB7F8948881209582238883DF
:10069000EC912E230BC0623061F49FB7F89438813F
:1006A000822F809583238883EC912E2B2C939FBFE0
:1006B00006C08FB7F894E8812E2B28838FBFDF9177
:1006C000CF9108958E3008F08E50877080648093AB
:1006D0007C0080917A00806480937A0080917A0017
:1006E00086FDFCCF809178002091790090E0922BDC
:1006F00008952FB7F894609151037091520380913F
:100700005303909154032FBF08951F920F920FB679
:100710000F9211242F933F938F939F93AF93BF9387
:100720008091510390915203A0915303B0915403CF
:100730003091500323E0230F2D3720F40196A11DA3
:10074000B11D05C026E8230F0296A11DB11D2093FF
:1007500050038093510390935203A0935303B0939B
:10076000540380914C0390914D03A0914E03B0919E
:100770004F030196A11DB11D80934C0390934D032F
:10078000A0934E03B0934F03BF91AF919F918F9170
:100790003F912F910F900FBE0F901F9018951F92B1
:1007A0000F920FB60F9211242F933F934F935F93A5
:1007B0006F937F938F939F93AF93BF93EF93FF9329
:1007C000E0914A03F0914B03309709F00995FF91AE
:1007D000EF91BF91AF919F918F917F916F915F91B9
:1007E0004F913F912F910F900FBE0F901F90189532
:1007F00090918A01891710F08FEF890F4091720153
:1008000050917301849F9001859F300D1124205FCA
:100810003F4F309334042093330480938B01089529
:100820006D3F71053CF46A3F710554F4683F7105F2
:1008300089F406C09B012E5F31092230310550F446
:10084000DC018D919C91DC01ED91FC910190F08196
:10085000E02D0994089587FF0DC09CE0980F923019
:1008600048F0982F9B7F993F29F0803F08F4807FC4
:1008700090E0089580E090E008959C018F7C80389E
:10088000910561F0203D310549F081E0203E3105C0
:1008900039F0203C310521F080E0089581E0089591
:1008A00008952F923F924F925F926F927F928F9214
:1008B0009F92AF92BF92CF92DF92EF92FF920F93EF
:1008C0001F93CF93DF9300D000D01F92CDB7DEB738
:1008D0005C016B015D834C83FB01F081FB831F2F67
:1008E0001770FB01858181708A83F281F983FB0196
:1008F0004380348080919F018111B2C0FA81FF232F
:1009000009F4A6C04230510548F07A014E3F5340E9
:1009100040F0ADEFEA2EA3E0FA2E03C0F2E0EF2E96
:10092000F12C4501880C991CC40186539D4F3C0154
:10093000FC016081718101E027E0A501C7010E94EF
:100940003C02892B09F06FC1F301F182E08297012B
:1009500040E050E0133009F04CC0E42DF0E0EE0F21
:10096000FF1FE857FF4F85919491E32DF0E0EE0FC4
:10097000FF1FE857FF4F659174913B01681A790A90
:100980001C01990F440855082250310941095109A9
:10099000CB01770FAA0BBB0BBC01CD016219730908
:1009A000840995090E9469142BEF33E040E050E080
:1009B0000E940E14DA01C901820D931DA41DB51DFC
:1009C0007C01FFEF6F16F3E07F06E4F5A30177FEED
:1009D00003C0519541955109F401E657FD4F6081DF
:1009E000718100E0252FA5010E943C02892B51F165
:1009F0001AC1512C612C712C225031094109510925
:100A0000832D90E0A0E0B0E0BC01CD016419750930
:100A1000860997090E9469142BEF33E040E050E00B
:100A20000E940E14DA01C901840D951DA61DB71D83
:100A30007C01F401E657FD4F80819181E816F906AB
:100A400009F4F1C0F401E657FD4FF182E08208C0DD
:100A50008C819D81892B11F0E42C01C0E32CF12CB9
:100A600080919F01882309F45AC09A81992309F43F
:100A700049C0EC81FD81E230F10558F04F01FEEFF5
:100A80008F16F3E09F0640F03DEF832E33E0932E68
:100A900003C022E0822E912C7501EE0CFF1CC701D1
:100AA00086539D4F6C01FC016081718101E027E05C
:100AB000A501C4010E943C02892B09F0B4C0F601D3
:100AC00091828082C401A0E0B0E09C01AD0122507F
:100AD000310941095109AFE7B0E00E942D142BEF15
:100AE00033E040E050E00E940E14B901F701E657F0
:100AF000FD4F808191812817390709F494C0318313
:100B0000208309C08C819D81892B19F46FE770E0E7
:100B100002C060E070E021E0462F6A2D43C08B8167
:100B20008877869586958695BB24B394B80E133046
:100B3000C1F048F4113079F0123009F069C02B2D62
:100B40004E2D69812FC0153009F43FC070F1163069
:100B500009F448C05DC02B2D4E2D698180E990E0DD
:100B600055C02B2DF601418165E680EB90E00E9497
:100B7000D90A2B2DF601428164E680EB90E00E94B9
:100B8000D90AA701440F452F441F550B51954F77A4
:100B90002B2D66E080EB90E00E94D90A4E2D4F7716
:100BA0002B2D66E280EB90E031C080919E01EB2D11
:100BB000F0E020E1829FE00DF11D1124E75BFD4F85
:100BC0006081662329F161501CC08A81811106C0B1
:100BD000EF28F1F02B2D40E0698116C02B2D40E06D
:100BE0006E2D12C080919E01EB2DF0E090E1899F67
:100BF000E00DF11D1124E75BFD4F60816F3740F47C
:100C00006F5F60832B2D40E080EC90E00E94D90A5A
:100C10008091A201811107C081E08093A20180939D
:100C200049028093A1010F900F900F900F900F90A9
:100C3000DF91CF911F910F91FF90EF90DF90CF90B8
:100C4000BF90AF909F908F907F906F905F904F90EC
:100C50003F902F9008956F927F929F92AF92BF9294
:100C6000CF92DF92EF92FF920F931F93CF93DF9378
:100C7000CDB7DEB729970FB6F894DEBF0FBECDBF54
:100C800073E1C72E71E0D72EA12CB12C9924939437
:100C9000C601835191407C018091C60190E0049788
:100CA000E816F9060CF00BC10091330410913404DE
:100CB0008091780190917901080F191F0A0D1B1D71
:100CC00045E050E0BE016F5F7F4FC8010E940D0AF2
:100CD00041E050E0BE016A5F7F4FC80105960E9467
:100CE0000D0AF60101916F0121E0003108F420E0C6
:100CF000209348020F70009347028981877009F49E
:100D0000DAC08E8110E0622E712C80FF4BC0B801DA
:100D1000C3010E942B0A54E0660C771C5A95E1F738
:100D20009301200F311FF901EE0FFF1FE85AFC4F0E
:100D3000918380834091030141112AC0220F331F08
:100D4000F901E856FC4F208131818217930701F1A8
:100D5000AC01BE016F5F7F4FC7010E9451048091BB
:100D6000480220914702F0E18F9FC0011124820FB9
:100D7000911DDC01AA0FBB1FA856BC4F880F991FFD
:100D8000FC01E85AFC4F808191818D939C9393C024
:100D9000600E711EF301EE0FFF1FE856FC4F9183AA
:100DA000808389C0C801885A9C4FFC01211103C06F
:100DB000EE55FF4F02C0EE54FF4F808190E03BB1F3
:100DC000337C3BB93BB1880F991F880F991F832B48
:100DD0008BB960E0213051F08EE00E94260361E083
:100DE0008EE00E94F6028091E00309C08FE00E942D
:100DF000260361E08FE00E94F6028091E2030E94E8
:100E0000CD02F30124E0EE0FFF1F2A95E1F7E00F7A
:100E1000F11FEE0FFF1FE85AFC4F918380834E8134
:100E2000909148028091470220E1929FF0011124A5
:100E3000E80FF11DDF01AA0FBB1FA85ABC4F2D916F
:100E40003C91EE0FFF1FE856FC4F60817181261721
:100E5000370789F1318320835091030151112BC051
:100E600050E1959F800D1124232B81F4E0919E0188
:100E700090E2E99FF0011124E80FF11DE953FE4FC4
:100E80004081842F8925808350E00FC041FD13C02D
:100E9000E0919E0120E2E29FF0011124E80FF11D94
:100EA000E953FE4F108241E050E0BE016F5F7F4F7B
:100EB000C7010E94510436E0A30EB11CE9CE809117
:100EC000030181111092030129960FB6F894DEBF39
:100ED0000FBECDBFDF91CF911F910F91FF90EF908B
:100EE000DF90CF90BF90AF909F907F906F900895CC
:100EF000382F20918C01662379F041E050E060E0CA
:100F000070E004C0440F551F661F771F8A95D2F703
:100F1000422B40938C010FC081E090E0A0E0B0E054
:100F200004C0880F991FAA1FBB1F3A95D2F780955E
:100F3000822380938C0160918C018FEF0C94880A3E
:100F4000BF92CF92DF92EF92FF920F931F93CF93B6
:100F5000DF9300D000D0CDB7DEB7E0901A05F09057
:100F60001B05B090170580919F01811126C0C12CEF
:100F7000D12C00E010E020913304309134048091B2
:100F8000740190917501820F931F44E050E0BE01FF
:100F90006F5F7F4F8C0D9D1D0E940D0A99818A8184
:100FA0002B813C81E81241C0892F887786958695F0
:100FB00086958F5FB81239C00AC0FF2011F061E03A
:100FC00001C060E083E08E190E94780746C040911E
:100FD00018055091190540395105A9F480919E01D9
:100FE00090FF2EC0F21660F13F1550F194E0899FFA
:100FF000000D111D1124F801E257FE4F81E080839E
:1010000010928D010EC04038510559F480919E0117
:1010100094E0899F000D111D1124F801E257FE4F45
:10102000108281E08093A00118C00F5F1F4F84E001
:10103000C80ED11C90E1C916D10409F09CCF0DC097
:10104000FF2031F394E0899F000D111D1124F80158
:10105000E257FE4F82E08083E4CF0F900F900F9015
:101060000F90DF91CF911F910F91FF90EF90DF9044
:10107000CF90BF9008950F931F93CF93DF938091EC
:101080000201882361F0109202010E9479036093AB
:10109000C2017093C3018093C4019093C5018091F4
:1010A0004902811103C0C4E6D0E002C0CFE0D0E025
:1010B0000E9479030091C2011091C3012091C401E3
:1010C0003091C501AB01BC01401B510B620B730B8E
:1010D000CE01A0E0B0E084179507A607B70730F56A
:1010E0000E9479036093C2017093C3018093C4018D
:1010F0009093C501C091C10181E0C8276C2F8DE09C
:101100000E94F602C093C101C11105C08091A101E6
:1011100081508093A1018091A101811107C010929B
:10112000A2011092490281E080930201DF91CF91E8
:101130001F910F91089540E150E0BC0180E090E0E4
:101140000C940D0ADC01ED91FC910190F081E02DF1
:101150000994AF92BF92CF92DF92EF92FF921F93CA
:10116000CF93DF9300D0CDB7DEB77C016B0191E068
:10117000122F192759F060EF70E0D7018D919C91E3
:1011800049835A830E94A2085A8149815A01C40E98
:10119000D51EAC14BD0471F0F70180819181D50199
:1011A0006D915D01DC01ED91FC910190F081E02DEC
:1011B0000995EFCF112391F067EF70E0F70180817F
:1011C00091810F900F90DF91CF911F91FF90EF9041
:1011D000DF90CF90BF90AF900C94A2080F900F902B
:1011E000DF91CF911F91FF90EF90DF90CF90BF9054
:1011F000AF9008958F929F92AF92BF92CF92DF925D
:10120000EF92FF920F931F93CF93DF93CDB7DEB78B
:1012100060970FB6F894DEBF0FBECDBF182F61E008
:101220008DE00E94260360E08DE00E94F602CE0170
:1012300001960E949B0890E1FE013196A5E3B4E07F
:1012400001900D929A95E1F710929E0180E00E9424
:10125000F80310939F0181E0809301018093A00126
:101260008093030180913504893509F0CCC08091C9
:101270003604843509F0C7C080913704883509F0F9
:10128000C2C089E390E0909377018093760160E09B
:101290008AE00E94260360E08FEF0E94880A8AE0BD
:1012A0000E94CD028093C00180914104982F9170DB
:1012B0009093BF01909142049093BE01909143049A
:1012C0009093C601909144049093BD0186958170DE
:1012D0008093BC01882321F083E08093160502C02F
:1012E0001092160580919F0120E0882319F04EE0AE
:1012F00051E002C049E051E065E070E086E095E031
:101300000E94A90810924802F090480281E08F15CF
:1013100090F110924702AF2CB12C650144E0CC0C47
:10132000DD1C4A95E1F7E09047028FE08E15F8F05A
:101330008E2C912CB401C5010E942B0A8601080D48
:10134000191DF801EE0FFF1FE85AFC4F91838083AF
:10135000B401C5010E942B0A000F111FF801E856C5
:10136000FC4F91838083E394E0924702DCCFF394B7
:10137000F0924802C9CF4AE452E067EC71E080E0A5
:1013800090E020E030E0FB01E20FF31F10822F5FBE
:101390003F4F20323105B9F7FC01E658FE4F10826D
:1013A000118212821382FC01E257FE4F10821182D9
:1013B0001282138220E030E0FA01E20FF31F108264
:1013C0002F5F3F4F20313105B9F7405F5F4F0496E3
:1013D000605E7F4F80319105A1F681E08093A0018E
:1013E00060960FB6F894DEBF0FBECDBFDF91CF91F0
:1013F0001F910F91FF90EF90DF90CF90BF90AF9033
:101400009F908F90089581E08093A30189E390E0FD
:10141000909377018093760175CFEF92FF920F93AF
:101420001F93CF93DF938B01040F151FEB017C01FA
:10143000E61AF70AC017D10739F0C7018C0F9D1FB4
:101440000E94F8138993F6CFDF91CF911F910F91EE
:10145000FF90EF90089560317105A0F5009721F499
:10146000FB01E650FC4F06C08130910559F5FB01A8
:10147000E65FFB4F208130E04BB1437C4BB94BB171
:10148000220F331F220F331F242B2BB9009749F053
:10149000019799F48091E2030E9462038091E20334
:1014A00006C08091E0030E9462038091E0030E94E5
:1014B000620390935E0580935D0580915D05909138
:1014C0005E0508958FEF9FEF0895CF93DF9360E05F
:1014D0008091E6030E94F602CAEFD3E060E08091BB
:1014E000E8030E94F6026A918091E4030E94F602EA
:1014F00061E08091E8030E94F60283E0CA3ED807CB
:1015000069F761E08091E603DF91CF910C94F602D8
:10151000CF93DF9320E030E090E0A7E0B0E0F90166
:10152000E65EFB4FE081F0E0E651FC4FAD01421B6F
:10153000530BEC0102C0D595C7954A95E2F7AE0171
:10154000417040832F5F3F4F2830310541F788E0DD
:1015500090E070E04FE050E0FC01E65EFB4FE08180
:10156000F0E0E651FC4F9A01281B390BDB0102C069
:10157000B595A7952A95E2F79D01217020830196E4
:101580008031910549F7DF91CF910C94650A00975E
:1015900069F0FC0101900020E9F73197AF01481B89
:1015A000590BBC0185E494E00C941C0180E090E0B0
:1015B0000895EF92FF921F93CF93DF931F92CDB7C1
:1015C000DEB77C01162F2150203108F04EC080E894
:1015D000E816F1040CF449C0A1EEEA16F104ACF5EA
:1015E0008091060590910705DC01ED91FC916E2D2F
:1015F000622B0190F081E02D4983099580910605C9
:1016000090910705DC01ED91FC91612F6F770190BE
:10161000F081E02D0995E894E4F84981B0ECEB16EF
:10162000F10419F18091060590910705DC01ED9117
:10163000FC91642F6F770190F081E02D0F90DF9186
:10164000CF911F91FF90EF900994C701885F910996
:10165000089758F4B70186E095E00F90DF91CF919D
:101660001F91FF90EF900C9410040F90DF91CF9199
:101670001F91FF90EF900895CF93DF93CDB7DEB722
:10168000E2970FB6F894DEBF0FBECDBF789484B555
:10169000826084BD84B5816084BD85B5826085BD6E
:1016A00085B5816085BD80916E00816080936E00FC
:1016B00010928100809181008260809381008091EE
:1016C000810081608093810080918000816080939F
:1016D00080008091B10084608093B1008091B0005F
:1016E00081608093B00080917A00846080937A005A
:1016F00080917A00826080937A0080917A00816084
:1017000080937A0080917A00806880937A001092AA
:10171000C100E0910605F0910705A089B18982E03A
:101720008C93A485B5851C92A685B7858FE38C9391
:10173000108EA489B58986E08C93A289B3898C9197
:1017400080618C93A289B3898C9188608C93A289E3
:10175000B3898C9180688C930288F389E02D808115
:101760008F7D80831092080510920A05109209055A
:10177000109211051092100510920F0510920E058F
:101780008FEF9FEF909313058093120590931505AB
:101790008093140510925C0510921905109218059B
:1017A0001092170510921A0510921B0580911605CC
:1017B0008170826081608093160561E08091E6030C
:1017C0000E94260361E08091E4030E94260361E009
:1017D0008091E8030E94260361E08091D8030E9473
:1017E000260361E08091DA030E94260361E0809184
:1017F000DC030E94260361E08091DE030E94260341
:10180000E8E5F3E01192119217AE16AE23E0E83747
:10181000F207C1F7E8E7F3E01192119217AE16AEA6
:1018200033E0E839F307C1F7EAEEF3E0119283E021
:10183000EA3FF807D9F780917A00887F80937A0091
:1018400080917A00846080937A00EAEFF3E012924C
:1018500093E0EA3EF907D9F70E94650ACE01829625
:101860000E949B088AA1893551F48BA1843539F4F3
:101870008CA1883521F48DA1813009F4B0C3109278
:10188000340410923304109273011092720110927A
:1018900075011092740110927901109278011092E2
:1018A0008B0110928A010E9479036093B3017093B7
:1018B000B4018093B5019093B60180E00E94FA08CC
:1018C000412C512C3201439410910805113108F03C
:1018D000C5C18091060590910705DC01ED91FC9151
:1018E0000480F581E02D0995892B09F4B7C1809119
:1018F000060590910705DC01ED91FC910680F781CA
:10190000E02D09957C018B7F893F09F4A7C12091C7
:101910001005309111052115310509F0B4C0E09290
:101920000B0500910905802F0E942B040E943D04A5
:10193000882361F0E7FC0AC000930B05E0920C05D8
:1019400081E090E0909311058093100500910B05C4
:10195000802F0E942B04813F910509F461C084F51A
:10196000803B910509F463C06CF48039910509F45A
:101970005EC0803A910509F45AC08038910509F09B
:10198000E0C055C0803D910509F44AC02CF4803C6C
:10199000910509F445C0D5C0803E910509F447C0C2
:1019A000803F910509F0CDC020E430E030930F0571
:1019B00020930E051092090520EF20931C053DC0D1
:1019C000883F9105B9F044F4833F910549F17CF1DA
:1019D000863F910579F0B5C08A3F91050CF4B1C0FE
:1019E0008D3F91053CF09C012E5F3109223031057D
:1019F00008F0A7C090931905809318051092170559
:101A000010921A0510921B0581E080935C051092DC
:101A100011051092100510920F0510920E05F6C0D8
:101A2000E2E0F0E0F0930F05E0930E0506C023E03E
:101A300030E030930F0520930E0520911005309172
:101A4000110540910E0550910F0541505109241781
:101A5000350708F4D4C09093190580931805802F9A
:101A60008F708F5F8093170580910C0580931A0506
:101A700010921B05109211051092100510920F057F
:101A800010920E0521C0E7FE46C0C70199278D3F81
:101A9000910554F48A3F91056CF4873F9105C1F09C
:101AA000883F9105C1F506C0AC014E5F5109423037
:101AB000510588F5909319058093180510921A0521
:101AC00010921B051092170581E080935C059EC063
:101AD00080911C05803FA9F5C9010196F901EE51DD
:101AE000FB4F47EF42AF20EF30E0309319052093D2
:101AF000180580931A0590931B051092170581E035
:101B000080935C05109211051092100510920F053C
:101B100010920E0571C080910B05F901EE51FB4F3B
:101B2000803FD1F4E2AEE0900E05F0900F05C701C2
:101B300001972817390708F462C000910B05003F90
:101B400069F4109211051092100510920F05109271
:101B50000E051092090582C0E1A6E5CF802F0E94F4
:101B60002B046C0190931905809318050E943D0485
:101B7000882331F0802F8F708F5F8093170502C00C
:101B80001092170580910C0580931A0533E0E31637
:101B9000F10419F480910D0501C080E080931B05CC
:101BA000109211051092100510920F0510920E055B
:101BB00081E080935C0580EBC816D104D1F06CF411
:101BC000A0E9CA16D104A9F0B0EACB16D10489F075
:101BD000E0E8CE16D10481F40CC0F0EDCF16D104AC
:101BE00041F020EEC216D10421F030ECC316D1042E
:101BF00019F4009309050AC01092090507C02F5F68
:101C00003F4F309311052093100528C0809118058F
:101C1000909119058039910529F480911B0588233D
:101C200009F4E0C380911805909119059C01205892
:101C300031092136310508F0DCC320911705211741
:101C400009F4D7C3112309F4D4C300E04091160569
:101C5000342F317040FD56C201111BC38091A30186
:101C600081119BC18091A201882329F08091A1015B
:101C700081110E943B088091B7018111ADC1809113
:101C8000010181111EC09091A00191111AC00E9402
:101C900079030091B3011091B4012091B501309105
:101CA000B601DC01CB01801B910BA20BB30B8D3273
:101CB0009140A105B10508F47BC0E12CF12C13E0A3
:101CC00048C01092A001811104C0E12CF12C13E056
:101CD00031C080919F018111F8CF10920101E12C58
:101CE000F12C17E080919E01282F30E02E153F0542
:101CF00029F461E0F12FF81B8F2F03C060E0812FE2
:101D00008E190E9478072FEFE21AF20A34E0E316E8
:101D1000F10441F7DACF811105C060E0812F8E19FF
:101D20000E947807AFEFEA1AFA0AB4E0EB16F10462
:101D300009F4ADCF80919E01F70194E0899FE00DF9
:101D4000F11D1124E257FE4F8081823021F761E0BE
:101D5000E5CF80919E01F70124E0829FE00DF11D07
:101D60001124E257FE4F8081813059F480918D011A
:101D7000882311F060E001C061E0812F8E190E947C
:101D800078073FEFE31AF30A84E0E816F10409F755
:101D90000E9479036093B3017093B4018093B501FD
:101DA0009093B60190918D0181E0892780938D01F8
:101DB0000E9479030091AF011091B0012091B1010F
:101DC0003091B201DC01CB01801B910BA20BB30B54
:101DD000C397A105B10508F4F5C00E94790360938B
:101DE000AF017093B0018093B1019093B2018AE08A
:101DF0000E94CD02892B09F448C081E08093000144
:101E000000E010E0E0908C01F09000016E2D8F2D2D
:101E10000E94880A8AE00E94CD022091AE010197BB
:101E200071F4B301A201002E04C0440F551F661FB8
:101E3000771F0A94D2F7422B4093AE010EC0D30114
:101E4000C201002E04C0880F991FAA1FBB1F0A944D
:101E5000D2F7809582238093AE01FF0CF0920001AF
:101E60000F5F1F4F0830110569F66E2D8FEF0E942E
:101E7000880A26EA822E21E0922E32ED232E312C82
:101E800000E010E0AA24A3941EC01092AE01F1CF8E
:101E9000C8010497049780F597E0F92EF01A809115
:101EA0008B0180939E01A1111FC0D401BC920F5FD2
:101EB0001F4FBFEF8B1A9B0AE6E02E1A310808303D
:101EC000110509F47FC08091AE0190E0002E02C0A0
:101ED000959587950A94E2F7A82FA170BA2EF40180
:101EE0008081A813D5CFE3CF8F15F9F290918A01A5
:101EF0009F1508F075C3D9CF83E2C82ED12CC01A24
:101F0000D10AE0903304F0903404809178019091EC
:101F10007901E80EF91EE20CF31C45E050E0BE0129
:101F20006F5F7F4FC7010E940D0A41E050E0BE0184
:101F30006A5F7F4FC70105960E940D0A89818770ED
:101F400009F4B3CF83E0801B9E81BB2081F0E09138
:101F50009E0124E0E29FF0011124E80FF11DE658F4
:101F6000FE4F4081842F8A25808350E00FC091FD71
:101F70009CCFE0919E0134E0E39FF0011124E80F33
:101F8000F11DE658FE4F108241E050E0BE016F5F48
:101F90007F4FC6010E94510488CF0E94790328EE2A
:101FA00033E040E050E00E943814672B682B692B27
:101FB00029F481E08093A2018093A1018091A20184
:101FC000811103C00E942B0607C08091A1018823C4
:101FD000C9F30E943B08F6CF0E94090275CC89E044
:101FE00090E0909379018093780188A9A6E08A9F78
:101FF000C00111240996909375018093740129A959
:10200000B4E02B9F800D911D112490937301809358
:10201000720183E691E00E94C70A8CE691E00E947B
:10202000C70AC0907201D09073010D2C000CEE080D
:10203000FF08F7FE2BC0E0914504F09146040190A3
:10204000F081E02D6DE285E494E0099522273327A5
:10205000A9012C193D094E095F0919A28E010F5DD6
:102060001F4F9AE0C92ED12CE12CF12CCA01B901E5
:10207000A70196010E943814605DF80162938F01F8
:10208000211531054105510589F71AC0A7019601AF
:1020900019A28E010F5D1F4F8AE0C82ED12CE12CB2
:1020A000F12CCA01B901A70196010E943814605DA4
:1020B000D8016E938D01211531054105510589F730
:1020C000C8010E94C70A8FE691E00E94C70A60918A
:1020D00072017091730180EF93E00E9479142FA533
:1020E00030E0CB01261737070CF4C9018F3F91056B
:1020F00019F014F08FEF90E080938A0180E00E9445
:10210000F803D1CB842F8E7F09F4A6CD80911805DA
:1021100090911905BC01605871096136710508F587
:1021200020911705211719F031E0111130E0469583
:1021300050E04230510541F04330510549F0413003
:10214000510509F089CD06C0332309F485CD02C0BD
:10215000311182CD40911B0560911A050E94D90A68
:102160007BCDFC01E05FF109E031F10508F074CDB1
:10217000EC5CFF4F0C948D14BC0186E095E00E944E
:1021800010046ACD60911B0570E0762F6627809160
:102190001A05682B6134710510F060E470E021E0ED
:1021A0004CE155E086E095E00E94A90855CD1091DC
:1021B0001A058091060590910705DC01ED91FC91CF
:1021C0000190F081E02D63EF09951F77612F70E09A
:1021D00080910605909107050E94A2083DCDE090F0
:1021E0001B05B0E8EB9E7001112480911A05E82AC6
:1021F0008091060590910705DC01ED91FC9101901D
:10220000F081E02D62EF0995809106059091070518
:10221000DC01ED91FC91B7016F7777270190F08198
:10222000E02D09958091060590910705DC01ED915F
:10223000FC91B701660F672F661F770B71956F775B
:1022400077270190F081E02D22C080911A058770D8
:10225000B0E18B9FC001112410911B051F70182B3A
:102260008091060590910705DC01ED91FC910190AC
:10227000F081E02D61EF09958091060590910705A9
:10228000DC01ED91FC910190F081E02D612F099529
:10229000E3CC80911805909119058039910539F0AA
:1022A000803F910539F08038910509F0D7CC0E9424
:1022B000A007D4CC00911A0590911B0530911E0502
:1022C00020911F058091200540911D05493509F099
:1022D000C5CC343509F0C2CC283509F0BFCC8130EB
:1022E00049F490919F019111B9CC8093A201809300
:1022F000A1016FC0853059F480919F01882309F4B2
:10230000ADCC81E08093A2018093A10161C08330B4
:1023100009F0A4CC8091B701811105C081E08093C0
:10232000B7011092160510E0192B0134110510F0B9
:1023300000E410E0209121058091760190917701D1
:1023400042E2E42E45E0F42E6801289F4001299FD7
:10235000900C1124B7E0CB16D10409F43EC157010B
:10236000F7016081C4016AAB0E94F8136AA986175D
:1023700019F0C4010E940014C4010E94F813FFEF79
:10238000EF1AFF0A2FEF821A920A31E0C31AD1081E
:10239000D5019C918917F1F281E08093A40180918D
:1023A000760190917701079608171907A8F4109203
:1023B000B70181E08093A20185E08093A10120E034
:1023C00044E051E065E070E086E095E00E94A908F5
:1023D00080E00E94FA0842CC81E08093A2018093C1
:1023E000A1013CCC20E830E030931905209318057A
:1023F00019CC813F9105B1F5E091F204F091F3041D
:102400000CC08B3F91050CF0C7C0833F910509F0CC
:10241000A4C0E091F604F091F704309709F180919F
:102420001A0509951DC0813D91050CF454C0803EEC
:10243000910509F060C0E091EE04F091EF0430974F
:1024400079F060911B056F7780E8689FB0011124D7
:1024500080911A058F77682B705280911705099526
:1024600001E0F4CB823F91050CF061C0803B910507
:10247000B1F4E091E804F091E90407C080389105D7
:1024800079F7E091E204F091E304309749F3409149
:102490001B0560911A05809117050995E1CF813BD5
:1024A000910584F48039910529F4E091E404F091D8
:1024B000E504EBCF803A910509F7E091E604F0914D
:1024C000E704E3CF803D910509F0ADCFE091EC0446
:1024D000F091ED0407C0803C910511F6E091EA040B
:1024E000F091EB04309709F4BBCF60911A0580910D
:1024F00017050995B5CF803F910509F0B1CFE0915F
:10250000F004F091F104309709F4AACF60911B0513
:1025100070E0762F662780911A05682B613471056B
:1025200010F060E470E08CE195E0099599CF8A3F66
:10253000910509F066CFE091FC04F091FD0408C01C
:10254000883F910509F08CCFE091FA04F091FB04EB
:10255000309709F485CF099583CF833F9105A4F483
:10256000E091F404F091F504309709F479CF80916B
:102570001B058F77A0E88A9FC001112420911A05BE
:102580002F77822B09956CCF863F9105C9F6E09194
:10259000F804F091F904DCCF8C3F910529F4E09127
:1025A0000005F0910105D4CF8C3F91052CF4E0910A
:1025B000FE04F091FF04CCCF8E3F910529F4E09109
:1025C0000205F0910305C4CF8F3F910509F048CF74
:1025D000E0910405F0910505BBCF1092A401DFCE78
:1025E0008093A5018F2D0E94F803F0929E01A09286
:1025F00001015BCCCF93DF93A5E4B4E013961C926A
:102600001E92129748EE53E060E070E014964D93EE
:102610005D936D937C93179787E591E011969C935A
:102620008E9385EC90E01D969C938E931C9784EC82
:1026300090E01F969C938E931E9780EC90E05196AD
:102640009C938E93509781EC90E053969C938E933D
:10265000529782EC90E055969C938E93549786EC1B
:1026600090E057969C938E93569759961C92599743
:102670005A961C925A975B961C925B975C961C929A
:102680005C9784E690E09093560380935503E2EEC6
:10269000F4E0B5A3A4A316A217A210A615A614A62B
:1026A00017A616A68FEF9FEF91AB80AB93AB82ABD3
:1026B00083E08093160515AA17AA16AA10AE11AECC
:1026C00010925C0580E4ACE1B5E0ED0119928A95C9
:1026D000E9F7118210821382128215821482178206
:1026E0001682118610861386128615861486178622
:1026F0001686118A108A138A128A158A148A178AF2
:10270000168A118E108E138E128E158E148E178EC1
:10271000168E11A210A213A212A285E394E00E94C9
:102720009B08C0913304D091340445E050E06AE244
:1027300074E0CE010E940D0A44E050E06FE274E0C4
:10274000CE0105960E940D0A82E090E09093D90395
:102750008093D80383E090E09093DB038093DA03C7
:1027600084E090E09093DD038093DC0385E090E0CB
:102770009093DF038093DE038EE090E09093E1037B
:102780008093E0038FE090E09093E3038093E20373
:1027900086E090E09093E5038093E40387E090E087
:1027A0009093E7038093E60388E090E09093E90339
:1027B0008093E80380E1E3E3F1E0AAEFB3E0019066
:1027C0000D928A95E1F780E1E3E3F1E0AAE0B4E05D
:1027D00001900D928A95E1F780E1E3E4F1E0AAE14E
:1027E000B4E001900D928A95E1F7DF91CF910895C1
:1027F000F999FECF92BD81BDF89A992780B50895C9
:10280000262FF999FECF1FBA92BD81BD20BD0FB60C
:10281000F894FA9AF99A0FBE01960895052E97FB3F
:102820001EF400940E94251457FD07D00E9438140E
:1028300007FC03D04EF40C94251450954095309528
:1028400021953F4F4F4F5F4F08959095809570951C
:1028500061957F4F8F4F9F4F08950E945A14A59FF7
:10286000900DB49F900DA49F800D911D112408958B
:10287000A1E21A2EAA1BBB1BFD010DC0AA1FBB1F84
:10288000EE1FFF1FA217B307E407F50720F0A21BF6
:10289000B30BE40BF50B661F771F881F991F1A9463
:1028A00069F760957095809590959B01AC01BD018D
:1028B000CF010895A29FB001B39FC001A39F700DE7
:1028C000811D1124911DB29F700D811D1124911D38
:1028D0000895DB018F939F930E942D14BF91AF91B8
:1028E000A29F800D911DA39F900DB29F900D11246A
:1028F000089597FB072E16F4009407D077FD09D0B2
:102900000E94931407FC05D03EF4909581959F4F4B
:102910000895709561957F4F0895EE0FFF1F059004
:10292000F491E02D0994AA1BBB1B51E107C0AA1F1B
:10293000BB1FA617B70710F0A61BB70B881F991F60
:102940005A95A9F780959095BC01CD01089581E035
:0C29500090E0F8940C94AC14F894FFCFC5
:10295C0001010101595458040059545806005954A6
:10296C0058020008090A0B000102030C0D0E0F049B
:10297C0005060718191A1B101112131C1D1E1F1403
:10298C0015161700070106020503040F0B0E0A0D9E
:10299C00090C0807000603050204010F080E0B0DB5
:1029AC000A0C0900000000A0011C01690147015B31
:1029BC0001E70142616E6B206C656E003A20000DE0
:0229CC000A00FF
:107E0000112484B714BE81FFF0D085E080938100F7
:107E100082E08093C00088E18093C10086E0809377
:107E2000C20080E18093C4008EE0C9D0259A86E02C
:107E300020E33CEF91E0309385002093840096BBD3
:107E4000B09BFECF1D9AA8958150A9F7CC24DD24C4
:107E500088248394B5E0AB2EA1E19A2EF3E0BF2EE7
:107E6000A2D0813461F49FD0082FAFD0023811F036
:107E7000013811F484E001C083E08DD089C08234E0
:107E800011F484E103C0853419F485E0A6D080C0E4
:107E9000853579F488D0E82EFF2485D0082F10E0AE
:107EA000102F00270E291F29000F111F8ED06801E7
:107EB0006FC0863521F484E090D080E0DECF843638
:107EC00009F040C070D06FD0082F6DD080E0C81688
:107ED00080E7D80618F4F601B7BEE895C0E0D1E017
:107EE00062D089930C17E1F7F0E0CF16F0E7DF06D8
:107EF00018F0F601B7BEE89568D007B600FCFDCFD4
:107F0000A601A0E0B1E02C9130E011968C91119780
:107F100090E0982F8827822B932B1296FA010C0160
:107F200087BEE89511244E5F5F4FF1E0A038BF0790
:107F300051F7F601A7BEE89507B600FCFDCF97BE46
:107F4000E89526C08437B1F42ED02DD0F82E2BD052
:107F50003CD0F601EF2C8F010F5F1F4F84911BD097
:107F6000EA94F801C1F70894C11CD11CFA94CF0C13
:107F7000D11C0EC0853739F428D08EE10CD085E9AC
:107F80000AD08FE07ACF813511F488E018D01DD067
:107F900080E101D065CF982F8091C00085FFFCCF94
:107FA0009093C60008958091C00087FFFCCF809118
:107FB000C00084FD01C0A8958091C6000895E0E648
:107FC000F0E098E1908380830895EDDF803219F02E
:107FD00088E0F5DFFFCF84E1DECF1F93182FE3DFCA
:107FE0001150E9F7F2DF1F91089580E0E8DFEE27F6
:047FF000FF270994CA
:027FFE00040479
:0400000300007E007B
:00000001FF
