:100000000C94F2000C941A010C941A010C941A012D
:100010000C941A010C941A010C941A010C94940774
:100020000C941A010C941A010C941A010C941A01E4
:100030000C941A010C941A010C941A010C941A01D4
:100040000C944A070C941A010C94B0040C948A0482
:100050000C941A010C941A010C941A010C941A01B4
:100060000C941A010C941A01D41337140114E913D7
:10007000D510D510CE13D510CE13D510CE13CE1368
:10008000CE13D510CE13CE130000010002000300E2
:100090000400050006000700080009000A000B0024
:1000A0000C000D000E000F001000110012001300D4
:1000B00014001500170018001A001B001D001F0077
:1000C00021002300260028002B002D0030003300E3
:1000D00037003A003E00420046004B004F005500FA
:1000E0005A00600066006C0073007F0080008B0087
:1000F00094009D00A800B200BE00CA00E100FE000E
:10010000FF001301250138014B01610177018F01C7
:10011000A901C401E101FF010002280268028F0267
:10012000B902E602150347037D03B603FF032F045C
:100130007F04BF040F055F05BF050F067F06DF06BE
:100140004F07FF074F08CF085F09FF099F0A4F0BB2
:100150000F0CCF0C9F0D7F0E6F0FFF0F6F118F12C3
:10016000BF13FF145F16BF174F19DF1A9F1C6F1EB6
:10017000FF1F6F22AF2401277F291F2CEF2EEF31A5
:100180001F358F381F3CFF3F0000000800020100B0
:100190000003040700000000000000000000000051
:1001A000240027002A000000000023002600290068
:1001B00000000000250028002B00040404040404AF
:1001C0000404020202020202030303030303010206
:1001D00004081020408001020408102001020408D5
:1001E00010205A1611241FBECFEFD8E0DEBFCDBFBE
:1001F00011E0A0E0B1E0EEE6F0E302C005900D9260
:10020000A635B107D9F727E0A6E5B1E001C01D92F8
:10021000A530B207E1F710E0C2EFD0E004C02197AB
:10022000FE010E942A18C13FD107C9F70E94DD0DC7
:100230000C9435180C940000CF92DF92EF92FF924D
:100240000F931F93CF93DF936C017A018B01C0E072
:10025000D0E0CE15DF0589F0D8016D918D01D60172
:10026000ED91FC910190F081E02DC6010995892B5B
:1002700011F47E0102C02196ECCFC701DF91CF912E
:100280001F910F91FF90EF90DF90CF900895089508
:1002900080E090E00895FC01538D448D252F30E0DF
:1002A000842F90E0821B930B541710F0CF96089583
:1002B00001970895FC01918D828D981761F0828DD0
:1002C000DF01A80FB11D5D968C91928D9F5F9F738A
:1002D000928F90E008958FEF9FEF0895FC01918D2C
:1002E000828D981731F0828DE80FF11D858D90E099
:1002F00008958FEF9FEF0895FC01918D228D892F36
:1003000090E0805C9F4F821B91098F73992708951D
:100310008BEE95E00E947C0121E0892B09F420E01E
:10032000822F0895FC01848DDF01A80FB11DA35A0F
:10033000BF4F2C91848D90E001968F739927848F05
:10034000A689B7892C93A089B1898C9180648C93FC
:10035000938D848D981306C00288F389E02D8081E7
:100360008F7D80830895EF92FF920F931F93CF9319
:10037000DF93EC0181E0888F9B8D8C8D981305C0F5
:10038000E889F989808185FD24C0F62E0B8D10E067
:100390000F5F1F4F0F731127E02E8C8DE8120CC0DA
:1003A0000FB607FCFACFE889F989808185FFF5CF80
:1003B000CE010E949201F1CF8B8DFE01E80FF11D5D
:1003C000E35AFF4FF0820B8FEA89FB8980818062BC
:1003D00007C0EE89FF896083E889F989808180649C
:1003E000808381E090E0DF91CF911F910F91FF908A
:1003F000EF900895CF93DF93EC01888D8823C9F0A7
:10040000EA89FB89808185FD05C0A889B9898C911D
:1004100086FD0FC00FB607FCF5CF808185FFF2CFB8
:10042000A889B9898C9185FFEDCFCE010E949201F8
:10043000E7CFDF91CF91089580E090E0892B29F0FC
:100440000E94880181110C9400000895833081F08E
:1004500028F4813099F08230A1F008958730A9F016
:100460008830B9F08430D1F4809180008F7D03C052
:10047000809180008F7780938000089584B58F7776
:1004800002C084B58F7D84BD08958091B0008F77C0
:1004900003C08091B0008F7D8093B00008950F93CA
:1004A000FA01002319F0E356FC4F02C0E358FC4F59
:1004B0003081332391F06817790708F1621B7109C5
:1004C00086179707F8F4FA01002319F0E356FC4F5A
:1004D00002C0E358FC4F108212C08617970778F0CD
:1004E000620F711D6817790768F4FA01002319F08B
:1004F000E356FC4F02C0E358FC4F81E0808380E06C
:1005000090E002C081E090E00F9108950E943018C1
:100510002F923F924F925F926F927F928F929F9213
:10052000AF92BF92CF92DF92EF92FF920F931F9301
:10053000CF93DF9300D000D000D0CDB7DEB75C0101
:100540006B015E834D83FB01F081FB831F2F1770CE
:10055000FB01858181708A83F281F983FB014380ED
:1005600034808091D9048111B0C0FA81FF2309F44D
:10057000A4C04230510548F07A014E3F534040F04C
:10058000ADEFEA2EA3E0FA2E03C0F2E0EF2EF12C3D
:100590004501880C991CC401835C9C4F3C01FC0103
:1005A0006081718101E027E0A501C7010E944F022F
:1005B000892B09F096C1F301F182E082970140E0B6
:1005C00050E0133009F04AC0E42DF0E0EE0FFF1FB9
:1005D000E857FF4F85919491E32DF0E0EE0FFF1F58
:1005E000E857FF4F659174913B01681A790A1C0125
:1005F000412C512C2250310941095109CB01A0E075
:10060000B0E0BC01CD0162197309840995090E940B
:10061000F2172BEF33E040E050E00E949717DA0129
:10062000C901820D931DA41DB51D7C01FFEF6F163E
:10063000F3E07F06E4F5A30177FE03C051954195F1
:100640005109F401E350FD4F6081718100E0252FD5
:10065000A5010E944F02892B51F143C1512C612CFD
:10066000712C2250310941095109832D90E0A0E0FD
:10067000B0E0BC01CD0164197509860997090E9493
:10068000F2172BEF33E040E050E00E949717DA01B9
:10069000C901840D951DA61DB71D7C01F401E35011
:1006A000FD4F80819181E816F90609F41AC1F40121
:1006B000E350FD4FF182E08208C08D819E81892B3D
:1006C00011F0E42C01C0E32CF12C8091D904882393
:1006D00009F464C09A81992309F455C0ED81FE8123
:1006E000E230F10558F04F01FEEF8F16F3E09F0660
:1006F00040F03DEF832E33E0932E03C022E0822EA4
:10070000912C7501EE0CFF1CC701835C9C4F6C01A2
:10071000FC016081718101E022E0A501C4010E9419
:100720004F02892B09F0DDC0F60191828082C4015D
:10073000A0E0B0E09C01AD0122503109410951090E
:10074000AFE7B0E00E94B6172BEF33E040E050E097
:100750000E949717D22E122FC70183509D4F7C0104
:10076000FC016081718100E020E0A5018D2D932FB7
:100770003C830E944F023C81892B09F0B2C0F701F3
:10078000D082318307C08D819E81892B11F41FE7B0
:1007900001C010E041E0612F8A2D3FC02B812877F6
:1007A0002695269526952F5F1330C1F048F4113019
:1007B00081F0123009F095C0422F6E2D89812DC035
:1007C000153009F454C008F442C0163009F45CC076
:1007D00088C04E2D698180E990E069C0422FF60102
:1007E000618183E62C830E94EA0C2C81422FF60162
:1007F000628182E60E94EA0CB701660F672F661FCE
:10080000770B71956F772C81422F86E00E94EA0C5E
:100810006E2D6F772C81422F86E226960FB6F894C4
:10082000DEBF0FBECDBFDF91CF911F910F91FF9023
:10083000EF90DF90CF90BF90AF909F908F907F9080
:100840006F905F904F903F902F900C94EA0C8091A6
:10085000D804E22FF0E090E1899FE00DF11D112412
:10086000E458FD4F60816623E1F161501CC0EA81CC
:10087000E11107C08D819E81892B99F140E069814A
:1008800014C040E06E2D11C08091D804E22FF0E03A
:1008900090E1899FE00DF11D1124E458FD4F608126
:1008A0006F37F8F46F5F608340E080EC90E026964D
:1008B0000FB6F894DEBF0FBECDBFDF91CF911F9171
:1008C0000F91FF90EF90DF90CF90BF90AF909F90EF
:1008D0008F907F906F905F904F903F902F900C94EF
:1008E000870C26960FB6F894DEBF0FBECDBFDF9102
:1008F000CF911F910F91FF90EF90DF90CF90BF901D
:10090000AF909F908F907F906F905F904F903F90AF
:100910002F9008951F920F920FB60F9211242F93CC
:100920003F934F935F936F937F938F939F93AF9377
:10093000BF93EF93FF938BEE95E00E949201FF919E
:10094000EF91BF91AF919F918F917F916F915F9147
:100950004F913F912F910F900FBE0F901F901895C0
:100960001F920F920FB60F9211242F938F939F9384
:10097000EF93FF93E091FB05F091FC058081E091FE
:100980000106F091020682FD12C09081809104065A
:100990008F5F8F7320910506821751F0E091040656
:1009A000F0E0E551FA4F958F8093040601C08081F5
:1009B000FF91EF919F918F912F910F900FBE0F900C
:1009C0001F901895CF93DF93282F30E0F901E85757
:1009D000FE4F8491F901E253FE4FD491F901E654A0
:1009E000FE4FC491CC2391F081110E942602EC2F7E
:1009F000F0E0EE0FFF1FEA55FE4FA591B491EC9188
:100A0000ED2381E090E021F480E002C080E090E0FE
:100A1000DF91CF9108951F93CF93DF93282F30E07C
:100A2000F901E857FE4F8491F901E253FE4FD4914A
:100A3000F901E654FE4FC491CC23C9F0162F811161
:100A40000E942602EC2FF0E0EE0FFF1FE055FE4F54
:100A5000A591B4918FB7F894111105C09C91ED2F19
:100A6000E095E92302C0EC91ED2BEC938FBFDF9171
:100A7000CF911F910895CF93DF9390E0FC01E25353
:100A8000FE4F2491FC01E654FE4F8491882361F1CE
:100A900090E0880F991FFC01E456FE4FC591D49158
:100AA000FC01E055FE4FA591B491611109C09FB7BB
:100AB000F8948881209582238883EC912E230BC0A3
:100AC000623061F49FB7F8943881822F8095832338
:100AD0008883EC912E2B2C939FBF06C08FB7F89480
:100AE000E8812E2B28838FBFDF91CF9108958E3020
:100AF00008F08E508770806480937C0080917A002B
:100B0000806480937A0080917A0086FDFCCF80918A
:100B100078002091790090E0922B08953FB7F894E7
:100B20008091C2039091C303A091C403B091C50307
:100B300026B5A89B05C02F3F19F00196A11DB11D38
:100B40003FBFBA2FA92F982F8827820F911DA11D73
:100B5000B11DBC01CD0142E0660F771F881F991FB0
:100B60004A95D1F708954F925F926F927F928F923C
:100B70009F92AF92BF92CF92DF92EF92FF920F932C
:100B80001F93CF93DF930E948E050091FE04109176
:100B9000FF0420910005309101050617170728076B
:100BA000390730F4809170008D7F8093700055C1BB
:100BB000E091F804F091F90490818091F504892383
:100BC00009F04BC1809170008D7F809370000E946E
:100BD0008E050091FC041091FD0420E030E0C090EF
:100BE000FE04D090FF04E0900005F09001050C1980
:100BF0001D092E093F090D50110921093109DC0198
:100C0000CB01800F911FA21FB31F8093F00490931C
:100C1000F104A093F204B093F304AA27BB274090F9
:100C20007101509072016090730170907401C090D6
:100C30006D01D0906E01E0906F01F090700184150D
:100C40009505A605B70510F4C20107C0C816D90658
:100C5000EA06FB0610F4D701C60190937601809353
:100C6000750146012FEF821A920A84189508A12C6B
:100C7000B12CA0E0B0E09C01AD0124193509460972
:100C80005709C501B4010E94F217970186010F5F51
:100C90001F4F2F4F3F4FA9019801241935094609CD
:100CA00057090E949717C091D005DC2FD77070901C
:100CB000D205C090D3056091D40570E04427552734
:100CC000D330B9F4EC2DF0E0EE0FFF1FE857FF4FE3
:100CD000C590D490FB01EE0FFF1FE857FF4F6591C1
:100CE0007491E12CF12C6F5F7F4FCB01A0E0B0E05D
:100CF00009C0D12CE12CF12C6F5F7F4FCB01770F16
:100D0000AA0BBB0BBC01CD016C197D098E099F0993
:100D10000E94F217A50194010E949717C20ED31EDC
:100D2000E41EF51E80916801E82FF0E0EE0FFF1F32
:100D3000EE59FE4F2091690130916A014081518145
:100D4000241B350BD182C082C20ED31ED0926A0101
:100D5000C09269018F5F833019F08093680102C0EF
:100D60001092680180916101833018F48F5F809345
:100D7000610160916101662331F070E0C6010E945B
:100D800002188B0102C000E010E080916B0190918D
:100D90006C010817190709F460C010936C010093E7
:100DA0006B018091D904882321F04FE0602F80E00F
:100DB00042C0C877C695C695C695CF5FD230E1F0E0
:100DC000D330F1F0D13009F048C02C2F402F672DDF
:100DD00080E990E0DF91CF911F910F91FF90EF900C
:100DE000DF90CF90BF90AF909F908F907F906F904B
:100DF0005F904F900C94870C4C2F602F872D1BC059
:100E00004C2F6091D10583E60E94EA0C4C2F609133
:100E1000D20582E60E94EA0CB801660F672F661FB2
:100E2000770B71956F774C2F86E00E94EA0C602F4C
:100E30006F774C2F86E2DF91CF911F910F91FF903A
:100E4000EF90DF90CF90BF90AF909F908F907F906A
:100E50006F905F904F900C94EA0CDF91CF911F91AF
:100E60000F91FF90EF90DF90CF90BF90AF909F9049
:100E70008F907F906F905F904F9008952FB7F89468
:100E80006091BE037091BF038091C0039091C10334
:100E90002FBF08951F920F920FB60F9211242F9318
:100EA0003F938F939F93AF93BF938091BE03909195
:100EB000BF03A091C003B091C1033091BD0323E0F3
:100EC000230F2D3720F40196A11DB11D05C026E882
:100ED000230F0296A11DB11D2093BD038093BE0375
:100EE0009093BF03A093C003B093C1038091C2034A
:100EF0009091C303A091C403B091C5030196A11DB5
:100F0000B11D8093C2039093C303A093C403B09315
:100F1000C503BF91AF919F918F913F912F910F90FA
:100F20000FBE0F901F9018951F920F920FB60F9241
:100F300011242F933F934F935F936F937F938F93DE
:100F40009F93AF93BF93EF93FF93E091D003F09102
:100F5000D1030995FF91EF91BF91AF919F918F912F
:100F60007F916F915F914F913F912F910F900FBEA5
:100F70000F901F9018959091C703891710F08FEF6D
:100F8000890F4091C8035091C903849F9001859FA8
:100F9000300D1124205F3F4F3093DA052093D9059F
:100FA0008093C60308956D3F71053CF46A3F710557
:100FB00054F4683F710589F406C09B012E5F310926
:100FC0002230310550F4DC018D919C91DC01ED91D2
:100FD000FC910190F081E02D0994089587FF0DC0E8
:100FE0009CE0980F923048F0982F9B7F993F29F012
:100FF000803F08F4807F90E0089580E090E00895BD
:101000009C018F7C8038910561F0203D310549F0CD
:1010100081E0203E310539F0203C310521F080E0AF
:10102000089581E0089508958F929F92BF92CF9284
:10103000DF92EF92FF920F931F93CF93DF93CDB781
:10104000DEB729970FB6F894DEBF0FBECDBFC12C17
:10105000D12CE12CF12CBB24B3948091770190E04A
:10106000E816F9060CF05FC00091D9051091DA0579
:101070008091CC039091CD03080F191F0C0D1D1DFD
:1010800045E050E0BE016F5F7F4FC8010E94F10C48
:1010900041E050E0BE016A5F7F4FC80105960E94A3
:1010A000F10C01E030E1E316F1040CF400E00093F0
:1010B0007C0247018FE08822992480927B028981FB
:1010C000877051F110E0873009F083C08091D90416
:1010D00081117FC0B401C8010E948B0D24E0000F74
:1010E000111F2A95E1F7080D191DF801EE0FFF1FDA
:1010F000EE5FFA4F91838083000F111FF801EE5BC2
:10110000FA4F208131818217930731F091838083D8
:10111000209101012223D9F08FEFE81AF80A96E016
:10112000C90ED11C9ACF1092010129960FB6F894DE
:10113000DEBF0FBECDBFDF91CF911F910F91FF900A
:10114000EF90DF90CF90BF909F908F9008951B817C
:101150002091C6032093D804892BC9F42117E1F20A
:101160008091C7038117C0F280917A028111D4CF98
:101170008E81869581708093790220937802812FE9
:101180000E94BB071093D804B0927A02BAC0809133
:101190007902811114C01213BFCF80917A02882383
:1011A00009F4BACF809178020E94BB0710937802AD
:1011B0008091C6038093D80410927A02A2C01213C1
:1011C000ABCF80917A02882309F4A6CF10927A02DD
:1011D000A3CF8E8180FF46C0B401C8010E94320DAA
:1011E000A4E0000F111FAA95E1F7080D191DF801E1
:1011F000EE0FFF1FEE5FFA4F918380832091010174
:10120000005E1F4F000F111FF801EE5FFA4F211112
:1012100026C0208131818217930709F47DCFAC016C
:10122000BE016F5F7F4FC7010E94880280917C02E0
:1012300020917B0230E1839FC0011124820F911D18
:10124000DC01AA0FBB1FAE5BBA4F880F991FFC01D0
:10125000EE5FFA4F808191818D939C935DCF918356
:1012600080835ACFB401C8010E948B0D54E0000F57
:10127000111F5A95E1F79801280D391DF901EE0F5C
:10128000FF1FEE5FFA4F918380834E81F901EE0FCD
:10129000FF1FEE5BFA4F608171818617970709F493
:1012A0003BCF9183808350910101511135CF892B20
:1012B00081F48091D80490E2899F200D311D112482
:1012C000F901E858FE4F4081842F8B25808350E040
:1012D00011C041FD21CF8091D80430E2839F000DE1
:1012E000111D112408581E4FF801E80DF91D108238
:1012F00041E050E0BE016F5F7F4FC7010E9488024E
:101300000BCFB092DC0408CF0F931F93CF93809143
:101310000001882361F0109200010E943E07609353
:101320005D0170935E0180935F01909360010E9464
:101330003E0700915D0110915E0120915F013091A7
:101340006001DC01CB01801B910BA20BB30B853636
:101350009105A105B10520F10E943E0760935D0152
:1013600070935E0180935F0190936001C0915C0176
:1013700081E0C8276C2F8DE00E940B05C0935C01B3
:10138000C11105C08091DE0481508093DE048091FC
:10139000DE04811105C01092DF0481E0809300011A
:1013A000CF911F910F910895CF93DF9300D000D07C
:1013B000CDB7DEB74091D9055091DA052091CA0327
:1013C0003091CB03240F351F880F991F880F991F69
:1013D00044E050E0BE016F5F7F4F820F931F0E9479
:1013E000F10C69817A818B819C810F900F900F9015
:1013F0000F90DF91CF910895EF92FF920F931F937B
:10140000CF93DF931091C0060091C106E090BD0616
:101410008091D904811130C08FE0E81216C01430D9
:1014200049F4002321F082E08093DC0384C0109211
:10143000DD0381C0153049F4002321F082E0809360
:10144000DA0379C01092DA0376C0F12C8091D703C9
:10145000F81608F070C0CF2DD0E0CE010E94D4095C
:10146000171308C0262F28772695269526952F5FD7
:10147000E21631F1F394EACF002371F0103108F055
:101480005AC0E12FF0E0E054FA4FE081F0E0E0577D
:10149000FA4F81E080830CC0103108F04CC0E12F7E
:1014A000F0E0E054FA4FE081F0E0E057FA4F1082AC
:1014B000DF91CF911F910F91FF90EF900C940F0D42
:1014C0002091BE063091BF062039310589F4209164
:1014D000D80460FF1EC00817E0F09017D0F080E23B
:1014E000289FC00DD11D1124C852DC4F81E01BC0C4
:1014F0002038310551F48091D80490E2899FC00DC5
:10150000D11D1124C852DC4F188281E08093DB0486
:1015100012C0002351F090E2299FC00DD11D11246B
:10152000C852DC4F82E08883F0CF80E2289FC00D54
:10153000D11D1124E7CFDF91CF911F910F91FF9023
:10154000EF9008950F931F93CF93DF93EC018B01DE
:1015500045E050E0BC01C8010E94F10CBE016B5F88
:101560007F4F44E050E0C8010596DF91CF911F9175
:101570000F910C94F10C40E150E0BC0180E090E050
:101580000C94F10CAF92BF92CF92DF92EF92FF9248
:101590000F931F93CF93DF93CDB7DEB769970FB645
:1015A000F894DEBF0FBECDBF182F61E08DE00E9422
:1015B0003B05CE0101960E94BB0A90E1FE013196E7
:1015C000ABEDB5E001900D929A95E1F71092D80439
:1015D00080E00E94BB071093D90481E08093010151
:1015E0008091DB05893509F031C18091DC058435B6
:1015F00009F02CC18091DD05883509F027C189E308
:1016000090E09093CF038093CE0362E08AE00E9443
:101610003B0562E08BE00E943B058091E70581700D
:101620008093DA048091E80580935B018091E9055D
:10163000809377018091EA058093D7036091D90563
:101640007091DA05CE0141960E94A20A89E0FE015E
:101650007196A0EDB5E001900D928A95E1F7809129
:10166000D005877091E009F490E09093DD048091BB
:10167000E7058695817080935A01882321F083E0E5
:101680008093BC0602C01092BC06992309F46EC078
:10169000109261011092680110926A011092690122
:1016A0001092630110926201109265011092640120
:1016B00010926701109266018091D50520E8829F03
:1016C000C00111242091D605822B49E3489F900147
:1016D000499F300D1124C901330FAA0BBB0B809316
:1016E000710190937201A0937301B0937401809182
:1016F000D70520E8829FC00111242091D805822BB4
:10170000489F9001499F300D1124C901330FAA0B46
:10171000BB0B80936D0190936E01A0936F01B0930A
:1017200070011092D6030E943E07DC01CB0149965E
:10173000A11DB11D8093D2039093D303A093D40332
:10174000B093D50362E08CE00E943B0561E08DE040
:101750000E943B0562E08AE00E943B0561E08BE06D
:101760000E943B0560E08BE00E940B0510927C021A
:10177000F0907C0221E02F1568F110927B02AF2CD3
:10178000B12C650144E0CC0CDD1C4A95E1F7E090FA
:101790007B028FE08E15D0F00E2D10E0B801C50150
:1017A0000E94320D0C0D1D1DF801EE0FFF1FEE5FA4
:1017B000FA4F91838083000F111FF801EE5BFA4FFF
:1017C00091838083E394E0927B02E1CFF394F092E3
:1017D0007C02CECF6DE772E028E731E048ED53E0C0
:1017E00080E090E0F901E80FF91F1082FA01E80F9C
:1017F000F91F1082019680329105A1F780E090E0F8
:10180000FB01E80FF91F1082019680319105C1F7A5
:10181000605F7F4F205E3F4F405E5F4F82E0283722
:101820003807F1F681E08093DB0469960FB6F894EF
:10183000DEBF0FBECDBFDF91CF911F910F91FF9003
:10184000EF90DF90CF90BF90AF9008951092040179
:1018500089E390E09093CF038093CE0387CFDC01A0
:10186000ED91FC910190F081E02D0994AF92BF922F
:10187000CF92DF92EF92FF921F93CF93DF9300D02E
:10188000CDB7DEB77C016B0191E0122F192759F01B
:1018900060EF70E0D7018D919C9149835A830E943B
:1018A0002F0C5A8149815A01C40ED51EAC14BD04B7
:1018B00071F0F70180819181D5016D915D01DC01AD
:1018C000ED91FC910190F081E02D0995EFCF11236E
:1018D00091F067EF70E0F701808191810F900F9098
:1018E000DF91CF911F91FF90EF90DF90CF90BF904D
:1018F000AF900C942F0C0F900F90DF91CF911F9110
:10190000FF90EF90DF90CF90BF90AF900895EF924F
:10191000FF921F93CF93DF931F92CDB7DEB77C0169
:10192000162F2150203108F04EC080E8E816F1044F
:101930000CF449C0A1EEEA16F104ACF58091AC06B6
:101940009091AD06DC01ED91FC916E2D622B019022
:10195000F081E02D498309958091AC069091AD0608
:10196000DC01ED91FC91612F6F770190F081E02D0A
:101970000995E894E4F84981B0ECEB16F10419F10B
:101980008091AC069091AD06DC01ED91FC91642F45
:101990006F770190F081E02D0F90DF91CF911F9133
:1019A000FF90EF900994C701885F9109089758F458
:1019B000B7018CEA96E00F90DF91CF911F91FF90D5
:1019C000EF900C94D3070F90DF91CF911F91FF9070
:1019D000EF900895242F462F682F80EB90E00C9411
:1019E000870CEF92FF920F931F93CF93DF938B019E
:1019F000040F151FEB017C01E61AF70AC017D10787
:101A000039F0C7018C0F9D1F0E9481178993F6CF73
:101A1000DF91CF911F910F91FF90EF900895CF9399
:101A2000DF9360E080918C050E940B05C0EAD5E051
:101A300060E080918E050E940B056A9180918A0575
:101A40000E940B0561E080918E050E940B0585E0E8
:101A5000C039D80769F761E080918C05DF91CF919B
:101A60000C940B050F931F93CF93DF936031710597
:101A7000C8F5EB018C01009739F460E08EE00E941C
:101A80003B05C056DA4F08C0019761F560E08FE072
:101A90000E943B05C055DA4F288130E08BB1837C32
:101AA0008BB98BB1220F331F220F331F282B2BB979
:101AB0000115110541F00130110579F48FE00E9404
:101AC00077058FE004C08EE00E9477058EE00E94CB
:101AD0007705909304078093030780910307909103
:101AE000040702C08FEF9FEFDF91CF911F910F91FD
:101AF0000895009769F0FC0101900020E9F7319703
:101B0000AF01481B590BBC018BEE95E00C941C01F6
:101B100080E090E00895FF920F931F93CF93DF939F
:101B20006031710508F041C08C01009761F4FB0140
:101B3000E056FA4FC081D0E060E08EE00E943B05A5
:101B400061E08EE00DC0019781F5FB01E055FA4F91
:101B5000C081D0E060E08FE00E943B0561E08FE053
:101B60000E940B058BB1837C8BB98BB1CC0FDD1F31
:101B7000CC0FDD1FC82BCBB90115110541F0013089
:101B8000110581F48FE00E94E2048FE004C08EE032
:101B90000E94E2048EE00E94E204FF24F394892B69
:101BA00009F4F12C8F2D90E002C08FEF9FEFDF91B1
:101BB000CF911F910F91FF900895CF93DF93CDB7F1
:101BC000DEB7E2970FB6F894DEBF0FBECDBF7894B4
:101BD00084B5826084BD84B5816084BD85B5826032
:101BE00085BD85B5816085BD80916E0081608093E3
:101BF0006E0010928100809181008260809381004C
:101C0000809181008160809381008091800081605B
:101C1000809380008091B10084608093B1008091B6
:101C2000B00081608093B00080917A0084608093DE
:101C30007A0080917A00826080937A0080917A00A5
:101C4000816080937A0080917A00806880937A0026
:101C50001092C100E091AC06F091AD06A089B18967
:101C600082E08C93A485B5851C92A685B7858FE309
:101C70008C93108EA489B58986E08C93A289B38950
:101C80008C9180618C93A289B3898C9188608C93AC
:101C9000A289B3898C9180688C930288F389E02DA6
:101CA00080818F7D80831092AE061092B0061092D4
:101CB000AF061092B7061092B6061092B5061092B3
:101CC000B4068FEF9FEF9093B9068093B806909378
:101CD000BB068093BA06109202071092BF061092BC
:101CE000BE061092BD061092C0061092C106109258
:101CF000BC0661E080918C050E943B0561E080910B
:101D00008A050E943B0561E080918E050E943B059B
:101D100061E0809182050E943B0561E0809184052D
:101D20000E943B0561E0809186050E943B0561E0D1
:101D3000809188050E943B05E2E0F5E01192119246
:101D400017AE16AE25E0E232F207C1F7E2E2F5E0A7
:101D50001192119217AE16AE35E0E234F307C1F7D7
:101D6000E0E9F5E0119285E0E03AF807D9F78091D3
:101D70007A00887F80937A0080917A0084608093D3
:101D80007A00E0EAF5E0129295E0E039F907D9F738
:101D90000E940F0D80917A00887F80937A00809155
:101DA0007A00846080937A00CE0182960E94BB0AFA
:101DB0008AA1893551F48BA1843539F48CA18835F9
:101DC00021F48DA1813009F41CC41092DA0510921F
:101DD000D9051092C9031092C8031092CB03109238
:101DE000CA031092CD031092CC031092C603109236
:101DF000C7030E943E076093E8047093E904809350
:101E0000EA049093EB0480E00E94C20A2224239407
:101E1000312C74EF472E55245394612C712C109162
:101E2000AE06113108F0C3C18091AC069091AD06A9
:101E3000DC01ED91FC910084F185E02D0995892B61
:101E400009F4B5C18091AC069091AD06DC01ED912D
:101E5000FC910284F385E02D09957C018B7F893FFD
:101E600009F4A5C12091B6063091B70621153105B8
:101E700009F0B2C0E092B1060091AF06802F0E9437
:101E8000EE070E940008882351F0E7FC08C0009389
:101E9000B106E092B2063092B7062092B6060091E3
:101EA000B106802F0E94EE07813F910509F461C0C1
:101EB00084F5803B910509F463C06CF48039910589
:101EC00009F45EC0803A910509F45AC08038910542
:101ED00009F0E0C055C0803D910509F44AC02CF4DA
:101EE000803C910509F445C0D5C0803E910509F4B8
:101EF00047C0803F910509F0CDC020E430E0309329
:101F0000B5062093B4061092AF0620EF2093C206C8
:101F10003DC0883F9105B9F044F4833F910549F1F4
:101F20007CF1863F910579F0B5C08A3F91050CF4AC
:101F3000B1C08D3F91053CF09C012E5F31092230EC
:101F4000310508F0A7C09093BF068093BE0610929B
:101F5000BD061092C0061092C10681E08093020770
:101F60001092B7061092B6061092B5061092B406FB
:101F7000F6C0E2E0F0E0F093B506E093B40606C0E8
:101F800023E030E03093B5062093B4062091B606E6
:101F90003091B7064091B4065091B50641505109B1
:101FA0002417350708F4D4C09093BF068093BE066B
:101FB000802F8F708F5F8093BD068091B2068093D3
:101FC000C0061092C1061092B7061092B606109283
:101FD000B5061092B40621C0E7FE46C0C701992796
:101FE0008D3F910554F48A3F91056CF4873F91052C
:101FF000C1F0883F9105C1F506C0AC014E5F5109A3
:102000004230510588F59093BF068093BE0610922A
:10201000C0061092C1061092BD0681E080930207AF
:102020009EC08091C206803FA9F5C9010196F901C1
:10203000E857F94F47EF42AFA0EFB0E0B093BF06CB
:10204000A093BE068093C0069093C1061092BD0671
:1020500081E0809302071092B7061092B6061092A4
:10206000B5061092B40671C08091B106F901E85727
:10207000F94F803FD1F4E2AEE090B406F090B5069F
:10208000C70101972817390708F462C00091B1060B
:10209000003F69F41092B7061092B6061092B5068A
:1020A0001092B4061092AF0682C0E1A6E5CF802F51
:1020B0000E94EE076C019093BF068093BE060E94BB
:1020C0000008882331F0802F8F708F5F8093BD06CA
:1020D00002C01092BD068091B2068093C006B3E0A4
:1020E000EB16F10419F48091B30601C080E08093EF
:1020F000C1061092B7061092B6061092B50610925D
:10210000B40681E080930207E0EBCE16D104D1F053
:102110006CF420E9C216D104A9F030EAC316D10448
:1021200089F080E8C816D10481F40CC090EDC9167E
:10213000D10441F0A0EECA16D10421F0B0ECCB16C8
:10214000D10419F40093AF060AC01092AF0607C07D
:102150002F5F3F4F3093B7062093B60628C080917B
:10216000BE069091BF068039910529F48091C10681
:10217000882309F473C48091BE069091BF069C0128
:10218000205831092136310508F06FC42091BD0671
:10219000211709F46AC4112309F467C400E04091CF
:1021A000BC06342F317040FDBFC2011184C3809141
:1021B0000401882309F408C28091DF04882329F0F0
:1021C0008091DE0481110E9484098091EC048111C8
:1021D00015C28091DC0481111DC08091DB04811146
:1021E00019C00E943E070091E8041091E904209173
:1021F000EA043091EB04DC01CB01801B910BA20BB4
:10220000B30B8D329140A105B10508F467C000E021
:1022100010E02FC01092DC041092DB048091DA04ED
:102220008111DFCF00EC15E0C12CD12CFF24F394F9
:102230008091D70390E0C816D90698F6C6010E948F
:10224000D4098091D80461FF11C59091D9049111EE
:102250000DC5FFC48091D804F80120E2829FE00DF3
:10226000F11D1124E852FC4F8081813049F00F5F4D
:102270001F4F8091D70390E00817190758F31EC02D
:102280009091E304992361F00031110580F7F80182
:10229000E054FA4FE081F0E0E057FA4F80830BC042
:1022A0000031110520F7F801E054FA4FE081F0E029
:1022B000E057FA4F10820E940F0DD9CF0E943E07BF
:1022C0006093E8047093E9048093EA049093EB042C
:1022D0009091E30481E089278093E3040E943E0704
:1022E0000091E4041091E5042091E6043091E704A4
:1022F000DC01CB01801B910BA20BB30BC397A10593
:10230000B10530F48091DD04882309F45AC130C04E
:102310000E943E076093E4047093E5048093E60412
:102320009093E70401EE14E095E0F92E8FE08F1909
:102330000E94E204EE24E394892B09F4E12CD801F5
:102340008D918D01E81671F02FE0EE2011F04FE72E
:1023500001C040E06F2D80E990E00E94870CF801F9
:102360003197E082B4E0FB1669F284E0F82EDECF0C
:102370008AE00E94E20421E0892B09F420E0209306
:10238000030180910201211113C08823B1F0109242
:1023900002019091D60381E098279093D603609133
:1023A000E00468276093E0048BE00E940B0505C001
:1023B000811103C081E08093020180910101882393
:1023C00041F01092E00481E08093020180930301C8
:1023D000F8C08091D603882309F4E4C00E943E0728
:1023E0000091D2031091D3032091D4033091D503EF
:1023F000601771078207930708F4E3C0D901C80189
:102400004996A11DB11D8093D2039093D303A0934D
:10241000D403B093D5038091D705E0E88E9FC00127
:1024200011242091D805822B009789F0019649E369
:10243000489F9001499F300D11242E38FFE63F0739
:1024400010F02DE83FE63093FD042093FC04E0916A
:10245000FA04F091FB0490818091F404892B80832D
:10246000E091F604F091F70490818091F404809556
:10247000892380838BE090E00197F1F7E091F604E7
:10248000F091F70490818091F404892B808383E29A
:1024900090E00197F1F7E091F604F091F704908154
:1024A0008091F404809589238083E091FA04F0916F
:1024B000FB0490818091F404809589238083E091CE
:1024C000F804F091F90490818091F504892309F0D2
:1024D00078C00E948E052091FC043091FD04890192
:1024E00020E030E00855194E2F4F3F4FDC01CB0163
:1024F000800F911FA21FB31F8093FE049093FF04CF
:10250000A0930005B0930105E091F804F091F9045F
:1025100090818091F504892381F40E948E050091B9
:10252000FE041091FF04209100053091010506176B
:1025300017072807390740F744C00E948E052091ED
:10254000FC043091FD04DC01CB01820F931FA11D1F
:10255000B11D8093FE049093FF04A0930005B093F7
:10256000010583EB95E09093D1038093D003809194
:1025700070008D7F809370008091B6008F7D809376
:10258000B60082E08093B00084E08093B1001092A6
:10259000B20085E08093B3008091700082608093E8
:1025A00070000FC00E943E07DC01CB014996A11DBF
:1025B000B11D8093D2039093D303A093D403B0931F
:1025C000D5030E9414081AC00E943E07A30192017D
:1025D0000E94C117672B682B692B29F481E0809337
:1025E000DF048093DE048091DF04882351F380911F
:1025F000DE04882331F30E948409E3CF0E941C0289
:102600000ECC89E090E09093CD038093CC0388A911
:10261000A6E08A9FC001112409969093CB03809372
:10262000CA0329A9B4E02B9F800D911D112490931A
:10263000C9038093C80387E491E00E94790D80E587
:1026400091E00E94790DC090C803D090C9030D2C71
:10265000000CEE08FF08F7FE2BC0E091EB05F091AF
:10266000EC050190F081E02D6DE28BEE95E009958F
:1026700022273327A9012C193D094E095F0919A208
:102680008E010F5D1F4FFAE0CF2ED12CE12CF12CE3
:10269000CA01B901A70196010E94C117605DF80146
:1026A00062938F01211531054105510589F71AC043
:1026B000A701960119A28E010F5D1F4FEAE0CE2EF1
:1026C000D12CE12CF12CCA01B901A70196010E947D
:1026D000C117605DD8016E938D012115310541054B
:1026E000510589F7C8010E94790D83E591E00E94A8
:1026F000790D6091C8037091C90380EF93E00E9447
:1027000016182FA530E0CB01261737070CF4C901A6
:102710008F3F910519F014F08FEF90E08093C7037D
:1027200080E00E94BB0765CB842F8E7F09F43DCDEE
:102730008091BE069091BF06BC0160587109613658
:10274000710508F52091BD06211719F031E011112E
:1027500030E0469550E04230510541F0433051059C
:1027600049F04130510509F020CD06C0332309F46A
:102770001CCD02C0311119CD4091C1066091C00637
:102780000E94870C12CDFC01E05FF109E031F105F8
:1027900008F00BCDEC5CFF4F0C942A18BC018CEABE
:1027A00096E00E94D30701CD6091C10670E0762FBC
:1027B00066278091C006682B6134710510F060E4D3
:1027C00070E021E042EC56E08CEA96E00E94360C84
:1027D000ECCC1091C0068091AC069091AD06DC0166
:1027E000ED91FC910190F081E02D63EF09951F7749
:1027F000612F70E08091AC069091AD060E942F0C85
:10280000D4CCE090C106B0E8EB9E70011124809119
:10281000C006E82A8091AC069091AD06DC01ED91EE
:10282000FC910190F081E02D62EF09958091AC065A
:102830009091AD06DC01ED91FC91B7016F777727A0
:102840000190F081E02D09958091AC069091AD0644
:10285000DC01ED91FC91B701660F672F661F770BC6
:1028600071956F7777270190F081E02D22C08091DC
:10287000C0068770B0E18B9FC00111241091C10682
:102880001F70182B8091AC069091AD06DC01ED9184
:10289000FC910190F081E02D61EF09958091AC06EB
:1028A0009091AD06DC01ED91FC910190F081E02D5D
:1028B000612F09957ACC8091BE069091BF06803930
:1028C000910539F0803F910539F08038910509F084
:1028D0006ECC0E94FC096BCC0091C0069091C106A1
:1028E0003091C4062091C5068091C6064091C3066A
:1028F000493509F05CCC343509F059CC283509F05C
:1029000056CC8130E9F49091D904911150CC809348
:10291000DF048093DE0485E0E5E0F1E0DE0111965E
:1029200001900D928A95E1F720E0AE014F5F5F4F75
:1029300065E070E08CEA96E00E94360C81E08BC086
:10294000853059F48091D904882309F430CC81E092
:102950008093DF048093DE046AC0833009F027CCC3
:102960008091EC04811105C081E08093EC04109209
:10297000BC0610E0192B0134110510F000E410E042
:102980004091C7068091CE039091CF0328ECE22EB0
:1029900026E0F22E6801489F5001499FB00C112497
:1029A000B7E0CB16D104E9F04701F7016081C5011A
:1029B0006AAB0E9481176AA9861719F0C5010E94A7
:1029C0008917C5010E948117FFEFEF1AFF0A2FEF49
:1029D000A21AB20A31E0C31AD108D4019C91891716
:1029E000F9F281E08093DF048093DE048091CE03CE
:1029F0009091CF0307960817190708F0D8CB1092CB
:102A0000EC0483E08093DE0485E0EAE0F1E0DE019F
:102A1000929601900D928A95E1F720E0AE014E5D0D
:102A20005F4F65E070E08CEA96E00E94360C85E02E
:102A3000EFE0F1E0DE01119601900D928A95E1F749
:102A400020E0AE014F5F5F4F65E070E08CEA96E0FA
:102A50000E94360C80E00E94C20AA9CB20E830E038
:102A60003093BF062093BE0686CB813F9105B1F51A
:102A7000E0919806F09199060CC08B3F91050CF0FF
:102A8000C7C0833F910509F0A4C0E0919C06F09176
:102A90009D06309709F18091C00609951DC0813DC2
:102AA00091050CF454C0803E910509F060C0E0919E
:102AB0009406F0919506309779F06091C1066F7792
:102AC00020E8629FB00111248091C0068F77682BA7
:102AD00070528091BD06099501E061CB823F91055E
:102AE0000CF061C0803B9105B1F4E0918E06F0914D
:102AF0008F0607C08038910579F7E0918806F0913C
:102B00008906309749F34091C1066091C0068091D3
:102B1000BD060995E1CF813B910584F4803991058B
:102B200029F4E0918A06F0918B06EBCF803A91056B
:102B300009F7E0918C06F0918D06E3CF803D910579
:102B400009F0ADCFE0919206F091930607C0803C6A
:102B5000910511F6E0919006F0919106309709F4F5
:102B6000BBCF6091C0068091BD060995B5CF803F6F
:102B7000910509F0B1CFE0919606F0919706309754
:102B800009F4AACF6091C10670E0762F6627809184
:102B9000C006682B6134710510F060E470E082ECCF
:102BA00096E0099599CF8A3F910509F066CFE091AB
:102BB000A206F091A30608C0883F910509F08CCFCA
:102BC000E091A006F091A106309709F485CF099510
:102BD00083CF833F9105A4F4E0919A06F0919B0680
:102BE000309709F479CF8091C1068F7730E8839FC1
:102BF000C00111242091C0062F77822B09956CCF3C
:102C0000863F9105C9F6E0919E06F0919F06DCCFC4
:102C10008C3F910529F4E091A606F091A706D4CF48
:102C20008C3F91052CF4E091A406F091A506CCCF41
:102C30008E3F910529F4E091A806F091A906C4CF32
:102C40008F3F910509F048CFE091AA06F091AB06BD
:102C5000BBCF871318C0B0E1CB16D10400F5D80163
:102C6000EC91F0E0E057FA4FF08217C0F60130E245
:102C7000839FE00DF11D1124E852FC4F80818230CA
:102C8000A1F081110CC0B0E1CB16D10440F4D80101
:102C9000EC91F0E0E057FA4F10820E940F0DBFEF69
:102CA000CB1ADB0A0F5F1F4FC3CAF0E1CF16D10466
:102CB000B0F7D5CFCF93DF93ABEEB5E013961C9270
:102CC0001E92129748EE53E060E070E014964D9328
:102CD0005D936D937C93179789E391E011969C9394
:102CE0008E9385EC90E01D969C938E931C9784ECBC
:102CF00090E01F969C938E931E9780EC90E05196E7
:102D00009C938E93509781EC90E053969C938E9376
:102D1000529782EC90E055969C938E93549786EC54
:102D200090E057969C938E93569759961C9259977C
:102D30005A961C925A975B961C925B975C961C92D3
:102D40005C9784E690E09093EF048093EE04E8E8CB
:102D5000F6E0B5A3A4A316A217A210A615A614A662
:102D600017A616A68FEF9FEF91AB80AB93AB82AB0C
:102D700083E08093BC0615AA17AA16AA10AE11AE5E
:102D80001092020780E4A2ECB6E0ED0119928A9558
:102D9000E9F711821082138212821582148217823F
:102DA000168211861086138612861586148617865B
:102DB0001686118A108A138A128A158A148A178A2B
:102DC000168A118E108E138E128E158E148E178EFB
:102DD000168E11A210A213A212A28BED95E00E94F2
:102DE000BB0A6091D9057091DA0580ED95E00E94EB
:102DF000A20A82E090E0909383058093820583E0AD
:102E000090E0909385058093840584E090E0909312
:102E100087058093860585E090E0909389058093EF
:102E2000880586E090E090938B0580938A0587E083
:102E300090E090938D0580938C0588E090E09093CE
:102E40008F0580938E0580E1E5E1F1E0A0EAB5E031
:102E500001900D928A95E1F780E1E5E1F1E0A0EBC8
:102E6000B5E001900D928A95E1F780E1E5E2F1E0AD
:102E7000A0ECB5E001900D928A95E1F7EBEDF1E061
:102E8000E491A0EFB4E01496EC931497EAEDF1E02E
:102E9000E4911596EC93159787EC91E0FC01249151
:102EA000E22FF0E0EE0FFF1FE055FE4F2591349129
:102EB00017963C932E931697E6ECF1E0E491F0E040
:102EC000EE0FFF1FEA55FE4F2591349119963C9362
:102ED0002E931897FC018491E82FF0E0EE0FFF1F6E
:102EE000E456FE4F859194911B969C938E931A976E
:102EF0008DE89FE61D969C938E931C97DF91CF9152
:102F00000895F999FECF92BD81BDF89A992780B5B1
:102F10000895262FF999FECF1FBA92BD81BD20BD1D
:102F20000FB6F894FA9AF99A0FBE01960895052EF5
:102F300097FB1EF400940E94AE1757FD07D00E9425
:102F4000C11707FC03D04EF40C94AE175095409572
:102F5000309521953F4F4F4F5F4F08959095809545
:102F6000709561957F4F8F4F9F4F08950E94E31793
:102F7000A59F900DB49F900DA49F800D911D1124CD
:102F80000895A1E21A2EAA1BBB1BFD010DC0AA1FAA
:102F9000BB1FEE1FFF1FA217B307E407F50720F0C2
:102FA000A21BB30BE40BF50B661F771F881F991F3D
:102FB0001A9469F760957095809590959B01AC0186
:102FC000BD01CF010895A29FB001B39FC001A39F8F
:102FD000700D811D1124911DB29F700D811D112452
:102FE000911D0895DB018F939F930E94B617BF91A7
:102FF000AF91A29F800D911DA39F900DB29F900D48
:1030000011240895AA1BBB1B51E107C0AA1FBB1FB7
:10301000A617B70710F0A61BB70B881F991F5A9564
:10302000A9F780959095BC01CD01089597FB072ED7
:1030300016F4009407D077FD09D00E94021807FC0F
:1030400005D03EF4909581959F4F089570956195B8
:103050007F4F0895EE0FFF1F0590F491E02D099426
:0E30600081E090E0F8940C943518F894FFCFBE
:10306E0001010101015954580200595458040059E4
:10307E00545806001900070106020503040F0B0E33
:10308E000A0D090C0807000603050204010F080EBD
:10309E000B0D0A0C0900000000B3011C014B01FAD4
:1030AE00017C015A016E0142616E6B206C656E00EF
:0630BE003A20000D0A009B
:00000001FF
